{
  "_format": "hh-sol-artifact-1",
  "contractName": "CharityDAOPlatform",
  "sourceName": "contracts/CharityDAOPlatform.sol",
  "abi": [
    {
      "inputs": [
        {
          "internalType": "address",
          "name": "_proposalContract",
          "type": "address"
        },
        {
          "internalType": "address",
          "name": "_donationContract",
          "type": "address"
        },
        {
          "internalType": "address",
          "name": "_votingContract",
          "type": "address"
        },
        {
          "internalType": "address payable",
          "name": "_fundAllocationContract",
          "type": "address"
        }
      ],
      "stateMutability": "nonpayable",
      "type": "constructor"
    },
    {
      "inputs": [
        {
          "internalType": "uint256",
          "name": "_proposalId",
          "type": "uint256"
        }
      ],
      "name": "approveProposal",
      "outputs": [],
      "stateMutability": "nonpayable",
      "type": "function"
    },
    {
      "inputs": [
        {
          "internalType": "string",
          "name": "_description",
          "type": "string"
        },
        {
          "internalType": "uint256",
          "name": "_amountRequested",
          "type": "uint256"
        },
        {
          "internalType": "address",
          "name": "_recipient",
          "type": "address"
        }
      ],
      "name": "createProposal",
      "outputs": [],
      "stateMutability": "nonpayable",
      "type": "function"
    },
    {
      "inputs": [],
      "name": "donate",
      "outputs": [],
      "stateMutability": "payable",
      "type": "function"
    },
    {
      "inputs": [],
      "name": "donationContract",
      "outputs": [
        {
          "internalType": "contract DonationTracking",
          "name": "",
          "type": "address"
        }
      ],
      "stateMutability": "view",
      "type": "function"
    },
    {
      "inputs": [
        {
          "internalType": "uint256",
          "name": "_proposalId",
          "type": "uint256"
        }
      ],
      "name": "executeProposal",
      "outputs": [],
      "stateMutability": "nonpayable",
      "type": "function"
    },
    {
      "inputs": [],
      "name": "fundAllocationContract",
      "outputs": [
        {
          "internalType": "contract FundAllocation",
          "name": "",
          "type": "address"
        }
      ],
      "stateMutability": "view",
      "type": "function"
    },
    {
      "inputs": [],
      "name": "getAllDonations",
      "outputs": [
        {
          "components": [
            {
              "internalType": "uint256",
              "name": "id",
              "type": "uint256"
            },
            {
              "internalType": "address",
              "name": "donor",
              "type": "address"
            },
            {
              "internalType": "uint256",
              "name": "amount",
              "type": "uint256"
            },
            {
              "internalType": "uint256",
              "name": "timestamp",
              "type": "uint256"
            }
          ],
          "internalType": "struct DonationTracking.Donation[]",
          "name": "",
          "type": "tuple[]"
        }
      ],
      "stateMutability": "view",
      "type": "function"
    },
    {
      "inputs": [],
      "name": "getAllProposals",
      "outputs": [
        {
          "components": [
            {
              "internalType": "uint256",
              "name": "id",
              "type": "uint256"
            },
            {
              "internalType": "string",
              "name": "description",
              "type": "string"
            },
            {
              "internalType": "uint256",
              "name": "amountRequested",
              "type": "uint256"
            },
            {
              "internalType": "uint256",
              "name": "voteCount",
              "type": "uint256"
            },
            {
              "internalType": "bool",
              "name": "approved",
              "type": "bool"
            },
            {
              "internalType": "bool",
              "name": "executed",
              "type": "bool"
            },
            {
              "internalType": "address",
              "name": "recipient",
              "type": "address"
            }
          ],
          "internalType": "struct ProposalManagement.Proposal[]",
          "name": "",
          "type": "tuple[]"
        }
      ],
      "stateMutability": "view",
      "type": "function"
    },
    {
      "inputs": [],
      "name": "owner",
      "outputs": [
        {
          "internalType": "address",
          "name": "",
          "type": "address"
        }
      ],
      "stateMutability": "view",
      "type": "function"
    },
    {
      "inputs": [],
      "name": "proposalContract",
      "outputs": [
        {
          "internalType": "contract ProposalManagement",
          "name": "",
          "type": "address"
        }
      ],
      "stateMutability": "view",
      "type": "function"
    },
    {
      "inputs": [
        {
          "internalType": "uint256",
          "name": "_proposalId",
          "type": "uint256"
        }
      ],
      "name": "voteOnProposal",
      "outputs": [],
      "stateMutability": "nonpayable",
      "type": "function"
    },
    {
      "inputs": [],
      "name": "votingContract",
      "outputs": [
        {
          "internalType": "contract VotingGovernance",
          "name": "",
          "type": "address"
        }
      ],
      "stateMutability": "view",
      "type": "function"
    }
  ],
  "bytecode": "0x608060405234801561001057600080fd5b506040516118b33803806118b383398181016040528101906100329190610220565b33600460006101000a81548173ffffffffffffffffffffffffffffffffffffffff021916908373ffffffffffffffffffffffffffffffffffffffff160217905550836000806101000a81548173ffffffffffffffffffffffffffffffffffffffff021916908373ffffffffffffffffffffffffffffffffffffffff16021790555082600160006101000a81548173ffffffffffffffffffffffffffffffffffffffff021916908373ffffffffffffffffffffffffffffffffffffffff16021790555081600260006101000a81548173ffffffffffffffffffffffffffffffffffffffff021916908373ffffffffffffffffffffffffffffffffffffffff16021790555080600360006101000a81548173ffffffffffffffffffffffffffffffffffffffff021916908373ffffffffffffffffffffffffffffffffffffffff16021790555050505050610287565b600080fd5b600073ffffffffffffffffffffffffffffffffffffffff82169050919050565b60006101af82610184565b9050919050565b6101bf816101a4565b81146101ca57600080fd5b50565b6000815190506101dc816101b6565b92915050565b60006101ed82610184565b9050919050565b6101fd816101e2565b811461020857600080fd5b50565b60008151905061021a816101f4565b92915050565b6000806000806080858703121561023a5761023961017f565b5b6000610248878288016101cd565b9450506020610259878288016101cd565b935050604061026a878288016101cd565b925050606061027b8782880161020b565b91505092959194509250565b61161d806102966000396000f3fe6080604052600436106100a75760003560e01c806398951b561161006457806398951b56146101aa578063add68edc146101d3578063c1fc006a146101fc578063cceb68f514610227578063ed88c68e14610252578063fe7d5b5f1461025c576100a7565b80630d61b519146100ac57806338a59a07146100d55780633aef3900146101005780636ac1e01f1461012b57806375624cb9146101545780638da5cb5b1461017f575b600080fd5b3480156100b857600080fd5b506100d360048036038101906100ce9190610948565b610287565b005b3480156100e157600080fd5b506100ea6103a7565b6040516100f79190610ac9565b60405180910390f35b34801561010c57600080fd5b50610115610444565b6040516101229190610b4a565b60405180910390f35b34801561013757600080fd5b50610152600480360381019061014d9190610cd7565b610468565b005b34801561016057600080fd5b5061016961058c565b6040516101769190610d67565b60405180910390f35b34801561018b57600080fd5b506101946105b2565b6040516101a19190610d91565b60405180910390f35b3480156101b657600080fd5b506101d160048036038101906101cc9190610948565b6105d8565b005b3480156101df57600080fd5b506101fa60048036038101906101f59190610948565b6106f8565b005b34801561020857600080fd5b50610211610788565b60405161021e9190610dcd565b60405180910390f35b34801561023357600080fd5b5061023c6107ae565b6040516102499190610fe0565b60405180910390f35b61025a610849565b005b34801561026857600080fd5b506102716108d8565b60405161027e9190611035565b60405180910390f35b600460009054906101000a900473ffffffffffffffffffffffffffffffffffffffff1673ffffffffffffffffffffffffffffffffffffffff163373ffffffffffffffffffffffffffffffffffffffff1614610317576040517f08c379a000000000000000000000000000000000000000000000000000000000815260040161030e906110d3565b60405180910390fd5b600360009054906101000a900473ffffffffffffffffffffffffffffffffffffffff1673ffffffffffffffffffffffffffffffffffffffff16630d61b519826040518263ffffffff1660e01b81526004016103729190611102565b600060405180830381600087803b15801561038c57600080fd5b505af11580156103a0573d6000803e3d6000fd5b5050505050565b6060600160009054906101000a900473ffffffffffffffffffffffffffffffffffffffff1673ffffffffffffffffffffffffffffffffffffffff166338a59a076040518163ffffffff1660e01b8152600401600060405180830381865afa158015610416573d6000803e3d6000fd5b505050506040513d6000823e3d601f19601f8201168201806040525081019061043f9190611291565b905090565b60008054906101000a900473ffffffffffffffffffffffffffffffffffffffff1681565b600460009054906101000a900473ffffffffffffffffffffffffffffffffffffffff1673ffffffffffffffffffffffffffffffffffffffff163373ffffffffffffffffffffffffffffffffffffffff16146104f8576040517f08c379a00000000000000000000000000000000000000000000000000000000081526004016104ef906110d3565b60405180910390fd5b60008054906101000a900473ffffffffffffffffffffffffffffffffffffffff1673ffffffffffffffffffffffffffffffffffffffff16636ac1e01f8484846040518463ffffffff1660e01b815260040161055593929190611313565b600060405180830381600087803b15801561056f57600080fd5b505af1158015610583573d6000803e3d6000fd5b50505050505050565b600160009054906101000a900473ffffffffffffffffffffffffffffffffffffffff1681565b600460009054906101000a900473ffffffffffffffffffffffffffffffffffffffff1681565b600460009054906101000a900473ffffffffffffffffffffffffffffffffffffffff1673ffffffffffffffffffffffffffffffffffffffff163373ffffffffffffffffffffffffffffffffffffffff1614610668576040517f08c379a000000000000000000000000000000000000000000000000000000000815260040161065f906110d3565b60405180910390fd5b600260009054906101000a900473ffffffffffffffffffffffffffffffffffffffff1673ffffffffffffffffffffffffffffffffffffffff166398951b56826040518263ffffffff1660e01b81526004016106c39190611102565b600060405180830381600087803b1580156106dd57600080fd5b505af11580156106f1573d6000803e3d6000fd5b5050505050565b600260009054906101000a900473ffffffffffffffffffffffffffffffffffffffff1673ffffffffffffffffffffffffffffffffffffffff1663add68edc826040518263ffffffff1660e01b81526004016107539190611102565b600060405180830381600087803b15801561076d57600080fd5b505af1158015610781573d6000803e3d6000fd5b5050505050565b600260009054906101000a900473ffffffffffffffffffffffffffffffffffffffff1681565b606060008054906101000a900473ffffffffffffffffffffffffffffffffffffffff1673ffffffffffffffffffffffffffffffffffffffff1663cceb68f56040518163ffffffff1660e01b8152600401600060405180830381865afa15801561081b573d6000803e3d6000fd5b505050506040513d6000823e3d601f19601f82011682018060405250810190610844919061159e565b905090565b600160009054906101000a900473ffffffffffffffffffffffffffffffffffffffff1673ffffffffffffffffffffffffffffffffffffffff1662362a9534336040518363ffffffff1660e01b81526004016108a49190610d91565b6000604051808303818588803b1580156108bd57600080fd5b505af11580156108d1573d6000803e3d6000fd5b5050505050565b600360009054906101000a900473ffffffffffffffffffffffffffffffffffffffff1681565b6000604051905090565b600080fd5b600080fd5b6000819050919050565b61092581610912565b811461093057600080fd5b50565b6000813590506109428161091c565b92915050565b60006020828403121561095e5761095d610908565b5b600061096c84828501610933565b91505092915050565b600081519050919050565b600082825260208201905092915050565b6000819050602082019050919050565b6109aa81610912565b82525050565b600073ffffffffffffffffffffffffffffffffffffffff82169050919050565b60006109db826109b0565b9050919050565b6109eb816109d0565b82525050565b608082016000820151610a0760008501826109a1565b506020820151610a1a60208501826109e2565b506040820151610a2d60408501826109a1565b506060820151610a4060608501826109a1565b50505050565b6000610a5283836109f1565b60808301905092915050565b6000602082019050919050565b6000610a7682610975565b610a808185610980565b9350610a8b83610991565b8060005b83811015610abc578151610aa38882610a46565b9750610aae83610a5e565b925050600181019050610a8f565b5085935050505092915050565b60006020820190508181036000830152610ae38184610a6b565b905092915050565b6000819050919050565b6000610b10610b0b610b06846109b0565b610aeb565b6109b0565b9050919050565b6000610b2282610af5565b9050919050565b6000610b3482610b17565b9050919050565b610b4481610b29565b82525050565b6000602082019050610b5f6000830184610b3b565b92915050565b600080fd5b600080fd5b6000601f19601f8301169050919050565b7f4e487b7100000000000000000000000000000000000000000000000000000000600052604160045260246000fd5b610bb882610b6f565b810181811067ffffffffffffffff82111715610bd757610bd6610b80565b5b80604052505050565b6000610bea6108fe565b9050610bf68282610baf565b919050565b600067ffffffffffffffff821115610c1657610c15610b80565b5b610c1f82610b6f565b9050602081019050919050565b82818337600083830152505050565b6000610c4e610c4984610bfb565b610be0565b905082815260208101848484011115610c6a57610c69610b6a565b5b610c75848285610c2c565b509392505050565b600082601f830112610c9257610c91610b65565b5b8135610ca2848260208601610c3b565b91505092915050565b610cb4816109d0565b8114610cbf57600080fd5b50565b600081359050610cd181610cab565b92915050565b600080600060608486031215610cf057610cef610908565b5b600084013567ffffffffffffffff811115610d0e57610d0d61090d565b5b610d1a86828701610c7d565b9350506020610d2b86828701610933565b9250506040610d3c86828701610cc2565b9150509250925092565b6000610d5182610b17565b9050919050565b610d6181610d46565b82525050565b6000602082019050610d7c6000830184610d58565b92915050565b610d8b816109d0565b82525050565b6000602082019050610da66000830184610d82565b92915050565b6000610db782610b17565b9050919050565b610dc781610dac565b82525050565b6000602082019050610de26000830184610dbe565b92915050565b600081519050919050565b600082825260208201905092915050565b6000819050602082019050919050565b600081519050919050565b600082825260208201905092915050565b60005b83811015610e4e578082015181840152602081019050610e33565b60008484015250505050565b6000610e6582610e14565b610e6f8185610e1f565b9350610e7f818560208601610e30565b610e8881610b6f565b840191505092915050565b60008115159050919050565b610ea881610e93565b82525050565b600060e083016000830151610ec660008601826109a1565b5060208301518482036020860152610ede8282610e5a565b9150506040830151610ef360408601826109a1565b506060830151610f0660608601826109a1565b506080830151610f196080860182610e9f565b5060a0830151610f2c60a0860182610e9f565b5060c0830151610f3f60c08601826109e2565b508091505092915050565b6000610f568383610eae565b905092915050565b6000602082019050919050565b6000610f7682610de8565b610f808185610df3565b935083602082028501610f9285610e04565b8060005b85811015610fce5784840389528151610faf8582610f4a565b9450610fba83610f5e565b925060208a01995050600181019050610f96565b50829750879550505050505092915050565b60006020820190508181036000830152610ffa8184610f6b565b905092915050565b600061100d82610af5565b9050919050565b600061101f82611002565b9050919050565b61102f81611014565b82525050565b600060208201905061104a6000830184611026565b92915050565b600082825260208201905092915050565b7f4f6e6c79206f776e65722063616e20706572666f726d2074686973206163746960008201527f6f6e000000000000000000000000000000000000000000000000000000000000602082015250565b60006110bd602283611050565b91506110c882611061565b604082019050919050565b600060208201905081810360008301526110ec816110b0565b9050919050565b6110fc81610912565b82525050565b600060208201905061111760008301846110f3565b92915050565b600067ffffffffffffffff82111561113857611137610b80565b5b602082029050602081019050919050565b600080fd5b600080fd5b600080fd5b6000815190506111678161091c565b92915050565b60008151905061117c81610cab565b92915050565b6000608082840312156111985761119761114e565b5b6111a26080610be0565b905060006111b284828501611158565b60008301525060206111c68482850161116d565b60208301525060406111da84828501611158565b60408301525060606111ee84828501611158565b60608301525092915050565b600061120d6112088461111d565b610be0565b905080838252602082019050608084028301858111156112305761122f611149565b5b835b8181101561125957806112458882611182565b845260208401935050608081019050611232565b5050509392505050565b600082601f83011261127857611277610b65565b5b81516112888482602086016111fa565b91505092915050565b6000602082840312156112a7576112a6610908565b5b600082015167ffffffffffffffff8111156112c5576112c461090d565b5b6112d184828501611263565b91505092915050565b60006112e582610e14565b6112ef8185611050565b93506112ff818560208601610e30565b61130881610b6f565b840191505092915050565b6000606082019050818103600083015261132d81866112da565b905061133c60208301856110f3565b6113496040830184610d82565b949350505050565b600067ffffffffffffffff82111561136c5761136b610b80565b5b602082029050602081019050919050565b600061139061138b84610bfb565b610be0565b9050828152602081018484840111156113ac576113ab610b6a565b5b6113b7848285610e30565b509392505050565b600082601f8301126113d4576113d3610b65565b5b81516113e484826020860161137d565b91505092915050565b6113f681610e93565b811461140157600080fd5b50565b600081519050611413816113ed565b92915050565b600060e0828403121561142f5761142e61114e565b5b61143960e0610be0565b9050600061144984828501611158565b600083015250602082015167ffffffffffffffff81111561146d5761146c611153565b5b611479848285016113bf565b602083015250604061148d84828501611158565b60408301525060606114a184828501611158565b60608301525060806114b584828501611404565b60808301525060a06114c984828501611404565b60a08301525060c06114dd8482850161116d565b60c08301525092915050565b60006114fc6114f784611351565b610be0565b9050808382526020820190506020840283018581111561151f5761151e611149565b5b835b8181101561156657805167ffffffffffffffff81111561154457611543610b65565b5b8086016115518982611419565b85526020850194505050602081019050611521565b5050509392505050565b600082601f83011261158557611584610b65565b5b81516115958482602086016114e9565b91505092915050565b6000602082840312156115b4576115b3610908565b5b600082015167ffffffffffffffff8111156115d2576115d161090d565b5b6115de84828501611570565b9150509291505056fea26469706673582212208cb784146d36f9ddd04e0fbbc183622ad87fe02cd66dd8e946efd0b7f7c16f4d64736f6c634300081c0033",
  "linkReferences": {},
  "deployedLinkReferences": {}
}