{
  "_format": "hh-sol-artifact-1",
  "contractName": "CharityDAOPlatform",
  "sourceName": "contracts/CharityDAOPlatform.sol",
  "abi": [
    {
      "inputs": [
        {
          "internalType": "address",
          "name": "_proposalContract",
          "type": "address"
        },
        {
          "internalType": "address",
          "name": "_donationContract",
          "type": "address"
        },
        {
          "internalType": "address",
          "name": "_votingContract",
          "type": "address"
        },
        {
          "internalType": "address payable",
          "name": "_fundAllocationContract",
          "type": "address"
        }
      ],
      "stateMutability": "nonpayable",
      "type": "constructor"
    },
    {
      "anonymous": false,
      "inputs": [
        {
          "indexed": true,
          "internalType": "uint256",
          "name": "proposalId",
          "type": "uint256"
        }
      ],
      "name": "ProposalExecuted",
      "type": "event"
    },
    {
      "inputs": [
        {
          "internalType": "uint256",
          "name": "_proposalId",
          "type": "uint256"
        }
      ],
      "name": "approveProposal",
      "outputs": [],
      "stateMutability": "nonpayable",
      "type": "function"
    },
    {
      "inputs": [
        {
          "internalType": "string",
          "name": "_description",
          "type": "string"
        },
        {
          "internalType": "uint256",
          "name": "_amountRequested",
          "type": "uint256"
        },
        {
          "internalType": "address",
          "name": "_recipient",
          "type": "address"
        }
      ],
      "name": "createProposal",
      "outputs": [],
      "stateMutability": "nonpayable",
      "type": "function"
    },
    {
      "inputs": [],
      "name": "donate",
      "outputs": [],
      "stateMutability": "payable",
      "type": "function"
    },
    {
      "inputs": [],
      "name": "donationContract",
      "outputs": [
        {
          "internalType": "contract DonationTracking",
          "name": "",
          "type": "address"
        }
      ],
      "stateMutability": "view",
      "type": "function"
    },
    {
      "inputs": [
        {
          "internalType": "uint256",
          "name": "_proposalId",
          "type": "uint256"
        }
      ],
      "name": "executeProposal",
      "outputs": [],
      "stateMutability": "nonpayable",
      "type": "function"
    },
    {
      "inputs": [],
      "name": "fundAllocationContract",
      "outputs": [
        {
          "internalType": "contract FundAllocation",
          "name": "",
          "type": "address"
        }
      ],
      "stateMutability": "view",
      "type": "function"
    },
    {
      "inputs": [],
      "name": "getAllDonations",
      "outputs": [
        {
          "components": [
            {
              "internalType": "uint256",
              "name": "id",
              "type": "uint256"
            },
            {
              "internalType": "address",
              "name": "donor",
              "type": "address"
            },
            {
              "internalType": "uint256",
              "name": "amount",
              "type": "uint256"
            },
            {
              "internalType": "uint256",
              "name": "timestamp",
              "type": "uint256"
            }
          ],
          "internalType": "struct DonationTracking.Donation[]",
          "name": "",
          "type": "tuple[]"
        }
      ],
      "stateMutability": "view",
      "type": "function"
    },
    {
      "inputs": [],
      "name": "getAllProposals",
      "outputs": [
        {
          "components": [
            {
              "internalType": "uint256",
              "name": "id",
              "type": "uint256"
            },
            {
              "internalType": "string",
              "name": "description",
              "type": "string"
            },
            {
              "internalType": "uint256",
              "name": "amountRequested",
              "type": "uint256"
            },
            {
              "internalType": "uint256",
              "name": "voteCount",
              "type": "uint256"
            },
            {
              "internalType": "bool",
              "name": "approved",
              "type": "bool"
            },
            {
              "internalType": "bool",
              "name": "executed",
              "type": "bool"
            },
            {
              "internalType": "address",
              "name": "recipient",
              "type": "address"
            },
            {
              "internalType": "uint256",
              "name": "signatureCount",
              "type": "uint256"
            },
            {
              "internalType": "uint256",
              "name": "creationTime",
              "type": "uint256"
            }
          ],
          "internalType": "struct ProposalManagement.Proposal[]",
          "name": "",
          "type": "tuple[]"
        }
      ],
      "stateMutability": "view",
      "type": "function"
    },
    {
      "inputs": [],
      "name": "owner",
      "outputs": [
        {
          "internalType": "address",
          "name": "",
          "type": "address"
        }
      ],
      "stateMutability": "view",
      "type": "function"
    },
    {
      "inputs": [],
      "name": "proposalContract",
      "outputs": [
        {
          "internalType": "contract ProposalManagement",
          "name": "",
          "type": "address"
        }
      ],
      "stateMutability": "view",
      "type": "function"
    },
    {
      "inputs": [
        {
          "internalType": "uint256",
          "name": "",
          "type": "uint256"
        }
      ],
      "name": "proposals",
      "outputs": [
        {
          "internalType": "string",
          "name": "description",
          "type": "string"
        },
        {
          "internalType": "uint256",
          "name": "amountRequested",
          "type": "uint256"
        },
        {
          "internalType": "address",
          "name": "recipient",
          "type": "address"
        },
        {
          "internalType": "enum CharityDAOPlatform.ProposalStatus",
          "name": "status",
          "type": "uint8"
        }
      ],
      "stateMutability": "view",
      "type": "function"
    },
    {
      "inputs": [
        {
          "internalType": "uint256",
          "name": "_proposalId",
          "type": "uint256"
        }
      ],
      "name": "voteOnProposal",
      "outputs": [],
      "stateMutability": "nonpayable",
      "type": "function"
    },
    {
      "inputs": [],
      "name": "votingContract",
      "outputs": [
        {
          "internalType": "contract VotingGovernance",
          "name": "",
          "type": "address"
        }
      ],
      "stateMutability": "view",
      "type": "function"
    }
  ],
  "bytecode": "0x608060405234801561001057600080fd5b50604051611adb380380611adb83398181016040528101906100329190610220565b33600460006101000a81548173ffffffffffffffffffffffffffffffffffffffff021916908373ffffffffffffffffffffffffffffffffffffffff160217905550836000806101000a81548173ffffffffffffffffffffffffffffffffffffffff021916908373ffffffffffffffffffffffffffffffffffffffff16021790555082600160006101000a81548173ffffffffffffffffffffffffffffffffffffffff021916908373ffffffffffffffffffffffffffffffffffffffff16021790555081600260006101000a81548173ffffffffffffffffffffffffffffffffffffffff021916908373ffffffffffffffffffffffffffffffffffffffff16021790555080600360006101000a81548173ffffffffffffffffffffffffffffffffffffffff021916908373ffffffffffffffffffffffffffffffffffffffff16021790555050505050610287565b600080fd5b600073ffffffffffffffffffffffffffffffffffffffff82169050919050565b60006101af82610184565b9050919050565b6101bf816101a4565b81146101ca57600080fd5b50565b6000815190506101dc816101b6565b92915050565b60006101ed82610184565b9050919050565b6101fd816101e2565b811461020857600080fd5b50565b60008151905061021a816101f4565b92915050565b6000806000806080858703121561023a5761023961017f565b5b6000610248878288016101cd565b9450506020610259878288016101cd565b935050604061026a878288016101cd565b925050606061027b8782880161020b565b91505092959194509250565b611845806102966000396000f3fe6080604052600436106100c25760003560e01c80638da5cb5b1161007f578063c1fc006a11610059578063c1fc006a14610257578063cceb68f514610282578063ed88c68e146102ad578063fe7d5b5f146102b7576100c2565b80638da5cb5b146101da57806398951b5614610205578063add68edc1461022e576100c2565b8063013cf08b146100c75780630d61b5191461010757806338a59a07146101305780633aef39001461015b5780636ac1e01f1461018657806375624cb9146101af575b600080fd5b3480156100d357600080fd5b506100ee60048036038101906100e991906109f8565b6102e2565b6040516100fe9493929190610b7c565b60405180910390f35b34801561011357600080fd5b5061012e600480360381019061012991906109f8565b6103c7565b005b34801561013c57600080fd5b506101456104e7565b6040516101529190610cea565b60405180910390f35b34801561016757600080fd5b50610170610584565b60405161017d9190610d6b565b60405180910390f35b34801561019257600080fd5b506101ad60048036038101906101a89190610ee7565b6105a8565b005b3480156101bb57600080fd5b506101c461063c565b6040516101d19190610f77565b60405180910390f35b3480156101e657600080fd5b506101ef610662565b6040516101fc9190610f92565b60405180910390f35b34801561021157600080fd5b5061022c600480360381019061022791906109f8565b610688565b005b34801561023a57600080fd5b50610255600480360381019061025091906109f8565b6107a8565b005b34801561026357600080fd5b5061026c610838565b6040516102799190610fce565b60405180910390f35b34801561028e57600080fd5b5061029761085e565b6040516102a491906111d5565b60405180910390f35b6102b56108f9565b005b3480156102c357600080fd5b506102cc610988565b6040516102d9919061122a565b60405180910390f35b600560205280600052604060002060009150905080600001805461030590611274565b80601f016020809104026020016040519081016040528092919081815260200182805461033190611274565b801561037e5780601f106103535761010080835404028352916020019161037e565b820191906000526020600020905b81548152906001019060200180831161036157829003601f168201915b5050505050908060010154908060020160009054906101000a900473ffffffffffffffffffffffffffffffffffffffff16908060020160149054906101000a900460ff16905084565b600460009054906101000a900473ffffffffffffffffffffffffffffffffffffffff1673ffffffffffffffffffffffffffffffffffffffff163373ffffffffffffffffffffffffffffffffffffffff1614610457576040517f08c379a000000000000000000000000000000000000000000000000000000000815260040161044e90611317565b60405180910390fd5b600360009054906101000a900473ffffffffffffffffffffffffffffffffffffffff1673ffffffffffffffffffffffffffffffffffffffff16630d61b519826040518263ffffffff1660e01b81526004016104b29190611337565b600060405180830381600087803b1580156104cc57600080fd5b505af11580156104e0573d6000803e3d6000fd5b5050505050565b6060600160009054906101000a900473ffffffffffffffffffffffffffffffffffffffff1673ffffffffffffffffffffffffffffffffffffffff166338a59a076040518163ffffffff1660e01b8152600401600060405180830381865afa158015610556573d6000803e3d6000fd5b505050506040513d6000823e3d601f19601f8201168201806040525081019061057f91906114c6565b905090565b60008054906101000a900473ffffffffffffffffffffffffffffffffffffffff1681565b60008054906101000a900473ffffffffffffffffffffffffffffffffffffffff1673ffffffffffffffffffffffffffffffffffffffff16636ac1e01f8484846040518463ffffffff1660e01b81526004016106059392919061150f565b600060405180830381600087803b15801561061f57600080fd5b505af1158015610633573d6000803e3d6000fd5b50505050505050565b600160009054906101000a900473ffffffffffffffffffffffffffffffffffffffff1681565b600460009054906101000a900473ffffffffffffffffffffffffffffffffffffffff1681565b600460009054906101000a900473ffffffffffffffffffffffffffffffffffffffff1673ffffffffffffffffffffffffffffffffffffffff163373ffffffffffffffffffffffffffffffffffffffff1614610718576040517f08c379a000000000000000000000000000000000000000000000000000000000815260040161070f90611317565b60405180910390fd5b600260009054906101000a900473ffffffffffffffffffffffffffffffffffffffff1673ffffffffffffffffffffffffffffffffffffffff166398951b56826040518263ffffffff1660e01b81526004016107739190611337565b600060405180830381600087803b15801561078d57600080fd5b505af11580156107a1573d6000803e3d6000fd5b5050505050565b600260009054906101000a900473ffffffffffffffffffffffffffffffffffffffff1673ffffffffffffffffffffffffffffffffffffffff1663add68edc826040518263ffffffff1660e01b81526004016108039190611337565b600060405180830381600087803b15801561081d57600080fd5b505af1158015610831573d6000803e3d6000fd5b5050505050565b600260009054906101000a900473ffffffffffffffffffffffffffffffffffffffff1681565b606060008054906101000a900473ffffffffffffffffffffffffffffffffffffffff1673ffffffffffffffffffffffffffffffffffffffff1663cceb68f56040518163ffffffff1660e01b8152600401600060405180830381865afa1580156108cb573d6000803e3d6000fd5b505050506040513d6000823e3d601f19601f820116820180604052508101906108f491906117c6565b905090565b600160009054906101000a900473ffffffffffffffffffffffffffffffffffffffff1673ffffffffffffffffffffffffffffffffffffffff1662362a9534336040518363ffffffff1660e01b81526004016109549190610f92565b6000604051808303818588803b15801561096d57600080fd5b505af1158015610981573d6000803e3d6000fd5b5050505050565b600360009054906101000a900473ffffffffffffffffffffffffffffffffffffffff1681565b6000604051905090565b600080fd5b600080fd5b6000819050919050565b6109d5816109c2565b81146109e057600080fd5b50565b6000813590506109f2816109cc565b92915050565b600060208284031215610a0e57610a0d6109b8565b5b6000610a1c848285016109e3565b91505092915050565b600081519050919050565b600082825260208201905092915050565b60005b83811015610a5f578082015181840152602081019050610a44565b60008484015250505050565b6000601f19601f8301169050919050565b6000610a8782610a25565b610a918185610a30565b9350610aa1818560208601610a41565b610aaa81610a6b565b840191505092915050565b610abe816109c2565b82525050565b600073ffffffffffffffffffffffffffffffffffffffff82169050919050565b6000610aef82610ac4565b9050919050565b610aff81610ae4565b82525050565b7f4e487b7100000000000000000000000000000000000000000000000000000000600052602160045260246000fd5b60048110610b4557610b44610b05565b5b50565b6000819050610b5682610b34565b919050565b6000610b6682610b48565b9050919050565b610b7681610b5b565b82525050565b60006080820190508181036000830152610b968187610a7c565b9050610ba56020830186610ab5565b610bb26040830185610af6565b610bbf6060830184610b6d565b95945050505050565b600081519050919050565b600082825260208201905092915050565b6000819050602082019050919050565b610bfd816109c2565b82525050565b610c0c81610ae4565b82525050565b608082016000820151610c286000850182610bf4565b506020820151610c3b6020850182610c03565b506040820151610c4e6040850182610bf4565b506060820151610c616060850182610bf4565b50505050565b6000610c738383610c12565b60808301905092915050565b6000602082019050919050565b6000610c9782610bc8565b610ca18185610bd3565b9350610cac83610be4565b8060005b83811015610cdd578151610cc48882610c67565b9750610ccf83610c7f565b925050600181019050610cb0565b5085935050505092915050565b60006020820190508181036000830152610d048184610c8c565b905092915050565b6000819050919050565b6000610d31610d2c610d2784610ac4565b610d0c565b610ac4565b9050919050565b6000610d4382610d16565b9050919050565b6000610d5582610d38565b9050919050565b610d6581610d4a565b82525050565b6000602082019050610d806000830184610d5c565b92915050565b600080fd5b600080fd5b7f4e487b7100000000000000000000000000000000000000000000000000000000600052604160045260246000fd5b610dc882610a6b565b810181811067ffffffffffffffff82111715610de757610de6610d90565b5b80604052505050565b6000610dfa6109ae565b9050610e068282610dbf565b919050565b600067ffffffffffffffff821115610e2657610e25610d90565b5b610e2f82610a6b565b9050602081019050919050565b82818337600083830152505050565b6000610e5e610e5984610e0b565b610df0565b905082815260208101848484011115610e7a57610e79610d8b565b5b610e85848285610e3c565b509392505050565b600082601f830112610ea257610ea1610d86565b5b8135610eb2848260208601610e4b565b91505092915050565b610ec481610ae4565b8114610ecf57600080fd5b50565b600081359050610ee181610ebb565b92915050565b600080600060608486031215610f0057610eff6109b8565b5b600084013567ffffffffffffffff811115610f1e57610f1d6109bd565b5b610f2a86828701610e8d565b9350506020610f3b868287016109e3565b9250506040610f4c86828701610ed2565b9150509250925092565b6000610f6182610d38565b9050919050565b610f7181610f56565b82525050565b6000602082019050610f8c6000830184610f68565b92915050565b6000602082019050610fa76000830184610af6565b92915050565b6000610fb882610d38565b9050919050565b610fc881610fad565b82525050565b6000602082019050610fe36000830184610fbf565b92915050565b600081519050919050565b600082825260208201905092915050565b6000819050602082019050919050565b600082825260208201905092915050565b600061103182610a25565b61103b8185611015565b935061104b818560208601610a41565b61105481610a6b565b840191505092915050565b60008115159050919050565b6110748161105f565b82525050565b6000610120830160008301516110936000860182610bf4565b50602083015184820360208601526110ab8282611026565b91505060408301516110c06040860182610bf4565b5060608301516110d36060860182610bf4565b5060808301516110e6608086018261106b565b5060a08301516110f960a086018261106b565b5060c083015161110c60c0860182610c03565b5060e083015161111f60e0860182610bf4565b50610100830151611134610100860182610bf4565b508091505092915050565b600061114b838361107a565b905092915050565b6000602082019050919050565b600061116b82610fe9565b6111758185610ff4565b93508360208202850161118785611005565b8060005b858110156111c357848403895281516111a4858261113f565b94506111af83611153565b925060208a0199505060018101905061118b565b50829750879550505050505092915050565b600060208201905081810360008301526111ef8184611160565b905092915050565b600061120282610d16565b9050919050565b6000611214826111f7565b9050919050565b61122481611209565b82525050565b600060208201905061123f600083018461121b565b92915050565b7f4e487b7100000000000000000000000000000000000000000000000000000000600052602260045260246000fd5b6000600282049050600182168061128c57607f821691505b60208210810361129f5761129e611245565b5b50919050565b7f4f6e6c79206f776e65722063616e20706572666f726d2074686973206163746960008201527f6f6e000000000000000000000000000000000000000000000000000000000000602082015250565b6000611301602283610a30565b915061130c826112a5565b604082019050919050565b60006020820190508181036000830152611330816112f4565b9050919050565b600060208201905061134c6000830184610ab5565b92915050565b600067ffffffffffffffff82111561136d5761136c610d90565b5b602082029050602081019050919050565b600080fd5b600080fd5b600080fd5b60008151905061139c816109cc565b92915050565b6000815190506113b181610ebb565b92915050565b6000608082840312156113cd576113cc611383565b5b6113d76080610df0565b905060006113e78482850161138d565b60008301525060206113fb848285016113a2565b602083015250604061140f8482850161138d565b60408301525060606114238482850161138d565b60608301525092915050565b600061144261143d84611352565b610df0565b905080838252602082019050608084028301858111156114655761146461137e565b5b835b8181101561148e578061147a88826113b7565b845260208401935050608081019050611467565b5050509392505050565b600082601f8301126114ad576114ac610d86565b5b81516114bd84826020860161142f565b91505092915050565b6000602082840312156114dc576114db6109b8565b5b600082015167ffffffffffffffff8111156114fa576114f96109bd565b5b61150684828501611498565b91505092915050565b600060608201905081810360008301526115298186610a7c565b90506115386020830185610ab5565b6115456040830184610af6565b949350505050565b600067ffffffffffffffff82111561156857611567610d90565b5b602082029050602081019050919050565b600061158c61158784610e0b565b610df0565b9050828152602081018484840111156115a8576115a7610d8b565b5b6115b3848285610a41565b509392505050565b600082601f8301126115d0576115cf610d86565b5b81516115e0848260208601611579565b91505092915050565b6115f28161105f565b81146115fd57600080fd5b50565b60008151905061160f816115e9565b92915050565b6000610120828403121561162c5761162b611383565b5b611637610120610df0565b905060006116478482850161138d565b600083015250602082015167ffffffffffffffff81111561166b5761166a611388565b5b611677848285016115bb565b602083015250604061168b8482850161138d565b604083015250606061169f8482850161138d565b60608301525060806116b384828501611600565b60808301525060a06116c784828501611600565b60a08301525060c06116db848285016113a2565b60c08301525060e06116ef8482850161138d565b60e0830152506101006117048482850161138d565b6101008301525092915050565b600061172461171f8461154d565b610df0565b905080838252602082019050602084028301858111156117475761174661137e565b5b835b8181101561178e57805167ffffffffffffffff81111561176c5761176b610d86565b5b8086016117798982611615565b85526020850194505050602081019050611749565b5050509392505050565b600082601f8301126117ad576117ac610d86565b5b81516117bd848260208601611711565b91505092915050565b6000602082840312156117dc576117db6109b8565b5b600082015167ffffffffffffffff8111156117fa576117f96109bd565b5b61180684828501611798565b9150509291505056fea26469706673582212201386f86b9cbaa38eb953d4fdf52fc2eb43b6c4edf8c0e55c462336fdfa85ea2a64736f6c634300081c0033",
  "linkReferences": {},
  "deployedLinkReferences": {}
}