{
  "_format": "hh-sol-artifact-1",
  "contractName": "FundAllocation",
  "sourceName": "contracts/FundAllocation.sol",
  "abi": [
    {
      "inputs": [
        {
          "internalType": "address",
          "name": "_proposalContract",
          "type": "address"
        }
      ],
      "stateMutability": "nonpayable",
      "type": "constructor"
    },
    {
      "anonymous": false,
      "inputs": [
        {
          "indexed": false,
          "internalType": "address",
          "name": "sender",
          "type": "address"
        },
        {
          "indexed": false,
          "internalType": "uint256",
          "name": "amount",
          "type": "uint256"
        }
      ],
      "name": "FundsReceived",
      "type": "event"
    },
    {
      "anonymous": false,
      "inputs": [
        {
          "indexed": true,
          "internalType": "address",
          "name": "previousOwner",
          "type": "address"
        },
        {
          "indexed": true,
          "internalType": "address",
          "name": "newOwner",
          "type": "address"
        }
      ],
      "name": "OwnershipTransferred",
      "type": "event"
    },
    {
      "anonymous": false,
      "inputs": [
        {
          "indexed": false,
          "internalType": "address",
          "name": "platformContract",
          "type": "address"
        }
      ],
      "name": "PlatformContractSet",
      "type": "event"
    },
    {
      "anonymous": false,
      "inputs": [
        {
          "indexed": false,
          "internalType": "uint256",
          "name": "proposalId",
          "type": "uint256"
        },
        {
          "indexed": false,
          "internalType": "address",
          "name": "beneficiary",
          "type": "address"
        },
        {
          "indexed": false,
          "internalType": "uint256",
          "name": "amount",
          "type": "uint256"
        }
      ],
      "name": "ProposalExecuted",
      "type": "event"
    },
    {
      "inputs": [
        {
          "internalType": "uint256",
          "name": "_proposalId",
          "type": "uint256"
        }
      ],
      "name": "executeProposal",
      "outputs": [],
      "stateMutability": "nonpayable",
      "type": "function"
    },
    {
      "inputs": [],
      "name": "getBalance",
      "outputs": [
        {
          "internalType": "uint256",
          "name": "",
          "type": "uint256"
        }
      ],
      "stateMutability": "view",
      "type": "function"
    },
    {
      "inputs": [],
      "name": "owner",
      "outputs": [
        {
          "internalType": "address",
          "name": "",
          "type": "address"
        }
      ],
      "stateMutability": "view",
      "type": "function"
    },
    {
      "inputs": [],
      "name": "platformContract",
      "outputs": [
        {
          "internalType": "address",
          "name": "",
          "type": "address"
        }
      ],
      "stateMutability": "view",
      "type": "function"
    },
    {
      "inputs": [],
      "name": "proposalContract",
      "outputs": [
        {
          "internalType": "contract ProposalManagement",
          "name": "",
          "type": "address"
        }
      ],
      "stateMutability": "view",
      "type": "function"
    },
    {
      "inputs": [
        {
          "internalType": "address",
          "name": "_platformContract",
          "type": "address"
        }
      ],
      "name": "setPlatformContract",
      "outputs": [],
      "stateMutability": "nonpayable",
      "type": "function"
    },
    {
      "inputs": [
        {
          "internalType": "address",
          "name": "newOwner",
          "type": "address"
        }
      ],
      "name": "transferOwnership",
      "outputs": [],
      "stateMutability": "nonpayable",
      "type": "function"
    },
    {
      "stateMutability": "payable",
      "type": "receive"
    }
  ],
  "bytecode": "0x608060405234801561001057600080fd5b5060405161159f38038061159f8339818101604052810190610032919061018b565b600073ffffffffffffffffffffffffffffffffffffffff168173ffffffffffffffffffffffffffffffffffffffff16036100a1576040517f08c379a000000000000000000000000000000000000000000000000000000000815260040161009890610215565b60405180910390fd5b806000806101000a81548173ffffffffffffffffffffffffffffffffffffffff021916908373ffffffffffffffffffffffffffffffffffffffff16021790555033600160006101000a81548173ffffffffffffffffffffffffffffffffffffffff021916908373ffffffffffffffffffffffffffffffffffffffff16021790555050610235565b600080fd5b600073ffffffffffffffffffffffffffffffffffffffff82169050919050565b60006101588261012d565b9050919050565b6101688161014d565b811461017357600080fd5b50565b6000815190506101858161015f565b92915050565b6000602082840312156101a1576101a0610128565b5b60006101af84828501610176565b91505092915050565b600082825260208201905092915050565b7f496e76616c696420636f6e747261637420616464726573732e00000000000000600082015250565b60006101ff6019836101b8565b915061020a826101c9565b602082019050919050565b6000602082019050818103600083015261022e816101f2565b9050919050565b61135b806102446000396000f3fe6080604052600436106100745760003560e01c80633aef39001161004e5780633aef3900146101385780638da5cb5b14610163578063a44760f21461018e578063f2fde38b146101b7576100b4565b80630d61b519146100b957806312065fe0146100e2578063162746951461010d576100b4565b366100b4577f8e47b87b0ef542cdfa1659c551d88bad38aa7f452d2bbb349ab7530dfec8be8f33346040516100aa9291906109ce565b60405180910390a1005b600080fd5b3480156100c557600080fd5b506100e060048036038101906100db9190610a37565b6101e0565b005b3480156100ee57600080fd5b506100f76105c3565b6040516101049190610a64565b60405180910390f35b34801561011957600080fd5b506101226105cb565b60405161012f9190610a7f565b60405180910390f35b34801561014457600080fd5b5061014d6105f1565b60405161015a9190610af9565b60405180910390f35b34801561016f57600080fd5b50610178610615565b6040516101859190610a7f565b60405180910390f35b34801561019a57600080fd5b506101b560048036038101906101b09190610b40565b61063b565b005b3480156101c357600080fd5b506101de60048036038101906101d99190610b40565b6107b5565b005b600160009054906101000a900473ffffffffffffffffffffffffffffffffffffffff1673ffffffffffffffffffffffffffffffffffffffff163373ffffffffffffffffffffffffffffffffffffffff1614806102895750600260009054906101000a900473ffffffffffffffffffffffffffffffffffffffff1673ffffffffffffffffffffffffffffffffffffffff163373ffffffffffffffffffffffffffffffffffffffff16145b6102c8576040517f08c379a00000000000000000000000000000000000000000000000000000000081526004016102bf90610bf0565b60405180910390fd5b60008060009054906101000a900473ffffffffffffffffffffffffffffffffffffffff1673ffffffffffffffffffffffffffffffffffffffff16633656de21836040518263ffffffff1660e01b81526004016103249190610a64565b600060405180830381865afa158015610341573d6000803e3d6000fd5b505050506040513d6000823e3d601f19601f8201168201806040525081019061036a9190610ed9565b905080608001516103b0576040517f08c379a00000000000000000000000000000000000000000000000000000000081526004016103a790610f6e565b60405180910390fd5b8060a00151156103f5576040517f08c379a00000000000000000000000000000000000000000000000000000000081526004016103ec90610fda565b60405180910390fd5b806040015147101561043c576040517f08c379a000000000000000000000000000000000000000000000000000000000815260040161043390611046565b60405180910390fd5b60008054906101000a900473ffffffffffffffffffffffffffffffffffffffff1673ffffffffffffffffffffffffffffffffffffffff1663424a3d77836040518263ffffffff1660e01b81526004016104959190610a64565b600060405180830381600087803b1580156104af57600080fd5b505af11580156104c3573d6000803e3d6000fd5b5050505060008160c0015173ffffffffffffffffffffffffffffffffffffffff1682604001516040516104f590611097565b60006040518083038185875af1925050503d8060008114610532576040519150601f19603f3d011682016040523d82523d6000602084013e610537565b606091505b505090508061057b576040517f08c379a0000000000000000000000000000000000000000000000000000000008152600401610572906110f8565b60405180910390fd5b7f3b7c90df35b419337cff0919fe91849006607bb66c4373623f06f9d48c1ebb98838360c0015184604001516040516105b693929190611118565b60405180910390a1505050565b600047905090565b600260009054906101000a900473ffffffffffffffffffffffffffffffffffffffff1681565b60008054906101000a900473ffffffffffffffffffffffffffffffffffffffff1681565b600160009054906101000a900473ffffffffffffffffffffffffffffffffffffffff1681565b600160009054906101000a900473ffffffffffffffffffffffffffffffffffffffff1673ffffffffffffffffffffffffffffffffffffffff163373ffffffffffffffffffffffffffffffffffffffff16146106cb576040517f08c379a00000000000000000000000000000000000000000000000000000000081526004016106c29061119b565b60405180910390fd5b600073ffffffffffffffffffffffffffffffffffffffff168173ffffffffffffffffffffffffffffffffffffffff160361073a576040517f08c379a000000000000000000000000000000000000000000000000000000000815260040161073190611207565b60405180910390fd5b80600260006101000a81548173ffffffffffffffffffffffffffffffffffffffff021916908373ffffffffffffffffffffffffffffffffffffffff1602179055507f561b5d96d0dad1e880862d94311750445f54b6f2f1c882243ccfec955f54fdb7816040516107aa9190610a7f565b60405180910390a150565b600160009054906101000a900473ffffffffffffffffffffffffffffffffffffffff1673ffffffffffffffffffffffffffffffffffffffff163373ffffffffffffffffffffffffffffffffffffffff1614610845576040517f08c379a000000000000000000000000000000000000000000000000000000000815260040161083c90611299565b60405180910390fd5b600073ffffffffffffffffffffffffffffffffffffffff168173ffffffffffffffffffffffffffffffffffffffff16036108b4576040517f08c379a00000000000000000000000000000000000000000000000000000000081526004016108ab90611305565b60405180910390fd5b8073ffffffffffffffffffffffffffffffffffffffff16600160009054906101000a900473ffffffffffffffffffffffffffffffffffffffff1673ffffffffffffffffffffffffffffffffffffffff167f8be0079c531659141344cd1fd0a4f28419497f9722a3daafe3b4186f6b6457e060405160405180910390a380600160006101000a81548173ffffffffffffffffffffffffffffffffffffffff021916908373ffffffffffffffffffffffffffffffffffffffff16021790555050565b600073ffffffffffffffffffffffffffffffffffffffff82169050919050565b600061099f82610974565b9050919050565b6109af81610994565b82525050565b6000819050919050565b6109c8816109b5565b82525050565b60006040820190506109e360008301856109a6565b6109f060208301846109bf565b9392505050565b6000604051905090565b600080fd5b600080fd5b610a14816109b5565b8114610a1f57600080fd5b50565b600081359050610a3181610a0b565b92915050565b600060208284031215610a4d57610a4c610a01565b5b6000610a5b84828501610a22565b91505092915050565b6000602082019050610a7960008301846109bf565b92915050565b6000602082019050610a9460008301846109a6565b92915050565b6000819050919050565b6000610abf610aba610ab584610974565b610a9a565b610974565b9050919050565b6000610ad182610aa4565b9050919050565b6000610ae382610ac6565b9050919050565b610af381610ad8565b82525050565b6000602082019050610b0e6000830184610aea565b92915050565b610b1d81610994565b8114610b2857600080fd5b50565b600081359050610b3a81610b14565b92915050565b600060208284031215610b5657610b55610a01565b5b6000610b6484828501610b2b565b91505092915050565b600082825260208201905092915050565b7f4f6e6c79206f776e6572206f7220706c6174666f726d2063616e20657865637560008201527f74652070726f706f73616c730000000000000000000000000000000000000000602082015250565b6000610bda602c83610b6d565b9150610be582610b7e565b604082019050919050565b60006020820190508181036000830152610c0981610bcd565b9050919050565b600080fd5b6000601f19601f8301169050919050565b7f4e487b7100000000000000000000000000000000000000000000000000000000600052604160045260246000fd5b610c5e82610c15565b810181811067ffffffffffffffff82111715610c7d57610c7c610c26565b5b80604052505050565b6000610c906109f7565b9050610c9c8282610c55565b919050565b600080fd5b600081519050610cb581610a0b565b92915050565b600080fd5b600080fd5b600067ffffffffffffffff821115610ce057610cdf610c26565b5b610ce982610c15565b9050602081019050919050565b60005b83811015610d14578082015181840152602081019050610cf9565b60008484015250505050565b6000610d33610d2e84610cc5565b610c86565b905082815260208101848484011115610d4f57610d4e610cc0565b5b610d5a848285610cf6565b509392505050565b600082601f830112610d7757610d76610cbb565b5b8151610d87848260208601610d20565b91505092915050565b60008115159050919050565b610da581610d90565b8114610db057600080fd5b50565b600081519050610dc281610d9c565b92915050565b600081519050610dd781610b14565b92915050565b60006101208284031215610df457610df3610c10565b5b610dff610120610c86565b90506000610e0f84828501610ca6565b600083015250602082015167ffffffffffffffff811115610e3357610e32610ca1565b5b610e3f84828501610d62565b6020830152506040610e5384828501610ca6565b6040830152506060610e6784828501610ca6565b6060830152506080610e7b84828501610db3565b60808301525060a0610e8f84828501610db3565b60a08301525060c0610ea384828501610dc8565b60c08301525060e0610eb784828501610ca6565b60e083015250610100610ecc84828501610ca6565b6101008301525092915050565b600060208284031215610eef57610eee610a01565b5b600082015167ffffffffffffffff811115610f0d57610f0c610a06565b5b610f1984828501610ddd565b91505092915050565b7f50726f706f73616c206e6f7420617070726f766564207965742e000000000000600082015250565b6000610f58601a83610b6d565b9150610f6382610f22565b602082019050919050565b60006020820190508181036000830152610f8781610f4b565b9050919050565b7f50726f706f73616c20616c72656164792065786563757465642e000000000000600082015250565b6000610fc4601a83610b6d565b9150610fcf82610f8e565b602082019050919050565b60006020820190508181036000830152610ff381610fb7565b9050919050565b7f496e73756666696369656e7420636f6e74726163742062616c616e63652e0000600082015250565b6000611030601e83610b6d565b915061103b82610ffa565b602082019050919050565b6000602082019050818103600083015261105f81611023565b9050919050565b600081905092915050565b50565b6000611081600083611066565b915061108c82611071565b600082019050919050565b60006110a282611074565b9150819050919050565b7f5472616e73666572206661696c65640000000000000000000000000000000000600082015250565b60006110e2600f83610b6d565b91506110ed826110ac565b602082019050919050565b60006020820190508181036000830152611111816110d5565b9050919050565b600060608201905061112d60008301866109bf565b61113a60208301856109a6565b61114760408301846109bf565b949350505050565b7f4f6e6c79206f776e65722063616e2073657420706c6174666f726d0000000000600082015250565b6000611185601b83610b6d565b91506111908261114f565b602082019050919050565b600060208201905081810360008301526111b481611178565b9050919050565b7f496e76616c696420706c6174666f726d20616464726573730000000000000000600082015250565b60006111f1601883610b6d565b91506111fc826111bb565b602082019050919050565b60006020820190508181036000830152611220816111e4565b9050919050565b7f4f6e6c79206f776e65722063616e207472616e73666572206f776e657273686960008201527f7000000000000000000000000000000000000000000000000000000000000000602082015250565b6000611283602183610b6d565b915061128e82611227565b604082019050919050565b600060208201905081810360008301526112b281611276565b9050919050565b7f4e6577206f776e65722063616e6e6f74206265207a65726f2061646472657373600082015250565b60006112ef602083610b6d565b91506112fa826112b9565b602082019050919050565b6000602082019050818103600083015261131e816112e2565b905091905056fea2646970667358221220f1f8521d4e37fa09dbfb7843b36a1aa656570476e37b63c92c10b379b1d2655364736f6c634300081c0033",
  "linkReferences": {},
  "deployedLinkReferences": {}
}