{
  "_format": "hh-sol-artifact-1",
  "contractName": "FundAllocation",
  "sourceName": "contracts/FundAllocation.sol",
  "abi": [
    {
      "inputs": [
        {
          "internalType": "address",
          "name": "_proposalContract",
          "type": "address"
        }
      ],
      "stateMutability": "nonpayable",
      "type": "constructor"
    },
    {
      "anonymous": false,
      "inputs": [
        {
          "indexed": false,
          "internalType": "address",
          "name": "sender",
          "type": "address"
        },
        {
          "indexed": false,
          "internalType": "uint256",
          "name": "amount",
          "type": "uint256"
        }
      ],
      "name": "FundsReceived",
      "type": "event"
    },
    {
      "anonymous": false,
      "inputs": [
        {
          "indexed": false,
          "internalType": "uint256",
          "name": "proposalId",
          "type": "uint256"
        },
        {
          "indexed": false,
          "internalType": "address",
          "name": "beneficiary",
          "type": "address"
        },
        {
          "indexed": false,
          "internalType": "uint256",
          "name": "amount",
          "type": "uint256"
        }
      ],
      "name": "ProposalExecuted",
      "type": "event"
    },
    {
      "inputs": [
        {
          "internalType": "uint256",
          "name": "_proposalId",
          "type": "uint256"
        }
      ],
      "name": "executeProposal",
      "outputs": [],
      "stateMutability": "nonpayable",
      "type": "function"
    },
    {
      "inputs": [],
      "name": "getBalance",
      "outputs": [
        {
          "internalType": "uint256",
          "name": "",
          "type": "uint256"
        }
      ],
      "stateMutability": "view",
      "type": "function"
    },
    {
      "inputs": [],
      "name": "owner",
      "outputs": [
        {
          "internalType": "address",
          "name": "",
          "type": "address"
        }
      ],
      "stateMutability": "view",
      "type": "function"
    },
    {
      "inputs": [],
      "name": "proposalContract",
      "outputs": [
        {
          "internalType": "contract ProposalManagement",
          "name": "",
          "type": "address"
        }
      ],
      "stateMutability": "view",
      "type": "function"
    },
    {
      "stateMutability": "payable",
      "type": "receive"
    }
  ],
  "bytecode": "0x608060405234801561001057600080fd5b50604051610e1a380380610e1a8339818101604052810190610032919061018b565b600073ffffffffffffffffffffffffffffffffffffffff168173ffffffffffffffffffffffffffffffffffffffff16036100a1576040517f08c379a000000000000000000000000000000000000000000000000000000000815260040161009890610215565b60405180910390fd5b806000806101000a81548173ffffffffffffffffffffffffffffffffffffffff021916908373ffffffffffffffffffffffffffffffffffffffff16021790555033600160006101000a81548173ffffffffffffffffffffffffffffffffffffffff021916908373ffffffffffffffffffffffffffffffffffffffff16021790555050610235565b600080fd5b600073ffffffffffffffffffffffffffffffffffffffff82169050919050565b60006101588261012d565b9050919050565b6101688161014d565b811461017357600080fd5b50565b6000815190506101858161015f565b92915050565b6000602082840312156101a1576101a0610128565b5b60006101af84828501610176565b91505092915050565b600082825260208201905092915050565b7f496e76616c696420636f6e747261637420616464726573732e00000000000000600082015250565b60006101ff6019836101b8565b915061020a826101c9565b602082019050919050565b6000602082019050818103600083015261022e816101f2565b9050919050565b610bd6806102446000396000f3fe6080604052600436106100435760003560e01c80630d61b5191461008857806312065fe0146100b15780633aef3900146100dc5780638da5cb5b1461010757610083565b36610083577f8e47b87b0ef542cdfa1659c551d88bad38aa7f452d2bbb349ab7530dfec8be8f333460405161007992919061053f565b60405180910390a1005b600080fd5b34801561009457600080fd5b506100af60048036038101906100aa91906105a8565b610132565b005b3480156100bd57600080fd5b506100c6610493565b6040516100d391906105d5565b60405180910390f35b3480156100e857600080fd5b506100f161049b565b6040516100fe919061064f565b60405180910390f35b34801561011357600080fd5b5061011c6104bf565b604051610129919061066a565b60405180910390f35b600160009054906101000a900473ffffffffffffffffffffffffffffffffffffffff1673ffffffffffffffffffffffffffffffffffffffff163373ffffffffffffffffffffffffffffffffffffffff16146101c2576040517f08c379a00000000000000000000000000000000000000000000000000000000081526004016101b990610708565b60405180910390fd5b60008060009054906101000a900473ffffffffffffffffffffffffffffffffffffffff1673ffffffffffffffffffffffffffffffffffffffff16633656de21836040518263ffffffff1660e01b815260040161021e91906105d5565b600060405180830381865afa15801561023b573d6000803e3d6000fd5b505050506040513d6000823e3d601f19601f8201168201806040525081019061026491906109dc565b905080608001516102aa576040517f08c379a00000000000000000000000000000000000000000000000000000000081526004016102a190610a71565b60405180910390fd5b8060a00151156102ef576040517f08c379a00000000000000000000000000000000000000000000000000000000081526004016102e690610add565b60405180910390fd5b8060400151471015610336576040517f08c379a000000000000000000000000000000000000000000000000000000000815260040161032d90610b49565b60405180910390fd5b60008054906101000a900473ffffffffffffffffffffffffffffffffffffffff1673ffffffffffffffffffffffffffffffffffffffff1663424a3d77836040518263ffffffff1660e01b815260040161038f91906105d5565b600060405180830381600087803b1580156103a957600080fd5b505af11580156103bd573d6000803e3d6000fd5b50505050600160009054906101000a900473ffffffffffffffffffffffffffffffffffffffff1673ffffffffffffffffffffffffffffffffffffffff166108fc82604001519081150290604051600060405180830381858888f1935050505015801561042d573d6000803e3d6000fd5b507f3b7c90df35b419337cff0919fe91849006607bb66c4373623f06f9d48c1ebb9882600160009054906101000a900473ffffffffffffffffffffffffffffffffffffffff16836040015160405161048793929190610b69565b60405180910390a15050565b600047905090565b60008054906101000a900473ffffffffffffffffffffffffffffffffffffffff1681565b600160009054906101000a900473ffffffffffffffffffffffffffffffffffffffff1681565b600073ffffffffffffffffffffffffffffffffffffffff82169050919050565b6000610510826104e5565b9050919050565b61052081610505565b82525050565b6000819050919050565b61053981610526565b82525050565b60006040820190506105546000830185610517565b6105616020830184610530565b9392505050565b6000604051905090565b600080fd5b600080fd5b61058581610526565b811461059057600080fd5b50565b6000813590506105a28161057c565b92915050565b6000602082840312156105be576105bd610572565b5b60006105cc84828501610593565b91505092915050565b60006020820190506105ea6000830184610530565b92915050565b6000819050919050565b600061061561061061060b846104e5565b6105f0565b6104e5565b9050919050565b6000610627826105fa565b9050919050565b60006106398261061c565b9050919050565b6106498161062e565b82525050565b60006020820190506106646000830184610640565b92915050565b600060208201905061067f6000830184610517565b92915050565b600082825260208201905092915050565b7f4f6e6c79206f776e65722063616e20657865637574652070726f706f73616c7360008201527f2e00000000000000000000000000000000000000000000000000000000000000602082015250565b60006106f2602183610685565b91506106fd82610696565b604082019050919050565b60006020820190508181036000830152610721816106e5565b9050919050565b600080fd5b6000601f19601f8301169050919050565b7f4e487b7100000000000000000000000000000000000000000000000000000000600052604160045260246000fd5b6107768261072d565b810181811067ffffffffffffffff821117156107955761079461073e565b5b80604052505050565b60006107a8610568565b90506107b4828261076d565b919050565b600080fd5b6000815190506107cd8161057c565b92915050565b600080fd5b600080fd5b600067ffffffffffffffff8211156107f8576107f761073e565b5b6108018261072d565b9050602081019050919050565b60005b8381101561082c578082015181840152602081019050610811565b60008484015250505050565b600061084b610846846107dd565b61079e565b905082815260208101848484011115610867576108666107d8565b5b61087284828561080e565b509392505050565b600082601f83011261088f5761088e6107d3565b5b815161089f848260208601610838565b91505092915050565b60008115159050919050565b6108bd816108a8565b81146108c857600080fd5b50565b6000815190506108da816108b4565b92915050565b6108e981610505565b81146108f457600080fd5b50565b600081519050610906816108e0565b92915050565b600060e0828403121561092257610921610728565b5b61092c60e061079e565b9050600061093c848285016107be565b600083015250602082015167ffffffffffffffff8111156109605761095f6107b9565b5b61096c8482850161087a565b6020830152506040610980848285016107be565b6040830152506060610994848285016107be565b60608301525060806109a8848285016108cb565b60808301525060a06109bc848285016108cb565b60a08301525060c06109d0848285016108f7565b60c08301525092915050565b6000602082840312156109f2576109f1610572565b5b600082015167ffffffffffffffff811115610a1057610a0f610577565b5b610a1c8482850161090c565b91505092915050565b7f50726f706f73616c206e6f7420617070726f766564207965742e000000000000600082015250565b6000610a5b601a83610685565b9150610a6682610a25565b602082019050919050565b60006020820190508181036000830152610a8a81610a4e565b9050919050565b7f50726f706f73616c20616c72656164792065786563757465642e000000000000600082015250565b6000610ac7601a83610685565b9150610ad282610a91565b602082019050919050565b60006020820190508181036000830152610af681610aba565b9050919050565b7f496e73756666696369656e7420636f6e74726163742062616c616e63652e0000600082015250565b6000610b33601e83610685565b9150610b3e82610afd565b602082019050919050565b60006020820190508181036000830152610b6281610b26565b9050919050565b6000606082019050610b7e6000830186610530565b610b8b6020830185610517565b610b986040830184610530565b94935050505056fea26469706673582212209e7471d6170d2dd60a558bd5a26903d5a415834883b9eaec7a0a11c1bee28b7d64736f6c634300081c0033",
  "linkReferences": {},
  "deployedLinkReferences": {}
}