{
  "_format": "hh-sol-artifact-1",
  "contractName": "ProposalManagement",
  "sourceName": "contracts/ProposalManagement.sol",
  "abi": [
    {
      "inputs": [],
      "stateMutability": "nonpayable",
      "type": "constructor"
    },
    {
      "anonymous": false,
      "inputs": [
        {
          "indexed": false,
          "internalType": "uint256",
          "name": "id",
          "type": "uint256"
        }
      ],
      "name": "ProposalApproved",
      "type": "event"
    },
    {
      "anonymous": false,
      "inputs": [
        {
          "indexed": false,
          "internalType": "uint256",
          "name": "id",
          "type": "uint256"
        },
        {
          "indexed": false,
          "internalType": "string",
          "name": "description",
          "type": "string"
        },
        {
          "indexed": false,
          "internalType": "uint256",
          "name": "amountRequested",
          "type": "uint256"
        }
      ],
      "name": "ProposalCreated",
      "type": "event"
    },
    {
      "anonymous": false,
      "inputs": [
        {
          "indexed": false,
          "internalType": "uint256",
          "name": "id",
          "type": "uint256"
        }
      ],
      "name": "ProposalExecuted",
      "type": "event"
    },
    {
      "anonymous": false,
      "inputs": [
        {
          "indexed": false,
          "internalType": "uint256",
          "name": "id",
          "type": "uint256"
        },
        {
          "indexed": false,
          "internalType": "address",
          "name": "voter",
          "type": "address"
        }
      ],
      "name": "VoteCasted",
      "type": "event"
    },
    {
      "inputs": [
        {
          "internalType": "string",
          "name": "_description",
          "type": "string"
        },
        {
          "internalType": "uint256",
          "name": "_amountRequested",
          "type": "uint256"
        },
        {
          "internalType": "address",
          "name": "_recipient",
          "type": "address"
        }
      ],
      "name": "createProposal",
      "outputs": [],
      "stateMutability": "nonpayable",
      "type": "function"
    },
    {
      "inputs": [],
      "name": "getAllProposals",
      "outputs": [
        {
          "components": [
            {
              "internalType": "uint256",
              "name": "id",
              "type": "uint256"
            },
            {
              "internalType": "string",
              "name": "description",
              "type": "string"
            },
            {
              "internalType": "uint256",
              "name": "amountRequested",
              "type": "uint256"
            },
            {
              "internalType": "uint256",
              "name": "voteCount",
              "type": "uint256"
            },
            {
              "internalType": "bool",
              "name": "approved",
              "type": "bool"
            },
            {
              "internalType": "bool",
              "name": "executed",
              "type": "bool"
            },
            {
              "internalType": "address",
              "name": "recipient",
              "type": "address"
            }
          ],
          "internalType": "struct ProposalManagement.Proposal[]",
          "name": "",
          "type": "tuple[]"
        }
      ],
      "stateMutability": "view",
      "type": "function"
    },
    {
      "inputs": [
        {
          "internalType": "uint256",
          "name": "_proposalId",
          "type": "uint256"
        }
      ],
      "name": "getProposalById",
      "outputs": [
        {
          "components": [
            {
              "internalType": "uint256",
              "name": "id",
              "type": "uint256"
            },
            {
              "internalType": "string",
              "name": "description",
              "type": "string"
            },
            {
              "internalType": "uint256",
              "name": "amountRequested",
              "type": "uint256"
            },
            {
              "internalType": "uint256",
              "name": "voteCount",
              "type": "uint256"
            },
            {
              "internalType": "bool",
              "name": "approved",
              "type": "bool"
            },
            {
              "internalType": "bool",
              "name": "executed",
              "type": "bool"
            },
            {
              "internalType": "address",
              "name": "recipient",
              "type": "address"
            }
          ],
          "internalType": "struct ProposalManagement.Proposal",
          "name": "",
          "type": "tuple"
        }
      ],
      "stateMutability": "view",
      "type": "function"
    },
    {
      "inputs": [],
      "name": "getProposalCount",
      "outputs": [
        {
          "internalType": "uint256",
          "name": "",
          "type": "uint256"
        }
      ],
      "stateMutability": "view",
      "type": "function"
    },
    {
      "inputs": [
        {
          "internalType": "uint256",
          "name": "",
          "type": "uint256"
        },
        {
          "internalType": "address",
          "name": "",
          "type": "address"
        }
      ],
      "name": "hasVoted",
      "outputs": [
        {
          "internalType": "bool",
          "name": "",
          "type": "bool"
        }
      ],
      "stateMutability": "view",
      "type": "function"
    },
    {
      "inputs": [
        {
          "internalType": "uint256",
          "name": "_proposalId",
          "type": "uint256"
        }
      ],
      "name": "incrementVoteCount",
      "outputs": [],
      "stateMutability": "nonpayable",
      "type": "function"
    },
    {
      "inputs": [
        {
          "internalType": "uint256",
          "name": "_proposalId",
          "type": "uint256"
        }
      ],
      "name": "markProposalApproved",
      "outputs": [],
      "stateMutability": "nonpayable",
      "type": "function"
    },
    {
      "inputs": [
        {
          "internalType": "uint256",
          "name": "_proposalId",
          "type": "uint256"
        }
      ],
      "name": "markProposalExecuted",
      "outputs": [],
      "stateMutability": "nonpayable",
      "type": "function"
    },
    {
      "inputs": [],
      "name": "owner",
      "outputs": [
        {
          "internalType": "address",
          "name": "",
          "type": "address"
        }
      ],
      "stateMutability": "view",
      "type": "function"
    },
    {
      "inputs": [],
      "name": "proposalCount",
      "outputs": [
        {
          "internalType": "uint256",
          "name": "",
          "type": "uint256"
        }
      ],
      "stateMutability": "view",
      "type": "function"
    },
    {
      "inputs": [
        {
          "internalType": "uint256",
          "name": "",
          "type": "uint256"
        }
      ],
      "name": "proposals",
      "outputs": [
        {
          "internalType": "uint256",
          "name": "id",
          "type": "uint256"
        },
        {
          "internalType": "string",
          "name": "description",
          "type": "string"
        },
        {
          "internalType": "uint256",
          "name": "amountRequested",
          "type": "uint256"
        },
        {
          "internalType": "uint256",
          "name": "voteCount",
          "type": "uint256"
        },
        {
          "internalType": "bool",
          "name": "approved",
          "type": "bool"
        },
        {
          "internalType": "bool",
          "name": "executed",
          "type": "bool"
        },
        {
          "internalType": "address",
          "name": "recipient",
          "type": "address"
        }
      ],
      "stateMutability": "view",
      "type": "function"
    }
  ],
  "bytecode": "0x6080604052348015600f57600080fd5b5033600260006101000a81548173ffffffffffffffffffffffffffffffffffffffff021916908373ffffffffffffffffffffffffffffffffffffffff160217905550611f07806100606000396000f3fe608060405234801561001057600080fd5b50600436106100a95760003560e01c80636ac1e01f116100715780636ac1e01f1461017c5780638da5cb5b14610198578063c08cc02d146101b6578063cceb68f5146101d4578063da35c664146101f2578063f3b9e61c14610210576100a9565b8063013cf08b146100ae578063257f8088146100e45780633656de2114610100578063424a3d7714610130578063438596321461014c575b600080fd5b6100c860048036038101906100c39190611032565b61022c565b6040516100db979695949392919061115a565b60405180910390f35b6100fe60048036038101906100f99190611032565b610340565b005b61011a60048036038101906101159190611032565b6104fc565b60405161012791906112e3565b60405180910390f35b61014a60048036038101906101459190611032565b6106d1565b005b61016660048036038101906101619190611331565b6109b3565b6040516101739190611371565b60405180910390f35b610196600480360381019061019191906114c1565b6109e2565b005b6101a0610be5565b6040516101ad9190611530565b60405180910390f35b6101be610c0b565b6040516101cb919061154b565b60405180910390f35b6101dc610c15565b6040516101e991906116c4565b60405180910390f35b6101fa610db0565b604051610207919061154b565b60405180910390f35b61022a60048036038101906102259190611032565b610db6565b005b6000818154811061023c57600080fd5b906000526020600020906005020160009150905080600001549080600101805461026590611715565b80601f016020809104026020016040519081016040528092919081815260200182805461029190611715565b80156102de5780601f106102b3576101008083540402835291602001916102de565b820191906000526020600020905b8154815290600101906020018083116102c157829003601f168201915b5050505050908060020154908060030154908060040160009054906101000a900460ff16908060040160019054906101000a900460ff16908060040160029054906101000a900473ffffffffffffffffffffffffffffffffffffffff16905087565b600260009054906101000a900473ffffffffffffffffffffffffffffffffffffffff1673ffffffffffffffffffffffffffffffffffffffff163373ffffffffffffffffffffffffffffffffffffffff16146103d0576040517f08c379a00000000000000000000000000000000000000000000000000000000081526004016103c7906117b8565b60405180910390fd5b6000811180156103e257506001548111155b610421576040517f08c379a000000000000000000000000000000000000000000000000000000000815260040161041890611824565b60405180910390fd5b6000806001836104319190611873565b81548110610442576104416118a7565b5b906000526020600020906005020190508060040160009054906101000a900460ff16156104a4576040517f08c379a000000000000000000000000000000000000000000000000000000000815260040161049b90611922565b60405180910390fd5b60018160040160006101000a81548160ff0219169083151502179055507f28ec9e38ba73636ceb2f6c1574136f83bd46284a3c74734b711bf45e12f8d929826040516104f0919061154b565b60405180910390a15050565b610504610f91565b60008211801561051657506001548211155b610555576040517f08c379a000000000000000000000000000000000000000000000000000000000815260040161054c90611824565b60405180910390fd5b60006001836105649190611873565b81548110610575576105746118a7565b5b90600052602060002090600502016040518060e0016040529081600082015481526020016001820180546105a890611715565b80601f01602080910402602001604051908101604052809291908181526020018280546105d490611715565b80156106215780601f106105f657610100808354040283529160200191610621565b820191906000526020600020905b81548152906001019060200180831161060457829003601f168201915b5050505050815260200160028201548152602001600382015481526020016004820160009054906101000a900460ff161515151581526020016004820160019054906101000a900460ff161515151581526020016004820160029054906101000a900473ffffffffffffffffffffffffffffffffffffffff1673ffffffffffffffffffffffffffffffffffffffff1673ffffffffffffffffffffffffffffffffffffffff16815250509050919050565b600260009054906101000a900473ffffffffffffffffffffffffffffffffffffffff1673ffffffffffffffffffffffffffffffffffffffff163373ffffffffffffffffffffffffffffffffffffffff1614610761576040517f08c379a0000000000000000000000000000000000000000000000000000000008152600401610758906117b8565b60405180910390fd5b60008111801561077357506001548111155b6107b2576040517f08c379a00000000000000000000000000000000000000000000000000000000081526004016107a990611824565b60405180910390fd5b6000806001836107c29190611873565b815481106107d3576107d26118a7565b5b906000526020600020906005020190508060040160009054906101000a900460ff16610834576040517f08c379a000000000000000000000000000000000000000000000000000000000815260040161082b9061198e565b60405180910390fd5b8060040160019054906101000a900460ff1615610886576040517f08c379a000000000000000000000000000000000000000000000000000000000815260040161087d906119fa565b60405180910390fd5b60008160040160029054906101000a900473ffffffffffffffffffffffffffffffffffffffff1673ffffffffffffffffffffffffffffffffffffffff1682600201546040516108d490611a4b565b60006040518083038185875af1925050503d8060008114610911576040519150601f19603f3d011682016040523d82523d6000602084013e610916565b606091505b505090508061095a576040517f08c379a000000000000000000000000000000000000000000000000000000000815260040161095190611aac565b60405180910390fd5b60018260040160016101000a81548160ff0219169083151502179055507f712ae1383f79ac853f8d882153778e0260ef8f03b504e2866e0593e04d2b291f836040516109a6919061154b565b60405180910390a1505050565b60036020528160005260406000206020528060005260406000206000915091509054906101000a900460ff1681565b600073ffffffffffffffffffffffffffffffffffffffff168173ffffffffffffffffffffffffffffffffffffffff1603610a51576040517f08c379a0000000000000000000000000000000000000000000000000000000008152600401610a4890611b18565b60405180910390fd5b60016000815480929190610a6490611b38565b919050555060006040518060e001604052806001548152602001858152602001848152602001600081526020016000151581526020016000151581526020018373ffffffffffffffffffffffffffffffffffffffff168152509080600181540180825580915050600190039060005260206000209060050201600090919091909150600082015181600001556020820151816001019081610b059190611d2c565b50604082015181600201556060820151816003015560808201518160040160006101000a81548160ff02191690831515021790555060a08201518160040160016101000a81548160ff02191690831515021790555060c08201518160040160026101000a81548173ffffffffffffffffffffffffffffffffffffffff021916908373ffffffffffffffffffffffffffffffffffffffff16021790555050507ff5dc0da9afa6d080780a49fd8c680f03d2ddf3c067cd6d0c85360c096644d2d36001548484604051610bd893929190611dfe565b60405180910390a1505050565b600260009054906101000a900473ffffffffffffffffffffffffffffffffffffffff1681565b6000600154905090565b60606000805480602002602001604051908101604052809291908181526020016000905b82821015610da757838290600052602060002090600502016040518060e001604052908160008201548152602001600182018054610c7690611715565b80601f0160208091040260200160405190810160405280929190818152602001828054610ca290611715565b8015610cef5780601f10610cc457610100808354040283529160200191610cef565b820191906000526020600020905b815481529060010190602001808311610cd257829003601f168201915b5050505050815260200160028201548152602001600382015481526020016004820160009054906101000a900460ff161515151581526020016004820160019054906101000a900460ff161515151581526020016004820160029054906101000a900473ffffffffffffffffffffffffffffffffffffffff1673ffffffffffffffffffffffffffffffffffffffff1673ffffffffffffffffffffffffffffffffffffffff168152505081526020019060010190610c39565b50505050905090565b60015481565b600081118015610dc857506001548111155b610e07576040517f08c379a0000000000000000000000000000000000000000000000000000000008152600401610dfe90611824565b60405180910390fd5b6003600082815260200190815260200160002060003373ffffffffffffffffffffffffffffffffffffffff1673ffffffffffffffffffffffffffffffffffffffff16815260200190815260200160002060009054906101000a900460ff1615610ea5576040517f08c379a0000000000000000000000000000000000000000000000000000000008152600401610e9c90611e88565b60405180910390fd5b6000600182610eb49190611873565b81548110610ec557610ec46118a7565b5b90600052602060002090600502016003016000815480929190610ee790611b38565b919050555060016003600083815260200190815260200160002060003373ffffffffffffffffffffffffffffffffffffffff1673ffffffffffffffffffffffffffffffffffffffff16815260200190815260200160002060006101000a81548160ff0219169083151502179055507fd8d46ecf72f6103ff400e47d1b5fdfe248d4ca34a4acd39f63fbe903c8f7e7bd8133604051610f86929190611ea8565b60405180910390a150565b6040518060e0016040528060008152602001606081526020016000815260200160008152602001600015158152602001600015158152602001600073ffffffffffffffffffffffffffffffffffffffff1681525090565b6000604051905090565b600080fd5b600080fd5b6000819050919050565b61100f81610ffc565b811461101a57600080fd5b50565b60008135905061102c81611006565b92915050565b60006020828403121561104857611047610ff2565b5b60006110568482850161101d565b91505092915050565b61106881610ffc565b82525050565b61107781611139565b82525050565b600060e08301600083015161125f60008601826111d0565b506020830151848203602086015261127782826111f0565b915050604083015161128c60408601826111d0565b50606083015161129f60608601826111d0565b5060808301516112b26080860182611229565b5060a08301516112c560a0860182611229565b5060c08301516112d860c0860182611238565b508091505092915050565b600060208201905081810360008301526112fd8184611247565b905092915050565b61130e81611139565b811461131957600080fd5b50565b60008135905061132b81611305565b92915050565b6000806040838503121561134857611347610ff2565b5b60006113568582860161101d565b92505060206113678582860161131c565b9150509250929050565b6000602082019050611386600083018461110a565b92915050565b600080fd5b600080fd5b7f4e487b7100000000000000000000000000000000000000000000000000000000600052604160045260246000fd5b6113ce826110b4565b810181811067ffffffffffffffff821117156113ed576113ec611396565b5b80604052505050565b6000611400610fe8565b905061140c82826113c5565b919050565b600067ffffffffffffffff82111561142c5761142b611396565b5b611435826110b4565b9050602081019050919050565b82818337600083830152505050565b600061146461145f84611411565b6113f6565b9050828152602081018484840111156114805761147f611391565b5b61148b848285611442565b509392505050565b600082601f8301126114a8576114a761138c565b5b81356114b8848260208601611451565b91505092915050565b6000806000606084860312156114da576114d9610ff2565b5b600084013567ffffffffffffffff8111156114f8576114f7610ff7565b5b61150486828701611493565b93505060206115158682870161101d565b92505060406115268682870161131c565b9150509250925092565b6000602082019050611545600083018461114b565b92915050565b6000602082019050611560600083018461105f565b92915050565b600081519050919050565b600082825260208201905092915050565b6000819050602082019050919050565b600060e0830160008301516115aa60008601826111d0565b50602083015184820360208601526115c282826111f0565b91505060408301516115d760408601826111d0565b5060608301516115ea60608601826111d0565b5060808301516115fd6080860182611229565b5060a083015161161060a0860182611229565b5060c083015161162360c0860182611238565b508091505092915050565b600061163a8383611592565b905092915050565b6000602082019050919050565b600061165a82611566565b6116648185611571565b93508360208202850161167685611582565b8060005b858110156116b25784840389528151611693858261162e565b945061169e83611642565b925060208a0199505060018101905061167a565b50829750879550505050505092915050565b600060208201905081810360008301526116de818461164f565b905092915050565b7f4e487b7100000000000000000000000000000000000000000000000000000000600052602260045260246000fd5b6000600282049050600182168061172d57607f821691505b6020821081036117405761173f6116e6565b5b50919050565b7f4f6e6c79206f776e65722063616e20706572666f726d2074686973206163746960008201527f6f6e000000000000000000000000000000000000000000000000000000000000602082015250565b60006117a2602283611079565b91506117ad82611746565b604082019050919050565b600060208201905081810360008301526117d181611795565b9050919050565b7f496e76616c69642070726f706f73616c2049442e000000000000000000000000600082015250565b600061180e601483611079565b9150611819826117d8565b602082019050919050565b6000602082019050818103600083015261183d81611801565b9050919050565b7f4e487b7100000000000000000000000000000000000000000000000000000000600052601160045260246000fd5b600061187e82610ffc565b915061188983610ffc565b92508282039050818111156118a1576118a0611844565b5b92915050565b7f4e487b7100000000000000000000000000000000000000000000000000000000600052603260045260246000fd5b7f50726f706f73616c20697320616c726561647920617070726f7665642e000000600082015250565b600061190c601d83611079565b9150611917826118d6565b602082019050919050565b6000602082019050818103600083015261193b816118ff565b9050919050565b7f50726f706f73616c206d75737420626520617070726f7665642066697273742e600082015250565b6000611978602083611079565b915061198382611942565b602082019050919050565b600060208201905081810360008301526119a78161196b565b9050919050565b7f50726f706f73616c20697320616c72656164792065786563757465642e000000600082015250565b60006119e4601d83611079565b91506119ef826119ae565b602082019050919050565b60006020820190508181036000830152611a13816119d7565b9050919050565b600081905092915050565b50565b6000611a35600083611a1a565b9150611a4082611a25565b600082019050919050565b6000611a5682611a28565b9150819050919050565b7f5472616e73666572206661696c65640000000000000000000000000000000000600082015250565b6000611a96600f83611079565b9150611aa182611a60565b602082019050919050565b60006020820190508181036000830152611ac581611a89565b9050919050565b7f496e76616c696420726563697069656e74206164647265737300000000000000600082015250565b6000611b02601983611079565b9150611b0d82611acc565b602082019050919050565b60006020820190508181036000830152611b3181611af5565b9050919050565b6000611b4382610ffc565b91507fffffffffffffffffffffffffffffffffffffffffffffffffffffffffffffffff8203611b7557611b74611844565b5b600182019050919050565b60008190508160005260206000209050919050565b60006020601f8301049050919050565b600082821b905092915050565b600060088302611be27fffffffffffffffffffffffffffffffffffffffffffffffffffffffffffffffff82611ba5565b611bec8683611ba5565b95508019841693508086168417925050509392505050565b6000819050919050565b6000611c29611c24611c1f84610ffc565b611c04565b610ffc565b9050919050565b611c4383611c0e565b611c57611c4f82611c30565b848454611bb2565b8255505050565b600090565b611c6c611c5f565b611c77818484611c3a565b505050565b5b81811015611c9b57611c90600082611c64565b600181019050611c7d565b5050565b601f821115611ce057611cb181611b80565b611cba84611b95565b81016020851015611cc9578190505b611cdd611cd585611b95565b830182611c7c565b50505b505050565b600082821c905092915050565b6000611d0360001984600802611ce5565b1980831691505092915050565b6000611d1c8383611cf2565b9150826002028217905092915050565b611d358261106e565b67ffffffffffffffff811115611d4e57611d4d611396565b5b611d588254611715565b611d63828285611c9f565b600060209050601f831160018114611d965760008415611d84578287015190505b611d8e8582611d10565b835550611df6565b601f198416611da486611b80565b60005b82811015611dcc57848901518255600182019150602085019450602081019050611da7565b86831015611de95784890151611de5601f891682611cf2565b8355505b6001600288020188555050505b505050505050565b6000606082019050611e13600083018661105f565b8181036020830152611e2581856110c5565b9050611e34604083018461105f565b949350505050565b7f596f75206861766520616c726561647920766f7465642e000000000000000000600082015250565b6000611e72601783611079565b9150611e7d82611e3c565b602082019050919050565b60006020820190508181036000830152611ea181611e65565b9050919050565b6000604082019050611ebd600083018561105f565b611eca602083018461114b565b939250505056fea26469706673582212200215d75ed77a8f8de73bdc61c7fb72fb92cfbf9f70f9d5cd201f42667050234464736f6c634300081c0033",
  "deployedBytecode": "0x6080604052348015600f57600080fd5b5033600260006101000a81548173ffffffffffffffffffffffffffffffffffffffff021916908373ffffffffffffffffffffffffffffffffffffffff160217905550611f07806100606000396000f3fe608060405234801561001057600080fd5b50600436106100a95760003560e01c80636ac1e01f116100715780636ac1e01f1461017c5780638da5cb5b14610198578063c08cc02d146101b6578063cceb68f5146101d4578063da35c664146101f2578063f3b9e61c14610210576100a9565b8063013cf08b146100ae578063257f8088146100e45780633656de2114610100578063424a3d7714610130578063438596321461014c575b600080fd5b6100c860048036038101906100c39190611032565b61022c565b6040516100db979695949392919061115a565b60405180910390f35b6100fe60048036038101906100f99190611032565b610340565b005b61011a60048036038101906101159190611032565b6104fc565b60405161012791906112e3565b60405180910390f35b61014a60048036038101906101459190611032565b6106d1565b005b61016660048036038101906101619190611331565b6109b3565b6040516101739190611371565b60405180910390f35b610196600480360381019061019191906114c1565b6109e2565b005b6101a0610be5565b6040516101ad9190611530565b60405180910390f35b6101be610c0b565b6040516101cb919061154b565b60405180910390f35b6101dc610c15565b6040516101e991906116c4565b60405180910390f35b6101fa610db0565b604051610207919061154b565b60405180910390f35b61022a60048036038101906102259190611032565b610db6565b005b6000818154811061023c57600080fd5b906000526020600020906005020160009150905080600001549080600101805461026590611715565b80601f016020809104026020016040519081016040528092919081815260200182805461029190611715565b80156102de5780601f106102b3576101008083540402835291602001916102de565b820191906000526020600020905b8154815290600101906020018083116102c157829003601f168201915b5050505050908060020154908060030154908060040160009054906101000a900460ff16908060040160019054906101000a900460ff16908060040160029054906101000a900473ffffffffffffffffffffffffffffffffffffffff16905087565b600260009054906101000a900473ffffffffffffffffffffffffffffffffffffffff1673ffffffffffffffffffffffffffffffffffffffff163373ffffffffffffffffffffffffffffffffffffffff16146103d0576040517f08c379a00000000000000000000000000000000000000000000000000000000081526004016103c7906117b8565b60405180910390fd5b6000811180156103e257506001548111155b610421576040517f08c379a000000000000000000000000000000000000000000000000000000000815260040161041890611824565b60405180910390fd5b6000806001836104319190611873565b81548110610442576104416118a7565b5b906000526020600020906005020190508060040160009054906101000a900460ff16156104a4576040517f08c379a000000000000000000000000000000000000000000000000000000000815260040161049b90611922565b60405180910390fd5b60018160040160006101000a81548160ff0219169083151502179055507f28ec9e38ba73636ceb2f6c1574136f83bd46284a3c74734b711bf45e12f8d929826040516104f0919061154b565b60405180910390a15050565b610504610f91565b60008211801561051657506001548211155b610555576040517f08c379a000000000000000000000000000000000000000000000000000000000815260040161054c90611824565b60405180910390fd5b60006001836105649190611873565b81548110610575576105746118a7565b5b90600052602060002090600502016040518060e0016040529081600082015481526020016001820180546105a890611715565b80601f01602080910402602001604051908101604052809291908181526020018280546105d490611715565b80156106215780601f106105f657610100808354040283529160200191610621565b820191906000526020600020905b81548152906001019060200180831161060457829003601f168201915b5050505050815260200160028201548152602001600382015481526020016004820160009054906101000a900460ff161515151581526020016004820160019054906101000a900460ff161515151581526020016004820160029054906101000a900473ffffffffffffffffffffffffffffffffffffffff1673ffffffffffffffffffffffffffffffffffffffff1673ffffffffffffffffffffffffffffffffffffffff16815250509050919050565b600260009054906101000a900473ffffffffffffffffffffffffffffffffffffffff1673ffffffffffffffffffffffffffffffffffffffff163373ffffffffffffffffffffffffffffffffffffffff1614610761576040517f08c379a0000000000000000000000000000000000000000000000000000000008152600401610758906117b8565b60405180910390fd5b60008111801561077357506001548111155b6107b2576040517f08c379a00000000000000000000000000000000000000000000000000000000081526004016107a990611824565b60405180910390fd5b6000806001836107c29190611873565b815481106107d3576107d26118a7565b5b906000526020600020906005020190508060040160009054906101000a900460ff16610834576040517f08c379a000000000000000000000000000000000000000000000000000000000815260040161082b9061198e565b60405180910390fd5b8060040160019054906101000a900460ff1615610886576040517f08c379a000000000000000000000000000000000000000000000000000000000815260040161087d906119fa565b60405180910390fd5b60008160040160029054906101000a900473ffffffffffffffffffffffffffffffffffffffff1673ffffffffffffffffffffffffffffffffffffffff1682600201546040516108d490611a4b565b60006040518083038185875af1925050503d8060008114610911576040519150601f19603f3d011682016040523d82523d6000602084013e610916565b606091505b505090508061095a576040517f08c379a000000000000000000000000000000000000000000000000000000000815260040161095190611aac565b60405180910390fd5b60018260040160016101000a81548160ff0219169083151502179055507f712ae1383f79ac853f8d882153778e0260ef8f03b504e2866e0593e04d2b291f836040516109a6919061154b565b60405180910390a1505050565b60036020528160005260406000206020528060005260406000206000915091509054906101000a900460ff1681565b600073ffffffffffffffffffffffffffffffffffffffff168173ffffffffffffffffffffffffffffffffffffffff1603610a51576040517f08c379a0000000000000000000000000000000000000000000000000000000008152600401610a4890611b18565b60405180910390fd5b60016000815480929190610a6490611b38565b919050555060006040518060e001604052806001548152602001858152602001848152602001600081526020016000151581526020016000151581526020018373ffffffffffffffffffffffffffffffffffffffff168152509080600181540180825580915050600190039060005260206000209060050201600090919091909150600082015181600001556020820151816001019081610b059190611d2c565b50604082015181600201556060820151816003015560808201518160040160006101000a81548160ff02191690831515021790555060a08201518160040160016101000a81548160ff02191690831515021790555060c08201518160040160026101000a81548173ffffffffffffffffffffffffffffffffffffffff021916908373ffffffffffffffffffffffffffffffffffffffff16021790555050507ff5dc0da9afa6d080780a49fd8c680f03d2ddf3c067cd6d0c85360c096644d2d36001548484604051610bd893929190611dfe565b60405180910390a1505050565b600260009054906101000a900473ffffffffffffffffffffffffffffffffffffffff1681565b6000600154905090565b60606000805480602002602001604051908101604052809291908181526020016000905b82821015610da757838290600052602060002090600502016040518060e001604052908160008201548152602001600182018054610c7690611715565b80601f0160208091040260200160405190810160405280929190818152602001828054610ca290611715565b8015610cef5780601f10610cc457610100808354040283529160200191610cef565b820191906000526020600020905b815481529060010190602001808311610cd257829003601f168201915b5050505050815260200160028201548152602001600382015481526020016004820160009054906101000a900460ff161515151581526020016004820160019054906101000a900460ff161515151581526020016004820160029054906101000a900473ffffffffffffffffffffffffffffffffffffffff1673ffffffffffffffffffffffffffffffffffffffff1673ffffffffffffffffffffffffffffffffffffffff168152505081526020019060010190610c39565b50505050905090565b60015481565b600081118015610dc857506001548111155b610e07576040517f08c379a0000000000000000000000000000000000000000000000000000000008152600401610dfe90611824565b60405180910390fd5b6003600082815260200190815260200160002060003373ffffffffffffffffffffffffffffffffffffffff1673ffffffffffffffffffffffffffffffffffffffff16815260200190815260200160002060009054906101000a900460ff1615610ea5576040517f08c379a0000000000000000000000000000000000000000000000000000000008152600401610e9c90611e88565b60405180910390fd5b6000600182610eb49190611873565b81548110610ec557610ec46118a7565b5b90600052602060002090600502016003016000815480929190610ee790611b38565b919050555060016003600083815260200190815260200160002060003373ffffffffffffffffffffffffffffffffffffffff1673ffffffffffffffffffffffffffffffffffffffff16815260200190815260200160002060006101000a81548160ff0219169083151502179055507fd8d46ecf72f6103ff400e47d1b5fdfe248d4ca34a4acd39f63fbe903c8f7e7bd8133604051610f86929190611ea8565b60405180910390a150565b6040518060e0016040528060008152602001606081526020016000815260200160008152602001600015158152602001600015158152602001600073ffffffffffffffffffffffffffffffffffffffff1681525090565b6000604051905090565b600080fd5b600080fd5b6000819050919050565b61100f81610ffc565b811461101a57600080fd5b50565b60008135905061102c81611006565b92915050565b60006020828403121561104857611047610ff2565b5b60006110568482850161101d565b91505092915050565b61106881610ffc565b82525050565b61107781611139565b82525050565b600060e08301600083015161125f60008601826111d0565b506020830151848203602086015261127782826111f0565b915050604083015161128c60408601826111d0565b50606083015161129f60608601826111d0565b5060808301516112b26080860182611229565b5060a08301516112c560a0860182611229565b5060c08301516112d860c0860182611238565b508091505092915050565b600060208201905081810360008301526112fd8184611247565b905092915050565b61130e81611139565b811461131957600080fd5b50565b60008135905061132b81611305565b92915050565b6000806040838503121561134857611347610ff2565b5b60006113568582860161101d565b92505060206113678582860161131c565b9150509250929050565b6000602082019050611386600083018461110a565b92915050565b600080fd5b600080fd5b7f4e487b7100000000000000000000000000000000000000000000000000000000600052604160045260246000fd5b6113ce826110b4565b810181811067ffffffffffffffff821117156113ed576113ec611396565b5b80604052505050565b6000611400610fe8565b905061140c82826113c5565b919050565b600067ffffffffffffffff82111561142c5761142b611396565b5b611435826110b4565b9050602081019050919050565b82818337600083830152505050565b600061146461145f84611411565b6113f6565b9050828152602081018484840111156114805761147f611391565b5b61148b848285611442565b509392505050565b600082601f8301126114a8576114a761138c565b5b81356114b8848260208601611451565b91505092915050565b6000806000606084860312156114da576114d9610ff2565b5b600084013567ffffffffffffffff8111156114f8576114f7610ff7565b5b61150486828701611493565b93505060206115158682870161101d565b92505060406115268682870161131c565b9150509250925092565b6000602082019050611545600083018461114b565b92915050565b6000602082019050611560600083018461105f565b92915050565b600081519050919050565b600082825260208201905092915050565b6000819050602082019050919050565b600060e0830160008301516115aa60008601826111d0565b50602083015184820360208601526115c282826111f0565b91505060408301516115d760408601826111d0565b5060608301516115ea60608601826111d0565b5060808301516115fd6080860182611229565b5060a083015161161060a0860182611229565b5060c083015161162360c0860182611238565b508091505092915050565b600061163a8383611592565b905092915050565b6000602082019050919050565b600061165a82611566565b6116648185611571565b93508360208202850161167685611582565b8060005b858110156116b25784840389528151611693858261162e565b945061169e83611642565b925060208a0199505060018101905061167a565b50829750879550505050505092915050565b600060208201905081810360008301526116de818461164f565b905092915050565b7f4e487b7100000000000000000000000000000000000000000000000000000000600052602260045260246000fd5b6000600282049050600182168061172d57607f821691505b6020821081036117405761173f6116e6565b5b50919050565b7f4f6e6c79206f776e65722063616e20706572666f726d2074686973206163746960008201527f6f6e000000000000000000000000000000000000000000000000000000000000602082015250565b60006117a2602283611079565b91506117ad82611746565b604082019050919050565b600060208201905081810360008301526117d181611795565b9050919050565b7f496e76616c69642070726f706f73616c2049442e000000000000000000000000600082015250565b600061180e601483611079565b9150611819826117d8565b602082019050919050565b6000602082019050818103600083015261183d81611801565b9050919050565b7f4e487b7100000000000000000000000000000000000000000000000000000000600052601160045260246000fd5b600061187e82610ffc565b915061188983610ffc565b92508282039050818111156118a1576118a0611844565b5b92915050565b7f4e487b7100000000000000000000000000000000000000000000000000000000600052603260045260246000fd5b7f50726f706f73616c20697320616c726561647920617070726f7665642e000000600082015250565b600061190c601d83611079565b9150611917826118d6565b602082019050919050565b6000602082019050818103600083015261193b816118ff565b9050919050565b7f50726f706f73616c206d75737420626520617070726f7665642066697273742e600082015250565b6000611978602083611079565b915061198382611942565b602082019050919050565b600060208201905081810360008301526119a78161196b565b9050919050565b7f50726f706f73616c20697320616c72656164792065786563757465642e000000600082015250565b60006119e4601d83611079565b91506119ef826119ae565b602082019050919050565b60006020820190508181036000830152611a13816119d7565b9050919050565b600081905092915050565b50565b6000611a35600083611a1a565b9150611a4082611a25565b600082019050919050565b6000611a5682611a28565b9150819050919050565b7f5472616e73666572206661696c65640000000000000000000000000000000000600082015250565b6000611a96600f83611079565b9150611aa182611a60565b602082019050919050565b60006020820190508181036000830152611ac581611a89565b9050919050565b7f496e76616c696420726563697069656e74206164647265737300000000000000600082015250565b6000611b02601983611079565b9150611b0d82611acc565b602082019050919050565b60006020820190508181036000830152611b3181611af5565b9050919050565b6000611b4382610ffc565b91507fffffffffffffffffffffffffffffffffffffffffffffffffffffffffffffffff8203611b7557611b74611844565b5b600182019050919050565b60008190508160005260206000209050919050565b60006020601f8301049050919050565b600082821b905092915050565b600060088302611be27fffffffffffffffffffffffffffffffffffffffffffffffffffffffffffffffff82611ba5565b611bec8683611ba5565b95508019841693508086168417925050509392505050565b6000819050919050565b6000611c29611c24611c1f84610ffc565b611c04565b610ffc565b9050919050565b611c4383611c0e565b611c57611c4f82611c30565b848454611bb2565b8255505050565b600090565b611c6c611c5f565b611c77818484611c3a565b505050565b5b81811015611c9b57611c90600082611c64565b600181019050611c7d565b5050565b601f821115611ce057611cb181611b80565b611cba84611b95565b81016020851015611cc9578190505b611cdd611cd585611b95565b830182611c7c565b50505b505050565b600082821c905092915050565b6000611d0360001984600802611ce5565b1980831691505092915050565b6000611d1c8383611cf2565b9150826002028217905092915050565b611d358261106e565b67ffffffffffffffff811115611d4e57611d4d611396565b5b611d588254611715565b611d63828285611c9f565b600060209050601f831160018114611d965760008415611d84578287015190505b611d8e8582611d10565b865550611df6565b601f198416611da486611b80565b60005b82811015611dcc57848901518255600182019150602085019450602081019050611da7565b86831015611de95784890151611de5601f891682611cf2565b8355505b6001600288020188555050505b505050505050565b6000606082019050611e13600083018661105f565b8181036020830152611e2581856110c5565b9050611e34604083018461105f565b949350505050565b7f596f75206861766520616c726561647920766f7465642e000000000000000000600082015250565b6000611e72601783611079565b9150611e7d82611e3c565b602082019050919050565b60006020820190508181036000830152611ea181611e65565b9050919050565b6000604082019050611ebd600083018561105f565b611eca602083018461114b565b939250505056fea26469706673582212200215d75ed77a8f8de73bdc61c7fb72fb92cfbf9f70f9d5cd201f42667050234464736f6c634300081c0033",
  "linkReferences": {},
  "deployedLinkReferences": {}
}