{
  "_format": "hh-sol-artifact-1",
  "contractName": "VotingGovernance",
  "sourceName": "contracts/VotingGovernance.sol",
  "abi": [
    {
      "inputs": [
        {
          "internalType": "address",
          "name": "_proposalContract",
          "type": "address"
        },
        {
          "internalType": "address",
          "name": "_donationContract",
          "type": "address"
        },
        {
          "internalType": "address",
          "name": "_owner",
          "type": "address"
        }
      ],
      "stateMutability": "nonpayable",
      "type": "constructor"
    },
    {
      "anonymous": false,
      "inputs": [
        {
          "indexed": false,
          "internalType": "address",
          "name": "oldOwner",
          "type": "address"
        },
        {
          "indexed": false,
          "internalType": "address",
          "name": "newOwner",
          "type": "address"
        }
      ],
      "name": "OwnershipTransferred",
      "type": "event"
    },
    {
      "anonymous": false,
      "inputs": [
        {
          "indexed": false,
          "internalType": "uint256",
          "name": "proposalId",
          "type": "uint256"
        }
      ],
      "name": "ProposalApproved",
      "type": "event"
    },
    {
      "anonymous": false,
      "inputs": [
        {
          "indexed": false,
          "internalType": "uint256",
          "name": "proposalId",
          "type": "uint256"
        }
      ],
      "name": "ProposalExecuted",
      "type": "event"
    },
    {
      "anonymous": false,
      "inputs": [
        {
          "indexed": false,
          "internalType": "uint256",
          "name": "proposalId",
          "type": "uint256"
        },
        {
          "indexed": false,
          "internalType": "address",
          "name": "voter",
          "type": "address"
        }
      ],
      "name": "ProposalVoted",
      "type": "event"
    },
    {
      "inputs": [
        {
          "internalType": "uint256",
          "name": "_proposalId",
          "type": "uint256"
        }
      ],
      "name": "approveProposal",
      "outputs": [],
      "stateMutability": "nonpayable",
      "type": "function"
    },
    {
      "inputs": [],
      "name": "donationContract",
      "outputs": [
        {
          "internalType": "contract DonationTracking",
          "name": "",
          "type": "address"
        }
      ],
      "stateMutability": "view",
      "type": "function"
    },
    {
      "inputs": [
        {
          "internalType": "uint256",
          "name": "_proposalId",
          "type": "uint256"
        }
      ],
      "name": "executeProposal",
      "outputs": [],
      "stateMutability": "nonpayable",
      "type": "function"
    },
    {
      "inputs": [],
      "name": "owner",
      "outputs": [
        {
          "internalType": "address",
          "name": "",
          "type": "address"
        }
      ],
      "stateMutability": "view",
      "type": "function"
    },
    {
      "inputs": [],
      "name": "proposalContract",
      "outputs": [
        {
          "internalType": "contract ProposalManagement",
          "name": "",
          "type": "address"
        }
      ],
      "stateMutability": "view",
      "type": "function"
    },
    {
      "inputs": [
        {
          "internalType": "address",
          "name": "newOwner",
          "type": "address"
        }
      ],
      "name": "transferOwnership",
      "outputs": [],
      "stateMutability": "nonpayable",
      "type": "function"
    },
    {
      "inputs": [
        {
          "internalType": "uint256",
          "name": "_proposalId",
          "type": "uint256"
        }
      ],
      "name": "voteOnProposal",
      "outputs": [],
      "stateMutability": "nonpayable",
      "type": "function"
    }
  ],
  "bytecode": "0x608060405234801561001057600080fd5b50604051611db6380380611db68339818101604052810190610032919061038e565b600073ffffffffffffffffffffffffffffffffffffffff168373ffffffffffffffffffffffffffffffffffffffff161415801561009c5750600073ffffffffffffffffffffffffffffffffffffffff168273ffffffffffffffffffffffffffffffffffffffff1614155b80156100d55750600073ffffffffffffffffffffffffffffffffffffffff168173ffffffffffffffffffffffffffffffffffffffff1614155b610114576040517f08c379a000000000000000000000000000000000000000000000000000000000815260040161010b9061043e565b60405180910390fd5b826000806101000a81548173ffffffffffffffffffffffffffffffffffffffff021916908373ffffffffffffffffffffffffffffffffffffffff16021790555081600160006101000a81548173ffffffffffffffffffffffffffffffffffffffff021916908373ffffffffffffffffffffffffffffffffffffffff16021790555080600260006101000a81548173ffffffffffffffffffffffffffffffffffffffff021916908373ffffffffffffffffffffffffffffffffffffffff160217905550610220604051806060016040528060218152602001611d9560219139600260009054906101000a900473ffffffffffffffffffffffffffffffffffffffff1661022860201b60201c565b50505061054b565b6102c6828260405160240161023e9291906104ec565b6040516020818303038152906040527f319af333000000000000000000000000000000000000000000000000000000007bffffffffffffffffffffffffffffffffffffffffffffffffffffffff19166020820180517bffffffffffffffffffffffffffffffffffffffffffffffffffffffff83818316178352505050506102ca60201b60201c565b5050565b6102eb816102e66102ee60201b610ccb1761030f60201b60201c565b60201c565b50565b60006a636f6e736f6c652e6c6f679050600080835160208501845afa505050565b61032160201b610eeb17819050919050565b61032961051c565b565b600080fd5b600073ffffffffffffffffffffffffffffffffffffffff82169050919050565b600061035b82610330565b9050919050565b61036b81610350565b811461037657600080fd5b50565b60008151905061038881610362565b92915050565b6000806000606084860312156103a7576103a661032b565b5b60006103b586828701610379565b93505060206103c686828701610379565b92505060406103d786828701610379565b9150509250925092565b600082825260208201905092915050565b7f496e76616c696420616464726573730000000000000000000000000000000000600082015250565b6000610428600f836103e1565b9150610433826103f2565b602082019050919050565b600060208201905081810360008301526104578161041b565b9050919050565b600081519050919050565b60005b8381101561048757808201518184015260208101905061046c565b60008484015250505050565b6000601f19601f8301169050919050565b60006104af8261045e565b6104b981856103e1565b93506104c9818560208601610469565b6104d281610493565b840191505092915050565b6104e681610350565b82525050565b6000604082019050818103600083015261050681856104a4565b905061051560208301846104dd565b9392505050565b7f4e487b7100000000000000000000000000000000000000000000000000000000600052605160045260246000fd5b61183b8061055a6000396000f3fe608060405234801561001057600080fd5b506004361061007d5760003560e01c80638da5cb5b1161005b5780638da5cb5b146100da57806398951b56146100f8578063add68edc14610114578063f2fde38b146101305761007d565b80630d61b519146100825780633aef39001461009e57806375624cb9146100bc575b600080fd5b61009c60048036038101906100979190610f3f565b61014c565b005b6100a66104a6565b6040516100b39190610feb565b60405180910390f35b6100c46104ca565b6040516100d19190611027565b60405180910390f35b6100e26104f0565b6040516100ef9190611063565b60405180910390f35b610112600480360381019061010d9190610f3f565b610516565b005b61012e60048036038101906101299190610f3f565b610873565b005b61014a600480360381019061014591906110aa565b610a95565b005b600260009054906101000a900473ffffffffffffffffffffffffffffffffffffffff1673ffffffffffffffffffffffffffffffffffffffff163373ffffffffffffffffffffffffffffffffffffffff16146101dc576040517f08c379a00000000000000000000000000000000000000000000000000000000081526004016101d39061115a565b60405180910390fd5b60008111801561027a575060008054906101000a900473ffffffffffffffffffffffffffffffffffffffff1673ffffffffffffffffffffffffffffffffffffffff1663da35c6646040518163ffffffff1660e01b8152600401602060405180830381865afa158015610252573d6000803e3d6000fd5b505050506040513d601f19601f82011682018060405250810190610276919061118f565b8111155b6102b9576040517f08c379a00000000000000000000000000000000000000000000000000000000081526004016102b090611208565b60405180910390fd5b60008060009054906101000a900473ffffffffffffffffffffffffffffffffffffffff1673ffffffffffffffffffffffffffffffffffffffff16633656de21836040518263ffffffff1660e01b81526004016103159190611237565b600060405180830381865afa158015610332573d6000803e3d6000fd5b505050506040513d6000823e3d601f19601f8201168201806040525081019061035b91906114da565b905080608001516103a1576040517f08c379a000000000000000000000000000000000000000000000000000000000815260040161039890611595565b60405180910390fd5b6103e06040518060400160405280601681526020017f457865637574696e672070726f706f73616c2049443a0000000000000000000081525083610cec565b60008054906101000a900473ffffffffffffffffffffffffffffffffffffffff1673ffffffffffffffffffffffffffffffffffffffff1663424a3d77836040518263ffffffff1660e01b81526004016104399190611237565b600060405180830381600087803b15801561045357600080fd5b505af1158015610467573d6000803e3d6000fd5b505050507f712ae1383f79ac853f8d882153778e0260ef8f03b504e2866e0593e04d2b291f8260405161049a9190611237565b60405180910390a15050565b60008054906101000a900473ffffffffffffffffffffffffffffffffffffffff1681565b600160009054906101000a900473ffffffffffffffffffffffffffffffffffffffff1681565b600260009054906101000a900473ffffffffffffffffffffffffffffffffffffffff1681565b600260009054906101000a900473ffffffffffffffffffffffffffffffffffffffff1673ffffffffffffffffffffffffffffffffffffffff163373ffffffffffffffffffffffffffffffffffffffff16146105a6576040517f08c379a000000000000000000000000000000000000000000000000000000000815260040161059d9061115a565b60405180910390fd5b600081118015610644575060008054906101000a900473ffffffffffffffffffffffffffffffffffffffff1673ffffffffffffffffffffffffffffffffffffffff1663da35c6646040518163ffffffff1660e01b8152600401602060405180830381865afa15801561061c573d6000803e3d6000fd5b505050506040513d601f19601f82011682018060405250810190610640919061118f565b8111155b610683576040517f08c379a000000000000000000000000000000000000000000000000000000000815260040161067a90611208565b60405180910390fd5b60008060009054906101000a900473ffffffffffffffffffffffffffffffffffffffff1673ffffffffffffffffffffffffffffffffffffffff16633656de21836040518263ffffffff1660e01b81526004016106df9190611237565b600060405180830381865afa1580156106fc573d6000803e3d6000fd5b505050506040513d6000823e3d601f19601f8201168201806040525081019061072591906114da565b9050600081606001511161076e576040517f08c379a000000000000000000000000000000000000000000000000000000000815260040161076590611601565b60405180910390fd5b6107ad6040518060400160405280601681526020017f417070726f76696e672070726f706f73616c2049443a0000000000000000000081525083610cec565b60008054906101000a900473ffffffffffffffffffffffffffffffffffffffff1673ffffffffffffffffffffffffffffffffffffffff1663257f8088836040518263ffffffff1660e01b81526004016108069190611237565b600060405180830381600087803b15801561082057600080fd5b505af1158015610834573d6000803e3d6000fd5b505050507f28ec9e38ba73636ceb2f6c1574136f83bd46284a3c74734b711bf45e12f8d929826040516108679190611237565b60405180910390a15050565b6108b26040518060400160405280600f81526020017f566f74696e6720616464726573733a000000000000000000000000000000000081525033610d88565b600081118015610950575060008054906101000a900473ffffffffffffffffffffffffffffffffffffffff1673ffffffffffffffffffffffffffffffffffffffff1663da35c6646040518163ffffffff1660e01b8152600401602060405180830381865afa158015610928573d6000803e3d6000fd5b505050506040513d601f19601f8201168201806040525081019061094c919061118f565b8111155b61098f576040517f08c379a000000000000000000000000000000000000000000000000000000000815260040161098690611208565b60405180910390fd5b60008054906101000a900473ffffffffffffffffffffffffffffffffffffffff1673ffffffffffffffffffffffffffffffffffffffff1663f3b9e61c826040518263ffffffff1660e01b81526004016109e89190611237565b600060405180830381600087803b158015610a0257600080fd5b505af1158015610a16573d6000803e3d6000fd5b50505050610a596040518060400160405280602081526020017f566f7465207265676973746572656420666f722070726f706f73616c2049443a81525082610cec565b7f34647120636ce03d739347e28e9d1bdd34fd03d066ae60439fb1be2721ad16cd8133604051610a8a929190611621565b60405180910390a150565b600260009054906101000a900473ffffffffffffffffffffffffffffffffffffffff1673ffffffffffffffffffffffffffffffffffffffff163373ffffffffffffffffffffffffffffffffffffffff1614610b25576040517f08c379a0000000000000000000000000000000000000000000000000000000008152600401610b1c9061115a565b60405180910390fd5b600073ffffffffffffffffffffffffffffffffffffffff168173ffffffffffffffffffffffffffffffffffffffff1603610b94576040517f08c379a0000000000000000000000000000000000000000000000000000000008152600401610b8b90611696565b60405180910390fd5b610c2c6040518060400160405280601b81526020017f4f776e657273686970207472616e736665727265642066726f6d3a0000000000815250600260009054906101000a900473ffffffffffffffffffffffffffffffffffffffff166040518060400160405280600381526020017f746f3a000000000000000000000000000000000000000000000000000000000081525084610e24565b7f8be0079c531659141344cd1fd0a4f28419497f9722a3daafe3b4186f6b6457e0600260009054906101000a900473ffffffffffffffffffffffffffffffffffffffff1682604051610c7f9291906116b6565b60405180910390a180600260006101000a81548173ffffffffffffffffffffffffffffffffffffffff021916908373ffffffffffffffffffffffffffffffffffffffff16021790555050565b60006a636f6e736f6c652e6c6f679050600080835160208501845afa505050565b610d848282604051602401610d02929190611723565b6040516020818303038152906040527fb60e72cc000000000000000000000000000000000000000000000000000000007bffffffffffffffffffffffffffffffffffffffffffffffffffffffff19166020820180517bffffffffffffffffffffffffffffffffffffffffffffffffffffffff8381831617835250505050610ec6565b5050565b610e208282604051602401610d9e929190611753565b6040516020818303038152906040527f319af333000000000000000000000000000000000000000000000000000000007bffffffffffffffffffffffffffffffffffffffffffffffffffffffff19166020820180517bffffffffffffffffffffffffffffffffffffffffffffffffffffffff8381831617835250505050610ec6565b5050565b610ec084848484604051602401610e3e9493929190611783565b6040516020818303038152906040527faabc9a31000000000000000000000000000000000000000000000000000000007bffffffffffffffffffffffffffffffffffffffffffffffffffffffff19166020820180517bffffffffffffffffffffffffffffffffffffffffffffffffffffffff8381831617835250505050610ec6565b50505050565b610edd81610ed5610ccb610ee0565b63ffffffff16565b50565b610eeb819050919050565b610ef36117d6565b565b6000604051905090565b600080fd5b600080fd5b6000819050919050565b610f1c81610f09565b8114610f2757600080fd5b50565b600081359050610f3981610f13565b92915050565b600060208284031215610f5557610f54610eff565b5b6000610f6384828501610f2a565b91505092915050565b600073ffffffffffffffffffffffffffffffffffffffff82169050919050565b6000819050919050565b6000610fb1610fac610fa784610f6c565b610f8c565b610f6c565b9050919050565b6000610fc382610f96565b9050919050565b6000610fd582610fb8565b9050919050565b610fe581610fca565b82525050565b60006020820190506110006000830184610fdc565b92915050565b600061101182610fb8565b9050919050565b61102181611006565b82525050565b600060208201905061103c6000830184611018565b92915050565b600061104d82610f6c565b9050919050565b61105d81611042565b82525050565b60006020820190506110786000830184611054565b92915050565b61108781611042565b811461109257600080fd5b50565b6000813590506110a48161107e565b92915050565b6000602082840312156110c0576110bf610eff565b5b60006110ce84828501611095565b91505092915050565b600082825260208201905092915050565b7f4f6e6c79206f776e65722063616e20706572666f726d2074686973206163746960008201527f6f6e000000000000000000000000000000000000000000000000000000000000602082015250565b60006111446022836110d7565b915061114f826110e8565b604082019050919050565b6000602082019050818103600083015261117381611137565b9050919050565b60008151905061118981610f13565b92915050565b6000602082840312156111a5576111a4610eff565b5b60006111b38482850161117a565b91505092915050565b7f496e76616c69642070726f706f73616c2049442e000000000000000000000000600082015250565b60006111f26014836110d7565b91506111fd826111bc565b602082019050919050565b60006020820190508181036000830152611221816111e5565b9050919050565b61123181610f09565b82525050565b600060208201905061124c6000830184611228565b92915050565b600080fd5b6000601f19601f8301169050919050565b7f4e487b7100000000000000000000000000000000000000000000000000000000600052604160045260246000fd5b6112a082611257565b810181811067ffffffffffffffff821117156112bf576112be611268565b5b80604052505050565b60006112d2610ef5565b90506112de8282611297565b919050565b600080fd5b600080fd5b600080fd5b600067ffffffffffffffff82111561130d5761130c611268565b5b61131682611257565b9050602081019050919050565b60005b83811015611341578082015181840152602081019050611326565b60008484015250505050565b600061136061135b846112f2565b6112c8565b90508281526020810184848401111561137c5761137b6112ed565b5b611387848285611323565b509392505050565b600082601f8301126113a4576113a36112e8565b5b81516113b484826020860161134d565b91505092915050565b60008115159050919050565b6113d2816113bd565b81146113dd57600080fd5b50565b6000815190506113ef816113c9565b92915050565b6000815190506114048161107e565b92915050565b600060e082840312156114205761141f611252565b5b61142a60e06112c8565b9050600061143a8482850161117a565b600083015250602082015167ffffffffffffffff81111561145e5761145d6112e3565b5b61146a8482850161138f565b602083015250604061147e8482850161117a565b60408301525060606114928482850161117a565b60608301525060806114a6848285016113e0565b60808301525060a06114ba848285016113e0565b60a08301525060c06114ce848285016113f5565b60c08301525092915050565b6000602082840312156114f0576114ef610eff565b5b600082015167ffffffffffffffff81111561150e5761150d610f04565b5b61151a8482850161140a565b91505092915050565b7f50726f706f73616c206d75737420626520617070726f766564206265666f726560008201527f20657865637574696f6e2e000000000000000000000000000000000000000000602082015250565b600061157f602b836110d7565b915061158a82611523565b604082019050919050565b600060208201905081810360008301526115ae81611572565b9050919050565b7f4e6f20766f746573206361737420666f7220746869732070726f706f73616c2e600082015250565b60006115eb6020836110d7565b91506115f6826115b5565b602082019050919050565b6000602082019050818103600083015261161a816115de565b9050919050565b60006040820190506116366000830185611228565b6116436020830184611054565b9392505050565b7f4e6577206f776e65722063616e6e6f74206265207a65726f2061646472657373600082015250565b60006116806020836110d7565b915061168b8261164a565b602082019050919050565b600060208201905081810360008301526116af81611673565b9050919050565b60006040820190506116cb6000830185611054565b6116d86020830184611054565b9392505050565b600081519050919050565b60006116f5826116df565b6116ff81856110d7565b935061170f818560208601611323565b61171881611257565b840191505092915050565b6000604082019050818103600083015261173d81856116ea565b905061174c6020830184611228565b9392505050565b6000604082019050818103600083015261176d81856116ea565b905061177c6020830184611054565b9392505050565b6000608082019050818103600083015261179d81876116ea565b90506117ac6020830186611054565b81810360408301526117be81856116ea565b90506117cd6060830184611054565b95945050505050565b7f4e487b7100000000000000000000000000000000000000000000000000000000600052605160045260246000fdfea26469706673582212208a5bf4f09543407d1a0da5fecad1ad2a83a4396b743711a2289e68ad05086fbc64736f6c634300081c0033566f74696e67476f7665726e616e6365206465706c6f7965642e204f776e65723a",
  "linkReferences": {},
  "deployedLinkReferences": {}
}