{
  "_format": "hh-sol-artifact-1",
  "contractName": "VotingGovernance",
  "sourceName": "contracts/VotingGovernance.sol",
  "abi": [
    {
      "inputs": [
        {
          "internalType": "address",
          "name": "_proposalContract",
          "type": "address"
        },
        {
          "internalType": "address",
          "name": "_donationContract",
          "type": "address"
        },
        {
          "internalType": "address",
          "name": "_owner",
          "type": "address"
        }
      ],
      "stateMutability": "nonpayable",
      "type": "constructor"
    },
    {
      "anonymous": false,
      "inputs": [
        {
          "indexed": false,
          "internalType": "uint256",
          "name": "proposalId",
          "type": "uint256"
        }
      ],
      "name": "ProposalApproved",
      "type": "event"
    },
    {
      "anonymous": false,
      "inputs": [
        {
          "indexed": false,
          "internalType": "uint256",
          "name": "proposalId",
          "type": "uint256"
        },
        {
          "indexed": false,
          "internalType": "address",
          "name": "voter",
          "type": "address"
        }
      ],
      "name": "VoteCasted",
      "type": "event"
    },
    {
      "inputs": [],
      "name": "MIN_VOTES_FOR_APPROVAL",
      "outputs": [
        {
          "internalType": "uint256",
          "name": "",
          "type": "uint256"
        }
      ],
      "stateMutability": "view",
      "type": "function"
    },
    {
      "inputs": [
        {
          "internalType": "uint256",
          "name": "_proposalId",
          "type": "uint256"
        }
      ],
      "name": "approveProposal",
      "outputs": [],
      "stateMutability": "nonpayable",
      "type": "function"
    },
    {
      "inputs": [
        {
          "internalType": "uint256",
          "name": "_proposalId",
          "type": "uint256"
        }
      ],
      "name": "canExecute",
      "outputs": [
        {
          "internalType": "bool",
          "name": "",
          "type": "bool"
        }
      ],
      "stateMutability": "view",
      "type": "function"
    },
    {
      "inputs": [],
      "name": "donationContract",
      "outputs": [
        {
          "internalType": "contract DonationTracking",
          "name": "",
          "type": "address"
        }
      ],
      "stateMutability": "view",
      "type": "function"
    },
    {
      "inputs": [
        {
          "internalType": "uint256",
          "name": "_proposalId",
          "type": "uint256"
        }
      ],
      "name": "executeProposal",
      "outputs": [],
      "stateMutability": "nonpayable",
      "type": "function"
    },
    {
      "inputs": [],
      "name": "getMinVotesForApproval",
      "outputs": [
        {
          "internalType": "uint256",
          "name": "",
          "type": "uint256"
        }
      ],
      "stateMutability": "pure",
      "type": "function"
    },
    {
      "inputs": [
        {
          "internalType": "uint256",
          "name": "_proposalId",
          "type": "uint256"
        }
      ],
      "name": "getRemainingExecutionDelay",
      "outputs": [
        {
          "internalType": "uint256",
          "name": "",
          "type": "uint256"
        }
      ],
      "stateMutability": "view",
      "type": "function"
    },
    {
      "inputs": [
        {
          "internalType": "uint256",
          "name": "_proposalId",
          "type": "uint256"
        },
        {
          "internalType": "address",
          "name": "_voter",
          "type": "address"
        }
      ],
      "name": "hasUserVoted",
      "outputs": [
        {
          "internalType": "bool",
          "name": "",
          "type": "bool"
        }
      ],
      "stateMutability": "view",
      "type": "function"
    },
    {
      "inputs": [
        {
          "internalType": "uint256",
          "name": "",
          "type": "uint256"
        },
        {
          "internalType": "address",
          "name": "",
          "type": "address"
        }
      ],
      "name": "hasVoted",
      "outputs": [
        {
          "internalType": "bool",
          "name": "",
          "type": "bool"
        }
      ],
      "stateMutability": "view",
      "type": "function"
    },
    {
      "inputs": [],
      "name": "owner",
      "outputs": [
        {
          "internalType": "address",
          "name": "",
          "type": "address"
        }
      ],
      "stateMutability": "view",
      "type": "function"
    },
    {
      "inputs": [],
      "name": "proposalContract",
      "outputs": [
        {
          "internalType": "contract ProposalManagement",
          "name": "",
          "type": "address"
        }
      ],
      "stateMutability": "view",
      "type": "function"
    },
    {
      "inputs": [
        {
          "internalType": "uint256",
          "name": "_proposalId",
          "type": "uint256"
        }
      ],
      "name": "voteOnProposal",
      "outputs": [],
      "stateMutability": "nonpayable",
      "type": "function"
    }
  ],
  "bytecode": "0x608060405234801561001057600080fd5b50604051611c11380380611c11833981810160405281019061003291906102ac565b600073ffffffffffffffffffffffffffffffffffffffff168373ffffffffffffffffffffffffffffffffffffffff16036100a1576040517f08c379a000000000000000000000000000000000000000000000000000000000815260040161009890610382565b60405180910390fd5b600073ffffffffffffffffffffffffffffffffffffffff168273ffffffffffffffffffffffffffffffffffffffff1603610110576040517f08c379a0000000000000000000000000000000000000000000000000000000008152600401610107906103ee565b60405180910390fd5b600073ffffffffffffffffffffffffffffffffffffffff168173ffffffffffffffffffffffffffffffffffffffff160361017f576040517f08c379a00000000000000000000000000000000000000000000000000000000081526004016101769061045a565b60405180910390fd5b826000806101000a81548173ffffffffffffffffffffffffffffffffffffffff021916908373ffffffffffffffffffffffffffffffffffffffff16021790555081600160006101000a81548173ffffffffffffffffffffffffffffffffffffffff021916908373ffffffffffffffffffffffffffffffffffffffff16021790555080600260006101000a81548173ffffffffffffffffffffffffffffffffffffffff021916908373ffffffffffffffffffffffffffffffffffffffff16021790555050505061047a565b600080fd5b600073ffffffffffffffffffffffffffffffffffffffff82169050919050565b60006102798261024e565b9050919050565b6102898161026e565b811461029457600080fd5b50565b6000815190506102a681610280565b92915050565b6000806000606084860312156102c5576102c4610249565b5b60006102d386828701610297565b93505060206102e486828701610297565b92505060406102f586828701610297565b9150509250925092565b600082825260208201905092915050565b7f496e76616c69642050726f706f73616c4d616e6167656d656e7420616464726560008201527f7373000000000000000000000000000000000000000000000000000000000000602082015250565b600061036c6022836102ff565b915061037782610310565b604082019050919050565b6000602082019050818103600083015261039b8161035f565b9050919050565b7f496e76616c696420446f6e6174696f6e547261636b696e672061646472657373600082015250565b60006103d86020836102ff565b91506103e3826103a2565b602082019050919050565b60006020820190508181036000830152610407816103cb565b9050919050565b7f496e76616c6964206f776e657220616464726573730000000000000000000000600082015250565b60006104446015836102ff565b915061044f8261040e565b602082019050919050565b6000602082019050818103600083015261047381610437565b9050919050565b611788806104896000396000f3fe608060405234801561001057600080fd5b50600436106100b45760003560e01c806398951b561161007157806398951b561461017d578063add68edc14610199578063b0701cc0146101b5578063bfe5f76e146101e5578063cc63604a14610203578063dc296ae114610233576100b4565b80630d61b519146100b95780633aef3900146100d557806343859632146100f357806350a1cef31461012357806375624cb9146101415780638da5cb5b1461015f575b600080fd5b6100d360048036038101906100ce9190610da5565b610263565b005b6100dd61045a565b6040516100ea9190610e51565b60405180910390f35b61010d60048036038101906101089190610eaa565b61047e565b60405161011a9190610f05565b60405180910390f35b61012b6104ad565b6040516101389190610f2f565b60405180910390f35b6101496104b6565b6040516101569190610f6b565b60405180910390f35b6101676104dc565b6040516101749190610f95565b60405180910390f35b61019760048036038101906101929190610da5565b610502565b005b6101b360048036038101906101ae9190610da5565b6107ce565b005b6101cf60048036038101906101ca9190610da5565b610ba6565b6040516101dc9190610f2f565b60405180910390f35b6101ed610c4a565b6040516101fa9190610f2f565b60405180910390f35b61021d60048036038101906102189190610da5565b610c4f565b60405161022a9190610f05565b60405180910390f35b61024d60048036038101906102489190610eaa565b610cf3565b60405161025a9190610f05565b60405180910390f35b600260009054906101000a900473ffffffffffffffffffffffffffffffffffffffff1673ffffffffffffffffffffffffffffffffffffffff163373ffffffffffffffffffffffffffffffffffffffff16146102f3576040517f08c379a00000000000000000000000000000000000000000000000000000000081526004016102ea90611033565b60405180910390fd5b60008054906101000a900473ffffffffffffffffffffffffffffffffffffffff1673ffffffffffffffffffffffffffffffffffffffff16638c2a593a826040518263ffffffff1660e01b815260040161034c9190610f2f565b602060405180830381865afa158015610369573d6000803e3d6000fd5b505050506040513d601f19601f8201168201806040525081019061038d919061107f565b6103cc576040517f08c379a00000000000000000000000000000000000000000000000000000000081526004016103c3906110f8565b60405180910390fd5b60008054906101000a900473ffffffffffffffffffffffffffffffffffffffff1673ffffffffffffffffffffffffffffffffffffffff1663424a3d77826040518263ffffffff1660e01b81526004016104259190610f2f565b600060405180830381600087803b15801561043f57600080fd5b505af1158015610453573d6000803e3d6000fd5b5050505050565b60008054906101000a900473ffffffffffffffffffffffffffffffffffffffff1681565b60036020528160005260406000206020528060005260406000206000915091509054906101000a900460ff1681565b60006003905090565b600160009054906101000a900473ffffffffffffffffffffffffffffffffffffffff1681565b600260009054906101000a900473ffffffffffffffffffffffffffffffffffffffff1681565b600260009054906101000a900473ffffffffffffffffffffffffffffffffffffffff1673ffffffffffffffffffffffffffffffffffffffff163373ffffffffffffffffffffffffffffffffffffffff1614610592576040517f08c379a000000000000000000000000000000000000000000000000000000000815260040161058990611033565b60405180910390fd5b60008060009054906101000a900473ffffffffffffffffffffffffffffffffffffffff1673ffffffffffffffffffffffffffffffffffffffff16633656de21836040518263ffffffff1660e01b81526004016105ee9190610f2f565b600060405180830381865afa15801561060b573d6000803e3d6000fd5b505050506040513d6000823e3d601f19601f8201168201806040525081019061063491906113bf565b905080608001511561067b576040517f08c379a000000000000000000000000000000000000000000000000000000000815260040161067290611454565b60405180910390fd5b8060a00151156106c0576040517f08c379a00000000000000000000000000000000000000000000000000000000081526004016106b7906114c0565b60405180910390fd5b600381606001511015610708576040517f08c379a00000000000000000000000000000000000000000000000000000000081526004016106ff9061152c565b60405180910390fd5b60008054906101000a900473ffffffffffffffffffffffffffffffffffffffff1673ffffffffffffffffffffffffffffffffffffffff1663ab273016836040518263ffffffff1660e01b81526004016107619190610f2f565b600060405180830381600087803b15801561077b57600080fd5b505af115801561078f573d6000803e3d6000fd5b505050507f28ec9e38ba73636ceb2f6c1574136f83bd46284a3c74734b711bf45e12f8d929826040516107c29190610f2f565b60405180910390a15050565b600160009054906101000a900473ffffffffffffffffffffffffffffffffffffffff1673ffffffffffffffffffffffffffffffffffffffff1663ef037b90336040518263ffffffff1660e01b81526004016108299190610f95565b602060405180830381865afa158015610846573d6000803e3d6000fd5b505050506040513d601f19601f8201168201806040525081019061086a919061107f565b6108a9576040517f08c379a00000000000000000000000000000000000000000000000000000000081526004016108a090611598565b60405180910390fd5b6003600082815260200190815260200160002060003373ffffffffffffffffffffffffffffffffffffffff1673ffffffffffffffffffffffffffffffffffffffff16815260200190815260200160002060009054906101000a900460ff1615610947576040517f08c379a000000000000000000000000000000000000000000000000000000000815260040161093e90611604565b60405180910390fd5b60008060009054906101000a900473ffffffffffffffffffffffffffffffffffffffff1673ffffffffffffffffffffffffffffffffffffffff16633656de21836040518263ffffffff1660e01b81526004016109a39190610f2f565b600060405180830381865afa1580156109c0573d6000803e3d6000fd5b505050506040513d6000823e3d601f19601f820116820180604052508101906109e991906113bf565b9050806080015115610a30576040517f08c379a0000000000000000000000000000000000000000000000000000000008152600401610a2790611670565b60405180910390fd5b8060a0015115610a75576040517f08c379a0000000000000000000000000000000000000000000000000000000008152600401610a6c906116dc565b60405180910390fd5b60016003600084815260200190815260200160002060003373ffffffffffffffffffffffffffffffffffffffff1673ffffffffffffffffffffffffffffffffffffffff16815260200190815260200160002060006101000a81548160ff02191690831515021790555060008054906101000a900473ffffffffffffffffffffffffffffffffffffffff1673ffffffffffffffffffffffffffffffffffffffff1663f3b9e61c836040518263ffffffff1660e01b8152600401610b379190610f2f565b600060405180830381600087803b158015610b5157600080fd5b505af1158015610b65573d6000803e3d6000fd5b505050507fd8d46ecf72f6103ff400e47d1b5fdfe248d4ca34a4acd39f63fbe903c8f7e7bd8233604051610b9a9291906116fc565b60405180910390a15050565b60008060009054906101000a900473ffffffffffffffffffffffffffffffffffffffff1673ffffffffffffffffffffffffffffffffffffffff1663b0701cc0836040518263ffffffff1660e01b8152600401610c029190610f2f565b602060405180830381865afa158015610c1f573d6000803e3d6000fd5b505050506040513d601f19601f82011682018060405250810190610c439190611725565b9050919050565b600381565b60008060009054906101000a900473ffffffffffffffffffffffffffffffffffffffff1673ffffffffffffffffffffffffffffffffffffffff16638c2a593a836040518263ffffffff1660e01b8152600401610cab9190610f2f565b602060405180830381865afa158015610cc8573d6000803e3d6000fd5b505050506040513d601f19601f82011682018060405250810190610cec919061107f565b9050919050565b60006003600084815260200190815260200160002060008373ffffffffffffffffffffffffffffffffffffffff1673ffffffffffffffffffffffffffffffffffffffff16815260200190815260200160002060009054906101000a900460ff16905092915050565b6000604051905090565b600080fd5b600080fd5b6000819050919050565b610d8281610d6f565b8114610d8d57600080fd5b50565b600081359050610d9f81610d79565b92915050565b600060208284031215610dbb57610dba610d65565b5b6000610dc984828501610d90565b91505092915050565b600073ffffffffffffffffffffffffffffffffffffffff82169050919050565b6000819050919050565b6000610e17610e12610e0d84610dd2565b610df2565b610dd2565b9050919050565b6000610e2982610dfc565b9050919050565b6000610e3b82610e1e565b9050919050565b610e4b81610e30565b82525050565b6000602082019050610e666000830184610e42565b92915050565b6000610e7782610dd2565b9050919050565b610e8781610e6c565b8114610e9257600080fd5b50565b600081359050610ea481610e7e565b92915050565b60008060408385031215610ec157610ec0610d65565b5b6000610ecf85828601610d90565b9250506020610ee085828601610e95565b9150509250929050565b60008115159050919050565b610eff81610eea565b82525050565b6000602082019050610f1a6000830184610ef6565b92915050565b610f2981610d6f565b82525050565b6000602082019050610f446000830184610f20565b92915050565b6000610f5582610e1e565b9050919050565b610f6581610f4a565b82525050565b6000602082019050610f806000830184610f5c565b92915050565b610f8f81610e6c565b82525050565b6000602082019050610faa6000830184610f86565b92915050565b600082825260208201905092915050565b7f4f6e6c79206f776e65722063616e2063616c6c20746869732066756e6374696f60008201527f6e00000000000000000000000000000000000000000000000000000000000000602082015250565b600061101d602183610fb0565b915061102882610fc1565b604082019050919050565b6000602082019050818103600083015261104c81611010565b9050919050565b61105c81610eea565b811461106757600080fd5b50565b60008151905061107981611053565b92915050565b60006020828403121561109557611094610d65565b5b60006110a38482850161106a565b91505092915050565b7f43616e6e6f742065786563757465207965740000000000000000000000000000600082015250565b60006110e2601283610fb0565b91506110ed826110ac565b602082019050919050565b60006020820190508181036000830152611111816110d5565b9050919050565b600080fd5b6000601f19601f8301169050919050565b7f4e487b7100000000000000000000000000000000000000000000000000000000600052604160045260246000fd5b6111668261111d565b810181811067ffffffffffffffff821117156111855761118461112e565b5b80604052505050565b6000611198610d5b565b90506111a4828261115d565b919050565b600080fd5b6000815190506111bd81610d79565b92915050565b600080fd5b600080fd5b600067ffffffffffffffff8211156111e8576111e761112e565b5b6111f18261111d565b9050602081019050919050565b60005b8381101561121c578082015181840152602081019050611201565b60008484015250505050565b600061123b611236846111cd565b61118e565b905082815260208101848484011115611257576112566111c8565b5b6112628482856111fe565b509392505050565b600082601f83011261127f5761127e6111c3565b5b815161128f848260208601611228565b91505092915050565b6000815190506112a781610e7e565b92915050565b600061014082840312156112c4576112c3611118565b5b6112cf61014061118e565b905060006112df848285016111ae565b600083015250602082015167ffffffffffffffff811115611303576113026111a9565b5b61130f8482850161126a565b6020830152506040611323848285016111ae565b6040830152506060611337848285016111ae565b606083015250608061134b8482850161106a565b60808301525060a061135f8482850161106a565b60a08301525060c061137384828501611298565b60c08301525060e061138784828501611298565b60e08301525061010061139c848285016111ae565b610100830152506101206113b2848285016111ae565b6101208301525092915050565b6000602082840312156113d5576113d4610d65565b5b600082015167ffffffffffffffff8111156113f3576113f2610d6a565b5b6113ff848285016112ad565b91505092915050565b7f416c726561647920617070726f76656400000000000000000000000000000000600082015250565b600061143e601083610fb0565b915061144982611408565b602082019050919050565b6000602082019050818103600083015261146d81611431565b9050919050565b7f416c726561647920657865637574656400000000000000000000000000000000600082015250565b60006114aa601083610fb0565b91506114b582611474565b602082019050919050565b600060208201905081810360008301526114d98161149d565b9050919050565b7f496e73756666696369656e7420766f7465730000000000000000000000000000600082015250565b6000611516601283610fb0565b9150611521826114e0565b602082019050919050565b6000602082019050818103600083015261154581611509565b9050919050565b7f4f6e6c79207374616b65686f6c646572732063616e20766f7465000000000000600082015250565b6000611582601a83610fb0565b915061158d8261154c565b602082019050919050565b600060208201905081810360008301526115b181611575565b9050919050565b7f416c726561647920766f74656400000000000000000000000000000000000000600082015250565b60006115ee600d83610fb0565b91506115f9826115b8565b602082019050919050565b6000602082019050818103600083015261161d816115e1565b9050919050565b7f50726f706f73616c20616c726561647920617070726f76656400000000000000600082015250565b600061165a601983610fb0565b915061166582611624565b602082019050919050565b600060208201905081810360008301526116898161164d565b9050919050565b7f50726f706f73616c20616c726561647920657865637574656400000000000000600082015250565b60006116c6601983610fb0565b91506116d182611690565b602082019050919050565b600060208201905081810360008301526116f5816116b9565b9050919050565b60006040820190506117116000830185610f20565b61171e6020830184610f86565b9392505050565b60006020828403121561173b5761173a610d65565b5b6000611749848285016111ae565b9150509291505056fea2646970667358221220b2f6120f59fa197786c638a93acf59b89857759fd7a2a2ccebcb0e10f0b3b32964736f6c634300081c0033",
  "linkReferences": {},
  "deployedLinkReferences": {}
}