{
  "_format": "hh-sol-artifact-1",
  "contractName": "CharityDAOPlatform",
  "sourceName": "contracts/CharityDAOPlatform.sol",
  "abi": [
    {
      "inputs": [],
      "stateMutability": "nonpayable",
      "type": "constructor"
    },
    {
      "anonymous": false,
      "inputs": [
        {
          "indexed": false,
          "internalType": "uint256",
          "name": "id",
          "type": "uint256"
        },
        {
          "indexed": true,
          "internalType": "address",
          "name": "donor",
          "type": "address"
        },
        {
          "indexed": false,
          "internalType": "uint256",
          "name": "amount",
          "type": "uint256"
        },
        {
          "indexed": false,
          "internalType": "uint256",
          "name": "timestamp",
          "type": "uint256"
        }
      ],
      "name": "DonationReceived",
      "type": "event"
    },
    {
      "anonymous": false,
      "inputs": [
        {
          "indexed": false,
          "internalType": "uint256",
          "name": "id",
          "type": "uint256"
        },
        {
          "indexed": false,
          "internalType": "string",
          "name": "description",
          "type": "string"
        },
        {
          "indexed": false,
          "internalType": "uint256",
          "name": "amountRequested",
          "type": "uint256"
        }
      ],
      "name": "ProposalCreated",
      "type": "event"
    },
    {
      "anonymous": false,
      "inputs": [
        {
          "indexed": false,
          "internalType": "uint256",
          "name": "id",
          "type": "uint256"
        }
      ],
      "name": "ProposalExecuted",
      "type": "event"
    },
    {
      "inputs": [
        {
          "internalType": "address",
          "name": "_stakeholder",
          "type": "address"
        }
      ],
      "name": "addStakeholder",
      "outputs": [],
      "stateMutability": "nonpayable",
      "type": "function"
    },
    {
      "inputs": [
        {
          "internalType": "string",
          "name": "_description",
          "type": "string"
        },
        {
          "internalType": "uint256",
          "name": "_amountRequested",
          "type": "uint256"
        }
      ],
      "name": "createProposal",
      "outputs": [],
      "stateMutability": "nonpayable",
      "type": "function"
    },
    {
      "inputs": [],
      "name": "donate",
      "outputs": [],
      "stateMutability": "payable",
      "type": "function"
    },
    {
      "inputs": [],
      "name": "donationCount",
      "outputs": [
        {
          "internalType": "uint256",
          "name": "",
          "type": "uint256"
        }
      ],
      "stateMutability": "view",
      "type": "function"
    },
    {
      "inputs": [
        {
          "internalType": "uint256",
          "name": "",
          "type": "uint256"
        }
      ],
      "name": "donations",
      "outputs": [
        {
          "internalType": "uint256",
          "name": "id",
          "type": "uint256"
        },
        {
          "internalType": "address",
          "name": "donor",
          "type": "address"
        },
        {
          "internalType": "uint256",
          "name": "amount",
          "type": "uint256"
        },
        {
          "internalType": "uint256",
          "name": "timestamp",
          "type": "uint256"
        }
      ],
      "stateMutability": "view",
      "type": "function"
    },
    {
      "inputs": [
        {
          "internalType": "uint256",
          "name": "_proposalId",
          "type": "uint256"
        }
      ],
      "name": "executeProposal",
      "outputs": [],
      "stateMutability": "nonpayable",
      "type": "function"
    },
    {
      "inputs": [],
      "name": "getAllDonations",
      "outputs": [
        {
          "components": [
            {
              "internalType": "uint256",
              "name": "id",
              "type": "uint256"
            },
            {
              "internalType": "address",
              "name": "donor",
              "type": "address"
            },
            {
              "internalType": "uint256",
              "name": "amount",
              "type": "uint256"
            },
            {
              "internalType": "uint256",
              "name": "timestamp",
              "type": "uint256"
            }
          ],
          "internalType": "struct CharityDAOPlatform.Donation[]",
          "name": "",
          "type": "tuple[]"
        }
      ],
      "stateMutability": "view",
      "type": "function"
    },
    {
      "inputs": [],
      "name": "getAllProposals",
      "outputs": [
        {
          "components": [
            {
              "internalType": "uint256",
              "name": "id",
              "type": "uint256"
            },
            {
              "internalType": "string",
              "name": "description",
              "type": "string"
            },
            {
              "internalType": "uint256",
              "name": "amountRequested",
              "type": "uint256"
            },
            {
              "internalType": "uint256",
              "name": "voteCount",
              "type": "uint256"
            },
            {
              "internalType": "bool",
              "name": "executed",
              "type": "bool"
            }
          ],
          "internalType": "struct CharityDAOPlatform.Proposal[]",
          "name": "",
          "type": "tuple[]"
        }
      ],
      "stateMutability": "view",
      "type": "function"
    },
    {
      "inputs": [],
      "name": "owner",
      "outputs": [
        {
          "internalType": "address",
          "name": "",
          "type": "address"
        }
      ],
      "stateMutability": "view",
      "type": "function"
    },
    {
      "inputs": [],
      "name": "proposalCount",
      "outputs": [
        {
          "internalType": "uint256",
          "name": "",
          "type": "uint256"
        }
      ],
      "stateMutability": "view",
      "type": "function"
    },
    {
      "inputs": [
        {
          "internalType": "uint256",
          "name": "",
          "type": "uint256"
        }
      ],
      "name": "proposals",
      "outputs": [
        {
          "internalType": "uint256",
          "name": "id",
          "type": "uint256"
        },
        {
          "internalType": "string",
          "name": "description",
          "type": "string"
        },
        {
          "internalType": "uint256",
          "name": "amountRequested",
          "type": "uint256"
        },
        {
          "internalType": "uint256",
          "name": "voteCount",
          "type": "uint256"
        },
        {
          "internalType": "bool",
          "name": "executed",
          "type": "bool"
        }
      ],
      "stateMutability": "view",
      "type": "function"
    },
    {
      "inputs": [
        {
          "internalType": "address",
          "name": "",
          "type": "address"
        }
      ],
      "name": "stakeholders",
      "outputs": [
        {
          "internalType": "bool",
          "name": "",
          "type": "bool"
        }
      ],
      "stateMutability": "view",
      "type": "function"
    },
    {
      "inputs": [
        {
          "internalType": "uint256",
          "name": "_proposalId",
          "type": "uint256"
        }
      ],
      "name": "voteOnProposal",
      "outputs": [],
      "stateMutability": "nonpayable",
      "type": "function"
    },
    {
      "inputs": [
        {
          "internalType": "uint256",
          "name": "",
          "type": "uint256"
        },
        {
          "internalType": "address",
          "name": "",
          "type": "address"
        }
      ],
      "name": "votes",
      "outputs": [
        {
          "internalType": "bool",
          "name": "",
          "type": "bool"
        }
      ],
      "stateMutability": "view",
      "type": "function"
    }
  ],
  "bytecode": "0x6080604052348015600f57600080fd5b50336000806101000a81548173ffffffffffffffffffffffffffffffffffffffff021916908373ffffffffffffffffffffffffffffffffffffffff1602179055506001600560003373ffffffffffffffffffffffffffffffffffffffff1673ffffffffffffffffffffffffffffffffffffffff16815260200190815260200160002060006101000a81548160ff021916908315150217905550611f36806100b76000396000f3fe6080604052600436106100dd5760003560e01c8063c07cfca91161007f578063da35c66411610059578063da35c664146102c4578063e5c42fd1146102ef578063ed88c68e14610318578063f8626af814610322576100dd565b8063c07cfca91461021f578063cceb68f51461025c578063d23254b414610287576100dd565b806335facf78116100bb57806335facf781461017757806338a59a07146101a05780638da5cb5b146101cb578063add68edc146101f6576100dd565b8063013cf08b146100e25780630d61b519146101235780632abfab4d1461014c575b600080fd5b3480156100ee57600080fd5b5061010960048036038101906101049190610fee565b610362565b60405161011a9594939291906110d5565b60405180910390f35b34801561012f57600080fd5b5061014a60048036038101906101459190610fee565b61043d565b005b34801561015857600080fd5b506101616106a0565b60405161016e919061112f565b60405180910390f35b34801561018357600080fd5b5061019e6004803603810190610199919061127f565b6106a6565b005b3480156101ac57600080fd5b506101b561083b565b6040516101c2919061142f565b60405180910390f35b3480156101d757600080fd5b506101e061090e565b6040516101ed9190611460565b60405180910390f35b34801561020257600080fd5b5061021d60048036038101906102189190610fee565b610932565b005b34801561022b57600080fd5b50610246600480360381019061024191906114a7565b610b60565b60405161025391906114d4565b60405180910390f35b34801561026857600080fd5b50610271610b80565b60405161027e9190611680565b60405180910390f35b34801561029357600080fd5b506102ae60048036038101906102a991906116a2565b610caa565b6040516102bb91906114d4565b60405180910390f35b3480156102d057600080fd5b506102d9610cd9565b6040516102e6919061112f565b60405180910390f35b3480156102fb57600080fd5b50610316600480360381019061031191906114a7565b610cdf565b005b610320610dc8565b005b34801561032e57600080fd5b5061034960048036038101906103449190610fee565b610f44565b60405161035994939291906116e2565b60405180910390f35b6002818154811061037257600080fd5b906000526020600020906005020160009150905080600001549080600101805461039b90611756565b80601f01602080910402602001604051908101604052809291908181526020018280546103c790611756565b80156104145780601f106103e957610100808354040283529160200191610414565b820191906000526020600020905b8154815290600101906020018083116103f757829003601f168201915b5050505050908060020154908060030154908060040160009054906101000a900460ff16905085565b60008054906101000a900473ffffffffffffffffffffffffffffffffffffffff1673ffffffffffffffffffffffffffffffffffffffff163373ffffffffffffffffffffffffffffffffffffffff16146104cb576040517f08c379a00000000000000000000000000000000000000000000000000000000081526004016104c2906117f9565b60405180910390fd5b600060026001836104dc9190611848565b815481106104ed576104ec61187c565b5b906000526020600020906005020190508060040160009054906101000a900460ff161561054f576040517f08c379a0000000000000000000000000000000000000000000000000000000008152600401610546906118f7565b60405180910390fd5b6000816003015411610596576040517f08c379a000000000000000000000000000000000000000000000000000000000815260040161058d90611963565b60405180910390fd5b80600201544710156105dd576040517f08c379a00000000000000000000000000000000000000000000000000000000081526004016105d4906119cf565b60405180910390fd5b60018160040160006101000a81548160ff02191690831515021790555060008054906101000a900473ffffffffffffffffffffffffffffffffffffffff1673ffffffffffffffffffffffffffffffffffffffff166108fc82600201549081150290604051600060405180830381858888f19350505050158015610664573d6000803e3d6000fd5b507f712ae1383f79ac853f8d882153778e0260ef8f03b504e2866e0593e04d2b291f82604051610694919061112f565b60405180910390a15050565b60035481565b60008054906101000a900473ffffffffffffffffffffffffffffffffffffffff1673ffffffffffffffffffffffffffffffffffffffff163373ffffffffffffffffffffffffffffffffffffffff1614610734576040517f08c379a000000000000000000000000000000000000000000000000000000000815260040161072b906117f9565b60405180910390fd5b60046000815480929190610747906119ef565b919050555060026040518060a001604052806004548152602001848152602001838152602001600081526020016000151581525090806001815401808255809150506001900390600052602060002090600502016000909190919091506000820151816000015560208201518160010190816107c39190611be3565b50604082015181600201556060820151816003015560808201518160040160006101000a81548160ff02191690831515021790555050507ff5dc0da9afa6d080780a49fd8c680f03d2ddf3c067cd6d0c85360c096644d2d3600454838360405161082f93929190611cb5565b60405180910390a15050565b60606001805480602002602001604051908101604052809291908181526020016000905b828210156109055783829060005260206000209060040201604051806080016040529081600082015481526020016001820160009054906101000a900473ffffffffffffffffffffffffffffffffffffffff1673ffffffffffffffffffffffffffffffffffffffff1673ffffffffffffffffffffffffffffffffffffffff168152602001600282015481526020016003820154815250508152602001906001019061085f565b50505050905090565b60008054906101000a900473ffffffffffffffffffffffffffffffffffffffff1681565b600560003373ffffffffffffffffffffffffffffffffffffffff1673ffffffffffffffffffffffffffffffffffffffff16815260200190815260200160002060009054906101000a900460ff166109be576040517f08c379a00000000000000000000000000000000000000000000000000000000081526004016109b590611d3f565b60405180910390fd5b6000811180156109d057506004548111155b610a0f576040517f08c379a0000000000000000000000000000000000000000000000000000000008152600401610a0690611dab565b60405180910390fd5b6006600082815260200190815260200160002060003373ffffffffffffffffffffffffffffffffffffffff1673ffffffffffffffffffffffffffffffffffffffff16815260200190815260200160002060009054906101000a900460ff1615610aad576040517f08c379a0000000000000000000000000000000000000000000000000000000008152600401610aa490611e17565b60405180910390fd5b60016006600083815260200190815260200160002060003373ffffffffffffffffffffffffffffffffffffffff1673ffffffffffffffffffffffffffffffffffffffff16815260200190815260200160002060006101000a81548160ff0219169083151502179055506002600182610b259190611848565b81548110610b3657610b3561187c565b5b90600052602060002090600502016003016000815480929190610b58906119ef565b919050555050565b60056020528060005260406000206000915054906101000a900460ff1681565b60606002805480602002602001604051908101604052809291908181526020016000905b82821015610ca157838290600052602060002090600502016040518060a001604052908160008201548152602001600182018054610be190611756565b80601f0160208091040260200160405190810160405280929190818152602001828054610c0d90611756565b8015610c5a5780601f10610c2f57610100808354040283529160200191610c5a565b820191906000526020600020905b815481529060010190602001808311610c3d57829003601f168201915b5050505050815260200160028201548152602001600382015481526020016004820160009054906101000a900460ff16151515158152505081526020019060010190610ba4565b50505050905090565b60066020528160005260406000206020528060005260406000206000915091509054906101000a900460ff1681565b60045481565b60008054906101000a900473ffffffffffffffffffffffffffffffffffffffff1673ffffffffffffffffffffffffffffffffffffffff163373ffffffffffffffffffffffffffffffffffffffff1614610d6d576040517f08c379a0000000000000000000000000000000000000000000000000000000008152600401610d64906117f9565b60405180910390fd5b6001600560008373ffffffffffffffffffffffffffffffffffffffff1673ffffffffffffffffffffffffffffffffffffffff16815260200190815260200160002060006101000a81548160ff02191690831515021790555050565b60003411610e0b576040517f08c379a0000000000000000000000000000000000000000000000000000000008152600401610e0290611ea9565b60405180910390fd5b60036000815480929190610e1e906119ef565b91905055506001604051806080016040528060035481526020013373ffffffffffffffffffffffffffffffffffffffff1681526020013481526020014281525090806001815401808255809150506001900390600052602060002090600402016000909190919091506000820151816000015560208201518160010160006101000a81548173ffffffffffffffffffffffffffffffffffffffff021916908373ffffffffffffffffffffffffffffffffffffffff160217905550604082015181600201556060820151816003015550503373ffffffffffffffffffffffffffffffffffffffff167f3dbea1b4ce5f95137fdcac9b1d685825c3d70ace830df1ca5a181d3887add4106003543442604051610f3a93929190611ec9565b60405180910390a2565b60018181548110610f5457600080fd5b90600052602060002090600402016000915090508060000154908060010160009054906101000a900473ffffffffffffffffffffffffffffffffffffffff16908060020154908060030154905084565b6000604051905090565b600080fd5b600080fd5b6000819050919050565b610fcb81610fb8565b8114610fd657600080fd5b50565b600081359050610fe881610fc2565b92915050565b60006020828403121561100457611003610fae565b5b600061101284828501610fd9565b91505092915050565b61102481610fb8565b82525050565b600081519050919050565b600082825260208201905092915050565b60005b83811015611064578082015181840152602081019050611049565b60008484015250505050565b6000601f19601f8301169050919050565b600061108c8261102a565b6110968185611035565b93506110a6818560208601611046565b6110af81611070565b840191505092915050565b60008115159050919050565b6110cf816110ba565b82525050565b600060a0820190506110ea600083018861101b565b81810360208301526110fc8187611081565b905061110b604083018661101b565b611118606083018561101b565b61112560808301846110c6565b9695505050505050565b6000602082019050611144600083018461101b565b92915050565b600080fd5b600080fd5b7f4e487b7100000000000000000000000000000000000000000000000000000000600052604160045260246000fd5b61118c82611070565b810181811067ffffffffffffffff821117156111ab576111aa611154565b5b80604052505050565b60006111be610fa4565b90506111ca8282611183565b919050565b600067ffffffffffffffff8211156111ea576111e9611154565b5b6111f382611070565b9050602081019050919050565b82818337600083830152505050565b600061122261121d846111cf565b6111b4565b90508281526020810184848401111561123e5761123d61114f565b5b611249848285611200565b509392505050565b600082601f8301126112665761126561114a565b5b813561127684826020860161120f565b91505092915050565b6000806040838503121561129657611295610fae565b5b600083013567ffffffffffffffff8111156112b4576112b3610fb3565b5b6112c085828601611251565b92505060206112d185828601610fd9565b9150509250929050565b600081519050919050565b600082825260208201905092915050565b6000819050602082019050919050565b61131081610fb8565b82525050565b600073ffffffffffffffffffffffffffffffffffffffff82169050919050565b600061134182611316565b9050919050565b61135181611336565b82525050565b60808201600082015161136d6000850182611307565b5060208201516113806020850182611348565b5060408201516113936040850182611307565b5060608201516113a66060850182611307565b50505050565b60006113b88383611357565b60808301905092915050565b6000602082019050919050565b60006113dc826112db565b6113e681856112e6565b93506113f1836112f7565b8060005b8381101561142257815161140988826113ac565b9750611414836113c4565b9250506001810190506113f5565b5085935050505092915050565b6000602082019050818103600083015261144981846113d1565b905092915050565b61145a81611336565b82525050565b60006020820190506114756000830184611451565b92915050565b61148481611336565b811461148f57600080fd5b50565b6000813590506114a18161147b565b92915050565b6000602082840312156114bd576114bc610fae565b5b60006114cb84828501611492565b91505092915050565b60006020820190506114e960008301846110c6565b92915050565b600081519050919050565b600082825260208201905092915050565b6000819050602082019050919050565b600082825260208201905092915050565b60006115378261102a565b611541818561151b565b9350611551818560208601611046565b61155a81611070565b840191505092915050565b61156e816110ba565b82525050565b600060a08301600083015161158c6000860182611307565b50602083015184820360208601526115a4828261152c565b91505060408301516115b96040860182611307565b5060608301516115cc6060860182611307565b5060808301516115df6080860182611565565b508091505092915050565b60006115f68383611574565b905092915050565b6000602082019050919050565b6000611616826114ef565b61162081856114fa565b9350836020820285016116328561150b565b8060005b8581101561166e578484038952815161164f85826115ea565b945061165a836115fe565b925060208a01995050600181019050611636565b50829750879550505050505092915050565b6000602082019050818103600083015261169a818461160b565b905092915050565b600080604083850312156116b9576116b8610fae565b5b60006116c785828601610fd9565b92505060206116d885828601611492565b9150509250929050565b60006080820190506116f7600083018761101b565b6117046020830186611451565b611711604083018561101b565b61171e606083018461101b565b95945050505050565b7f4e487b7100000000000000000000000000000000000000000000000000000000600052602260045260246000fd5b6000600282049050600182168061176e57607f821691505b60208210810361178157611780611727565b5b50919050565b7f4f6e6c79206f776e65722063616e20706572666f726d2074686973206163746960008201527f6f6e000000000000000000000000000000000000000000000000000000000000602082015250565b60006117e3602283611035565b91506117ee82611787565b604082019050919050565b60006020820190508181036000830152611812816117d6565b9050919050565b7f4e487b7100000000000000000000000000000000000000000000000000000000600052601160045260246000fd5b600061185382610fb8565b915061185e83610fb8565b925082820390508181111561187657611875611819565b5b92915050565b7f4e487b7100000000000000000000000000000000000000000000000000000000600052603260045260246000fd5b7f50726f706f73616c20616c72656164792065786563757465642e000000000000600082015250565b60006118e1601a83611035565b91506118ec826118ab565b602082019050919050565b60006020820190508181036000830152611910816118d4565b9050919050565b7f4e6f20766f746573206361737420666f7220746869732070726f706f73616c2e600082015250565b600061194d602083611035565b915061195882611917565b602082019050919050565b6000602082019050818103600083015261197c81611940565b9050919050565b7f496e73756666696369656e7420636f6e74726163742062616c616e63652e0000600082015250565b60006119b9601e83611035565b91506119c482611983565b602082019050919050565b600060208201905081810360008301526119e8816119ac565b9050919050565b60006119fa82610fb8565b91507fffffffffffffffffffffffffffffffffffffffffffffffffffffffffffffffff8203611a2c57611a2b611819565b5b600182019050919050565b60008190508160005260206000209050919050565b60006020601f8301049050919050565b600082821b905092915050565b600060088302611a997fffffffffffffffffffffffffffffffffffffffffffffffffffffffffffffffff82611a5c565b611aa38683611a5c565b95508019841693508086168417925050509392505050565b6000819050919050565b6000611ae0611adb611ad684610fb8565b611abb565b610fb8565b9050919050565b6000819050919050565b611afa83611ac5565b611b0e611b0682611ae7565b848454611a69565b825550505050565b600090565b611b23611b16565b611b2e818484611af1565b505050565b5b81811015611b5257611b47600082611b1b565b600181019050611b34565b5050565b601f821115611b9757611b6881611a37565b611b7184611a4c565b81016020851015611b80578190505b611b94611b8c85611a4c565b830182611b33565b50505b505050565b600082821c905092915050565b6000611bba60001984600802611b9c565b1980831691505092915050565b6000611bd38383611ba9565b9150826002028217905092915050565b611bec8261102a565b67ffffffffffffffff811115611c0557611c04611154565b5b611c0f8254611756565b611c1a828285611b56565b600060209050601f831160018114611c4d5760008415611c3b578287015190505b611c458582611bc7565b865550611cad565b601f198416611c5b86611a37565b60005b82811015611c8357848901518255600182019150602085019450602081019050611c5e565b86831015611ca05784890151611c9c601f891682611ba9565b8355505b6001600288020188555050505b505050505050565b6000606082019050611cca600083018661101b565b8181036020830152611cdc8185611081565b9050611ceb604083018461101b565b949350505050565b7f4f6e6c79207374616b65686f6c646572732063616e20766f74652e0000000000600082015250565b6000611d29601b83611035565b9150611d3482611cf3565b602082019050919050565b60006020820190508181036000830152611d5881611d1c565b9050919050565b7f496e76616c69642070726f706f73616c2049442e000000000000000000000000600082015250565b6000611d95601483611035565b9150611da082611d5f565b602082019050919050565b60006020820190508181036000830152611dc481611d88565b9050919050565b7f596f75206861766520616c726561647920766f7465642e000000000000000000600082015250565b6000611e01601783611035565b9150611e0c82611dcb565b602082019050919050565b60006020820190508181036000830152611e3081611df4565b9050919050565b7f446f6e6174696f6e20616d6f756e74206d75737420626520677265617465722060008201527f7468616e207a65726f2e00000000000000000000000000000000000000000000602082015250565b6000611e93602a83611035565b9150611e9e82611e37565b604082019050919050565b60006020820190508181036000830152611ec281611e86565b9050919050565b6000606082019050611ede600083018661101b565b611eeb602083018561101b565b611ef8604083018461101b565b94935050505056fea2646970667358221220e22cde1b828f83807b77f3a9e79699a993f8325a9ace5688477e4b18faa5840d64736f6c634300081c0033",
  "linkReferences": {},
  "deployedLinkReferences": {}
}