{
  "_format": "hh-sol-artifact-1",
  "contractName": "CharityDAOPlatform",
  "sourceName": "contracts/CharityDAOPlatform.sol",
  "abi": [
    {
      "inputs": [
        {
          "internalType": "address",
          "name": "_proposalContract",
          "type": "address"
        },
        {
          "internalType": "address",
          "name": "_donationContract",
          "type": "address"
        },
        {
          "internalType": "address",
          "name": "_votingContract",
          "type": "address"
        },
        {
          "internalType": "address payable",
          "name": "_fundAllocationContract",
          "type": "address"
        }
      ],
      "stateMutability": "nonpayable",
      "type": "constructor"
    },
    {
      "anonymous": false,
      "inputs": [
        {
          "indexed": true,
          "internalType": "uint256",
          "name": "proposalId",
          "type": "uint256"
        }
      ],
      "name": "ProposalExecuted",
      "type": "event"
    },
    {
      "inputs": [
        {
          "internalType": "uint256",
          "name": "_proposalId",
          "type": "uint256"
        }
      ],
      "name": "approveProposal",
      "outputs": [],
      "stateMutability": "nonpayable",
      "type": "function"
    },
    {
      "inputs": [
        {
          "internalType": "string",
          "name": "_description",
          "type": "string"
        },
        {
          "internalType": "uint256",
          "name": "_amountRequested",
          "type": "uint256"
        },
        {
          "internalType": "address",
          "name": "_recipient",
          "type": "address"
        }
      ],
      "name": "createProposal",
      "outputs": [],
      "stateMutability": "nonpayable",
      "type": "function"
    },
    {
      "inputs": [],
      "name": "donate",
      "outputs": [],
      "stateMutability": "payable",
      "type": "function"
    },
    {
      "inputs": [],
      "name": "donationContract",
      "outputs": [
        {
          "internalType": "contract DonationTracking",
          "name": "",
          "type": "address"
        }
      ],
      "stateMutability": "view",
      "type": "function"
    },
    {
      "inputs": [
        {
          "internalType": "uint256",
          "name": "_proposalId",
          "type": "uint256"
        }
      ],
      "name": "executeProposal",
      "outputs": [],
      "stateMutability": "nonpayable",
      "type": "function"
    },
    {
      "inputs": [],
      "name": "fundAllocationContract",
      "outputs": [
        {
          "internalType": "contract FundAllocation",
          "name": "",
          "type": "address"
        }
      ],
      "stateMutability": "view",
      "type": "function"
    },
    {
      "inputs": [],
      "name": "getAllDonations",
      "outputs": [
        {
          "components": [
            {
              "internalType": "uint256",
              "name": "id",
              "type": "uint256"
            },
            {
              "internalType": "address",
              "name": "donor",
              "type": "address"
            },
            {
              "internalType": "uint256",
              "name": "amount",
              "type": "uint256"
            },
            {
              "internalType": "uint256",
              "name": "timestamp",
              "type": "uint256"
            }
          ],
          "internalType": "struct DonationTracking.Donation[]",
          "name": "",
          "type": "tuple[]"
        }
      ],
      "stateMutability": "view",
      "type": "function"
    },
    {
      "inputs": [],
      "name": "getAllProposals",
      "outputs": [
        {
          "components": [
            {
              "internalType": "uint256",
              "name": "id",
              "type": "uint256"
            },
            {
              "internalType": "string",
              "name": "description",
              "type": "string"
            },
            {
              "internalType": "uint256",
              "name": "amountRequested",
              "type": "uint256"
            },
            {
              "internalType": "uint256",
              "name": "voteCount",
              "type": "uint256"
            },
            {
              "internalType": "bool",
              "name": "approved",
              "type": "bool"
            },
            {
              "internalType": "bool",
              "name": "executed",
              "type": "bool"
            },
            {
              "internalType": "address",
              "name": "recipient",
              "type": "address"
            },
            {
              "internalType": "address",
              "name": "creator",
              "type": "address"
            },
            {
              "internalType": "uint256",
              "name": "signatureCount",
              "type": "uint256"
            },
            {
              "internalType": "uint256",
              "name": "executionTime",
              "type": "uint256"
            }
          ],
          "internalType": "struct ProposalManagement.Proposal[]",
          "name": "",
          "type": "tuple[]"
        }
      ],
      "stateMutability": "view",
      "type": "function"
    },
    {
      "inputs": [],
      "name": "owner",
      "outputs": [
        {
          "internalType": "address",
          "name": "",
          "type": "address"
        }
      ],
      "stateMutability": "view",
      "type": "function"
    },
    {
      "inputs": [],
      "name": "proposalContract",
      "outputs": [
        {
          "internalType": "contract ProposalManagement",
          "name": "",
          "type": "address"
        }
      ],
      "stateMutability": "view",
      "type": "function"
    },
    {
      "inputs": [
        {
          "internalType": "uint256",
          "name": "",
          "type": "uint256"
        }
      ],
      "name": "proposals",
      "outputs": [
        {
          "internalType": "string",
          "name": "description",
          "type": "string"
        },
        {
          "internalType": "uint256",
          "name": "amountRequested",
          "type": "uint256"
        },
        {
          "internalType": "address",
          "name": "recipient",
          "type": "address"
        },
        {
          "internalType": "enum CharityDAOPlatform.ProposalStatus",
          "name": "status",
          "type": "uint8"
        }
      ],
      "stateMutability": "view",
      "type": "function"
    },
    {
      "inputs": [],
      "name": "setFundAllocationPlatform",
      "outputs": [],
      "stateMutability": "nonpayable",
      "type": "function"
    },
    {
      "inputs": [
        {
          "internalType": "uint256",
          "name": "_proposalId",
          "type": "uint256"
        }
      ],
      "name": "voteOnProposal",
      "outputs": [],
      "stateMutability": "nonpayable",
      "type": "function"
    },
    {
      "inputs": [],
      "name": "votingContract",
      "outputs": [
        {
          "internalType": "contract VotingGovernance",
          "name": "",
          "type": "address"
        }
      ],
      "stateMutability": "view",
      "type": "function"
    }
  ],
  "bytecode": "0x608060405234801561001057600080fd5b50604051611c57380380611c5783398181016040528101906100329190610220565b33600460006101000a81548173ffffffffffffffffffffffffffffffffffffffff021916908373ffffffffffffffffffffffffffffffffffffffff160217905550836000806101000a81548173ffffffffffffffffffffffffffffffffffffffff021916908373ffffffffffffffffffffffffffffffffffffffff16021790555082600160006101000a81548173ffffffffffffffffffffffffffffffffffffffff021916908373ffffffffffffffffffffffffffffffffffffffff16021790555081600260006101000a81548173ffffffffffffffffffffffffffffffffffffffff021916908373ffffffffffffffffffffffffffffffffffffffff16021790555080600360006101000a81548173ffffffffffffffffffffffffffffffffffffffff021916908373ffffffffffffffffffffffffffffffffffffffff16021790555050505050610287565b600080fd5b600073ffffffffffffffffffffffffffffffffffffffff82169050919050565b60006101af82610184565b9050919050565b6101bf816101a4565b81146101ca57600080fd5b50565b6000815190506101dc816101b6565b92915050565b60006101ed82610184565b9050919050565b6101fd816101e2565b811461020857600080fd5b50565b60008151905061021a816101f4565b92915050565b6000806000806080858703121561023a5761023961017f565b5b6000610248878288016101cd565b9450506020610259878288016101cd565b935050604061026a878288016101cd565b925050606061027b8782880161020b565b91505092959194509250565b6119c1806102966000396000f3fe6080604052600436106100dd5760003560e01c806398951b561161007f578063c1fc006a11610059578063c1fc006a14610289578063cceb68f5146102b4578063ed88c68e146102df578063fe7d5b5f146102e9576100dd565b806398951b5614610220578063add68edc14610249578063b3d7861214610272576100dd565b80633aef3900116100bb5780633aef3900146101765780636ac1e01f146101a157806375624cb9146101ca5780638da5cb5b146101f5576100dd565b8063013cf08b146100e25780630d61b5191461012257806338a59a071461014b575b600080fd5b3480156100ee57600080fd5b5061010960048036038101906101049190610b49565b610314565b6040516101199493929190610ccd565b60405180910390f35b34801561012e57600080fd5b5061014960048036038101906101449190610b49565b6103f9565b005b34801561015757600080fd5b50610160610519565b60405161016d9190610e3b565b60405180910390f35b34801561018257600080fd5b5061018b6105b6565b6040516101989190610ebc565b60405180910390f35b3480156101ad57600080fd5b506101c860048036038101906101c39190611038565b6105da565b005b3480156101d657600080fd5b506101df61066e565b6040516101ec91906110c8565b60405180910390f35b34801561020157600080fd5b5061020a610694565b60405161021791906110e3565b60405180910390f35b34801561022c57600080fd5b5061024760048036038101906102429190610b49565b6106ba565b005b34801561025557600080fd5b50610270600480360381019061026b9190610b49565b6107da565b005b34801561027e57600080fd5b5061028761086a565b005b34801561029557600080fd5b5061029e610989565b6040516102ab919061111f565b60405180910390f35b3480156102c057600080fd5b506102c96109af565b6040516102d6919061133b565b60405180910390f35b6102e7610a4a565b005b3480156102f557600080fd5b506102fe610ad9565b60405161030b9190611390565b60405180910390f35b6005602052806000526040600020600091509050806000018054610337906113da565b80601f0160208091040260200160405190810160405280929190818152602001828054610363906113da565b80156103b05780601f10610385576101008083540402835291602001916103b0565b820191906000526020600020905b81548152906001019060200180831161039357829003601f168201915b5050505050908060010154908060020160009054906101000a900473ffffffffffffffffffffffffffffffffffffffff16908060020160149054906101000a900460ff16905084565b600460009054906101000a900473ffffffffffffffffffffffffffffffffffffffff1673ffffffffffffffffffffffffffffffffffffffff163373ffffffffffffffffffffffffffffffffffffffff1614610489576040517f08c379a00000000000000000000000000000000000000000000000000000000081526004016104809061147d565b60405180910390fd5b600360009054906101000a900473ffffffffffffffffffffffffffffffffffffffff1673ffffffffffffffffffffffffffffffffffffffff16630d61b519826040518263ffffffff1660e01b81526004016104e4919061149d565b600060405180830381600087803b1580156104fe57600080fd5b505af1158015610512573d6000803e3d6000fd5b5050505050565b6060600160009054906101000a900473ffffffffffffffffffffffffffffffffffffffff1673ffffffffffffffffffffffffffffffffffffffff166338a59a076040518163ffffffff1660e01b8152600401600060405180830381865afa158015610588573d6000803e3d6000fd5b505050506040513d6000823e3d601f19601f820116820180604052508101906105b1919061162c565b905090565b60008054906101000a900473ffffffffffffffffffffffffffffffffffffffff1681565b60008054906101000a900473ffffffffffffffffffffffffffffffffffffffff1673ffffffffffffffffffffffffffffffffffffffff16636ac1e01f8484846040518463ffffffff1660e01b815260040161063793929190611675565b600060405180830381600087803b15801561065157600080fd5b505af1158015610665573d6000803e3d6000fd5b50505050505050565b600160009054906101000a900473ffffffffffffffffffffffffffffffffffffffff1681565b600460009054906101000a900473ffffffffffffffffffffffffffffffffffffffff1681565b600460009054906101000a900473ffffffffffffffffffffffffffffffffffffffff1673ffffffffffffffffffffffffffffffffffffffff163373ffffffffffffffffffffffffffffffffffffffff161461074a576040517f08c379a00000000000000000000000000000000000000000000000000000000081526004016107419061147d565b60405180910390fd5b600260009054906101000a900473ffffffffffffffffffffffffffffffffffffffff1673ffffffffffffffffffffffffffffffffffffffff166398951b56826040518263ffffffff1660e01b81526004016107a5919061149d565b600060405180830381600087803b1580156107bf57600080fd5b505af11580156107d3573d6000803e3d6000fd5b5050505050565b600260009054906101000a900473ffffffffffffffffffffffffffffffffffffffff1673ffffffffffffffffffffffffffffffffffffffff1663add68edc826040518263ffffffff1660e01b8152600401610835919061149d565b600060405180830381600087803b15801561084f57600080fd5b505af1158015610863573d6000803e3d6000fd5b5050505050565b600460009054906101000a900473ffffffffffffffffffffffffffffffffffffffff1673ffffffffffffffffffffffffffffffffffffffff163373ffffffffffffffffffffffffffffffffffffffff16146108fa576040517f08c379a00000000000000000000000000000000000000000000000000000000081526004016108f19061147d565b60405180910390fd5b600360009054906101000a900473ffffffffffffffffffffffffffffffffffffffff1673ffffffffffffffffffffffffffffffffffffffff1663a44760f2306040518263ffffffff1660e01b815260040161095591906110e3565b600060405180830381600087803b15801561096f57600080fd5b505af1158015610983573d6000803e3d6000fd5b50505050565b600260009054906101000a900473ffffffffffffffffffffffffffffffffffffffff1681565b606060008054906101000a900473ffffffffffffffffffffffffffffffffffffffff1673ffffffffffffffffffffffffffffffffffffffff1663cceb68f56040518163ffffffff1660e01b8152600401600060405180830381865afa158015610a1c573d6000803e3d6000fd5b505050506040513d6000823e3d601f19601f82011682018060405250810190610a459190611942565b905090565b600160009054906101000a900473ffffffffffffffffffffffffffffffffffffffff1673ffffffffffffffffffffffffffffffffffffffff1662362a9534336040518363ffffffff1660e01b8152600401610aa591906110e3565b6000604051808303818588803b158015610abe57600080fd5b505af1158015610ad2573d6000803e3d6000fd5b5050505050565b600360009054906101000a900473ffffffffffffffffffffffffffffffffffffffff1681565b6000604051905090565b600080fd5b600080fd5b6000819050919050565b610b2681610b13565b8114610b3157600080fd5b50565b600081359050610b4381610b1d565b92915050565b600060208284031215610b5f57610b5e610b09565b5b6000610b6d84828501610b34565b91505092915050565b600081519050919050565b600082825260208201905092915050565b60005b83811015610bb0578082015181840152602081019050610b95565b60008484015250505050565b6000601f19601f8301169050919050565b6000610bd882610b76565b610be28185610b81565b9350610bf2818560208601610b92565b610bfb81610bbc565b840191505092915050565b610c0f81610b13565b82525050565b600073ffffffffffffffffffffffffffffffffffffffff82169050919050565b6000610c4082610c15565b9050919050565b610c5081610c35565b82525050565b7f4e487b7100000000000000000000000000000000000000000000000000000000600052602160045260246000fd5b60048110610c9657610c95610c56565b5b50565b6000819050610ca782610c85565b919050565b6000610cb782610c99565b9050919050565b610cc781610cac565b82525050565b60006080820190508181036000830152610ce78187610bcd565b9050610cf66020830186610c06565b610d036040830185610c47565b610d106060830184610cbe565b95945050505050565b600081519050919050565b600082825260208201905092915050565b6000819050602082019050919050565b610d4e81610b13565b82525050565b610d5d81610c35565b82525050565b608082016000820151610d796000850182610d45565b506020820151610d8c6020850182610d54565b506040820151610d9f6040850182610d45565b506060820151610db26060850182610d45565b50505050565b6000610dc48383610d63565b60808301905092915050565b6000602082019050919050565b6000610de882610d19565b610df28185610d24565b9350610dfd83610d35565b8060005b83811015610e2e578151610e158882610db8565b9750610e2083610dd0565b925050600181019050610e01565b5085935050505092915050565b60006020820190508181036000830152610e558184610ddd565b905092915050565b6000819050919050565b6000610e82610e7d610e7884610c15565b610e5d565b610c15565b9050919050565b6000610e9482610e67565b9050919050565b6000610ea682610e89565b9050919050565b610eb681610e9b565b82525050565b6000602082019050610ed16000830184610ead565b92915050565b600080fd5b600080fd5b7f4e487b7100000000000000000000000000000000000000000000000000000000600052604160045260246000fd5b610f1982610bbc565b810181811067ffffffffffffffff82111715610f3857610f37610ee1565b5b80604052505050565b6000610f4b610aff565b9050610f578282610f10565b919050565b600067ffffffffffffffff821115610f7757610f76610ee1565b5b610f8082610bbc565b9050602081019050919050565b82818337600083830152505050565b6000610faf610faa84610f5c565b610f41565b905082815260208101848484011115610fcb57610fca610edc565b5b610fd6848285610f8d565b509392505050565b600082601f830112610ff357610ff2610ed7565b5b8135611003848260208601610f9c565b91505092915050565b61101581610c35565b811461102057600080fd5b50565b6000813590506110328161100c565b92915050565b60008060006060848603121561105157611050610b09565b5b600084013567ffffffffffffffff81111561106f5761106e610b0e565b5b61107b86828701610fde565b935050602061108c86828701610b34565b925050604061109d86828701611023565b9150509250925092565b60006110b282610e89565b9050919050565b6110c2816110a7565b82525050565b60006020820190506110dd60008301846110b9565b92915050565b60006020820190506110f86000830184610c47565b92915050565b600061110982610e89565b9050919050565b611119816110fe565b82525050565b60006020820190506111346000830184611110565b92915050565b600081519050919050565b600082825260208201905092915050565b6000819050602082019050919050565b600082825260208201905092915050565b600061118282610b76565b61118c8185611166565b935061119c818560208601610b92565b6111a581610bbc565b840191505092915050565b60008115159050919050565b6111c5816111b0565b82525050565b6000610140830160008301516111e46000860182610d45565b50602083015184820360208601526111fc8282611177565b91505060408301516112116040860182610d45565b5060608301516112246060860182610d45565b50608083015161123760808601826111bc565b5060a083015161124a60a08601826111bc565b5060c083015161125d60c0860182610d54565b5060e083015161127060e0860182610d54565b50610100830151611285610100860182610d45565b5061012083015161129a610120860182610d45565b508091505092915050565b60006112b183836111cb565b905092915050565b6000602082019050919050565b60006112d18261113a565b6112db8185611145565b9350836020820285016112ed85611156565b8060005b85811015611329578484038952815161130a85826112a5565b9450611315836112b9565b925060208a019950506001810190506112f1565b50829750879550505050505092915050565b6000602082019050818103600083015261135581846112c6565b905092915050565b600061136882610e67565b9050919050565b600061137a8261135d565b9050919050565b61138a8161136f565b82525050565b60006020820190506113a56000830184611381565b92915050565b7f4e487b7100000000000000000000000000000000000000000000000000000000600052602260045260246000fd5b600060028204905060018216806113f257607f821691505b602082108103611405576114046113ab565b5b50919050565b7f4f6e6c79206f776e65722063616e20706572666f726d2074686973206163746960008201527f6f6e000000000000000000000000000000000000000000000000000000000000602082015250565b6000611467602283610b81565b91506114728261140b565b604082019050919050565b600060208201905081810360008301526114968161145a565b9050919050565b60006020820190506114b26000830184610c06565b92915050565b600067ffffffffffffffff8211156114d3576114d2610ee1565b5b602082029050602081019050919050565b600080fd5b600080fd5b600080fd5b60008151905061150281610b1d565b92915050565b6000815190506115178161100c565b92915050565b600060808284031215611533576115326114e9565b5b61153d6080610f41565b9050600061154d848285016114f3565b600083015250602061156184828501611508565b6020830152506040611575848285016114f3565b6040830152506060611589848285016114f3565b60608301525092915050565b60006115a86115a3846114b8565b610f41565b905080838252602082019050608084028301858111156115cb576115ca6114e4565b5b835b818110156115f457806115e0888261151d565b8452602084019350506080810190506115cd565b5050509392505050565b600082601f83011261161357611612610ed7565b5b8151611623848260208601611595565b91505092915050565b60006020828403121561164257611641610b09565b5b600082015167ffffffffffffffff8111156116605761165f610b0e565b5b61166c848285016115fe565b91505092915050565b6000606082019050818103600083015261168f8186610bcd565b905061169e6020830185610c06565b6116ab6040830184610c47565b949350505050565b600067ffffffffffffffff8211156116ce576116cd610ee1565b5b602082029050602081019050919050565b60006116f26116ed84610f5c565b610f41565b90508281526020810184848401111561170e5761170d610edc565b5b611719848285610b92565b509392505050565b600082601f83011261173657611735610ed7565b5b81516117468482602086016116df565b91505092915050565b611758816111b0565b811461176357600080fd5b50565b6000815190506117758161174f565b92915050565b60006101408284031215611792576117916114e9565b5b61179d610140610f41565b905060006117ad848285016114f3565b600083015250602082015167ffffffffffffffff8111156117d1576117d06114ee565b5b6117dd84828501611721565b60208301525060406117f1848285016114f3565b6040830152506060611805848285016114f3565b606083015250608061181984828501611766565b60808301525060a061182d84828501611766565b60a08301525060c061184184828501611508565b60c08301525060e061185584828501611508565b60e08301525061010061186a848285016114f3565b61010083015250610120611880848285016114f3565b6101208301525092915050565b60006118a061189b846116b3565b610f41565b905080838252602082019050602084028301858111156118c3576118c26114e4565b5b835b8181101561190a57805167ffffffffffffffff8111156118e8576118e7610ed7565b5b8086016118f5898261177b565b855260208501945050506020810190506118c5565b5050509392505050565b600082601f83011261192957611928610ed7565b5b815161193984826020860161188d565b91505092915050565b60006020828403121561195857611957610b09565b5b600082015167ffffffffffffffff81111561197657611975610b0e565b5b61198284828501611914565b9150509291505056fea26469706673582212202bdc6d226772577ee38aae7977b5af0793a0ec07a7b6ae68c809ce92014c4e3a64736f6c634300081c0033",
  "linkReferences": {},
  "deployedLinkReferences": {}
}