{
  "_format": "hh-sol-artifact-1",
  "contractName": "DonationTracking",
  "sourceName": "contracts/DonationTracking.sol",
  "abi": [
    {
      "inputs": [
        {
          "internalType": "address payable",
          "name": "_fundAllocationContract",
          "type": "address"
        }
      ],
      "stateMutability": "nonpayable",
      "type": "constructor"
    },
    {
      "anonymous": false,
      "inputs": [
        {
          "indexed": false,
          "internalType": "uint256",
          "name": "id",
          "type": "uint256"
        },
        {
          "indexed": true,
          "internalType": "address",
          "name": "donor",
          "type": "address"
        },
        {
          "indexed": false,
          "internalType": "uint256",
          "name": "amount",
          "type": "uint256"
        },
        {
          "indexed": false,
          "internalType": "uint256",
          "name": "timestamp",
          "type": "uint256"
        }
      ],
      "name": "DonationReceived",
      "type": "event"
    },
    {
      "anonymous": false,
      "inputs": [
        {
          "indexed": true,
          "internalType": "address",
          "name": "stakeholder",
          "type": "address"
        }
      ],
      "name": "StakeholderAdded",
      "type": "event"
    },
    {
      "anonymous": false,
      "inputs": [
        {
          "indexed": false,
          "internalType": "address",
          "name": "account",
          "type": "address"
        },
        {
          "indexed": false,
          "internalType": "bool",
          "name": "isStakeholder",
          "type": "bool"
        }
      ],
      "name": "StakeholderCheck",
      "type": "event"
    },
    {
      "inputs": [
        {
          "internalType": "address",
          "name": "_donor",
          "type": "address"
        }
      ],
      "name": "donate",
      "outputs": [],
      "stateMutability": "payable",
      "type": "function"
    },
    {
      "inputs": [],
      "name": "donationCount",
      "outputs": [
        {
          "internalType": "uint256",
          "name": "",
          "type": "uint256"
        }
      ],
      "stateMutability": "view",
      "type": "function"
    },
    {
      "inputs": [
        {
          "internalType": "uint256",
          "name": "",
          "type": "uint256"
        }
      ],
      "name": "donations",
      "outputs": [
        {
          "internalType": "uint256",
          "name": "id",
          "type": "uint256"
        },
        {
          "internalType": "address",
          "name": "donor",
          "type": "address"
        },
        {
          "internalType": "uint256",
          "name": "amount",
          "type": "uint256"
        },
        {
          "internalType": "uint256",
          "name": "timestamp",
          "type": "uint256"
        }
      ],
      "stateMutability": "view",
      "type": "function"
    },
    {
      "inputs": [],
      "name": "fundAllocationContract",
      "outputs": [
        {
          "internalType": "contract FundAllocation",
          "name": "",
          "type": "address"
        }
      ],
      "stateMutability": "view",
      "type": "function"
    },
    {
      "inputs": [],
      "name": "getAllDonations",
      "outputs": [
        {
          "components": [
            {
              "internalType": "uint256",
              "name": "id",
              "type": "uint256"
            },
            {
              "internalType": "address",
              "name": "donor",
              "type": "address"
            },
            {
              "internalType": "uint256",
              "name": "amount",
              "type": "uint256"
            },
            {
              "internalType": "uint256",
              "name": "timestamp",
              "type": "uint256"
            }
          ],
          "internalType": "struct DonationTracking.Donation[]",
          "name": "",
          "type": "tuple[]"
        }
      ],
      "stateMutability": "view",
      "type": "function"
    },
    {
      "inputs": [
        {
          "internalType": "address",
          "name": "_account",
          "type": "address"
        }
      ],
      "name": "isStakeholder",
      "outputs": [
        {
          "internalType": "bool",
          "name": "",
          "type": "bool"
        }
      ],
      "stateMutability": "view",
      "type": "function"
    },
    {
      "inputs": [
        {
          "internalType": "address",
          "name": "",
          "type": "address"
        }
      ],
      "name": "stakeholders",
      "outputs": [
        {
          "internalType": "bool",
          "name": "",
          "type": "bool"
        }
      ],
      "stateMutability": "view",
      "type": "function"
    }
  ],
  "bytecode": "0x608060405234801561001057600080fd5b50604051610ec7380380610ec78339818101604052810190610032919061014b565b600073ffffffffffffffffffffffffffffffffffffffff168173ffffffffffffffffffffffffffffffffffffffff16036100a1576040517f08c379a0000000000000000000000000000000000000000000000000000000008152600401610098906101fb565b60405180910390fd5b80600260006101000a81548173ffffffffffffffffffffffffffffffffffffffff021916908373ffffffffffffffffffffffffffffffffffffffff1602179055505061021b565b600080fd5b600073ffffffffffffffffffffffffffffffffffffffff82169050919050565b6000610118826100ed565b9050919050565b6101288161010d565b811461013357600080fd5b50565b6000815190506101458161011f565b92915050565b600060208284031215610161576101606100e8565b5b600061016f84828501610136565b91505092915050565b600082825260208201905092915050565b7f496e76616c69642066756e6420616c6c6f636174696f6e20636f6e747261637460008201527f2061646472657373000000000000000000000000000000000000000000000000602082015250565b60006101e5602883610178565b91506101f082610189565b604082019050919050565b60006020820190508181036000830152610214816101d8565b9050919050565b610c9d8061022a6000396000f3fe60806040526004361061006f5760003560e01c8063c07cfca91161004e578063c07cfca9146100e6578063ef037b9014610123578063f8626af814610160578063fe7d5b5f146101a05761006f565b8062362a95146100745780632abfab4d1461009057806338a59a07146100bb575b600080fd5b61008e6004803603810190610089919061073c565b6101cb565b005b34801561009c57600080fd5b506100a5610504565b6040516100b29190610782565b60405180910390f35b3480156100c757600080fd5b506100d061050a565b6040516100dd91906108bf565b60405180910390f35b3480156100f257600080fd5b5061010d6004803603810190610108919061073c565b6105dd565b60405161011a91906108fc565b60405180910390f35b34801561012f57600080fd5b5061014a6004803603810190610145919061073c565b6105fd565b60405161015791906108fc565b60405180910390f35b34801561016c57600080fd5b5061018760048036038101906101829190610943565b610653565b604051610197949392919061097f565b60405180910390f35b3480156101ac57600080fd5b506101b56106b3565b6040516101c29190610a23565b60405180910390f35b6000341161020e576040517f08c379a000000000000000000000000000000000000000000000000000000000815260040161020590610ac1565b60405180910390fd5b6001600081548092919061022190610b10565b91905055506000604051806080016040528060015481526020018373ffffffffffffffffffffffffffffffffffffffff1681526020013481526020014281525090806001815401808255809150506001900390600052602060002090600402016000909190919091506000820151816000015560208201518160010160006101000a81548173ffffffffffffffffffffffffffffffffffffffff021916908373ffffffffffffffffffffffffffffffffffffffff16021790555060408201518160020155606082015181600301555050600360008273ffffffffffffffffffffffffffffffffffffffff1673ffffffffffffffffffffffffffffffffffffffff16815260200190815260200160002060009054906101000a900460ff166103de576001600360008373ffffffffffffffffffffffffffffffffffffffff1673ffffffffffffffffffffffffffffffffffffffff16815260200190815260200160002060006101000a81548160ff0219169083151502179055508073ffffffffffffffffffffffffffffffffffffffff167fd9b802c55a7d0aabbc6554676754b5b4aabc8edf1d540b77812f81f6d4409ea160405160405180910390a25b6000600260009054906101000a900473ffffffffffffffffffffffffffffffffffffffff1673ffffffffffffffffffffffffffffffffffffffff163460405161042690610b89565b60006040518083038185875af1925050503d8060008114610463576040519150601f19603f3d011682016040523d82523d6000602084013e610468565b606091505b50509050806104ac576040517f08c379a00000000000000000000000000000000000000000000000000000000081526004016104a390610c10565b60405180910390fd5b8173ffffffffffffffffffffffffffffffffffffffff167f3dbea1b4ce5f95137fdcac9b1d685825c3d70ace830df1ca5a181d3887add41060015434426040516104f893929190610c30565b60405180910390a25050565b60015481565b60606000805480602002602001604051908101604052809291908181526020016000905b828210156105d45783829060005260206000209060040201604051806080016040529081600082015481526020016001820160009054906101000a900473ffffffffffffffffffffffffffffffffffffffff1673ffffffffffffffffffffffffffffffffffffffff1673ffffffffffffffffffffffffffffffffffffffff168152602001600282015481526020016003820154815250508152602001906001019061052e565b50505050905090565b60036020528060005260406000206000915054906101000a900460ff1681565b6000600360008373ffffffffffffffffffffffffffffffffffffffff1673ffffffffffffffffffffffffffffffffffffffff16815260200190815260200160002060009054906101000a900460ff169050919050565b6000818154811061066357600080fd5b90600052602060002090600402016000915090508060000154908060010160009054906101000a900473ffffffffffffffffffffffffffffffffffffffff16908060020154908060030154905084565b600260009054906101000a900473ffffffffffffffffffffffffffffffffffffffff1681565b600080fd5b600073ffffffffffffffffffffffffffffffffffffffff82169050919050565b6000610709826106de565b9050919050565b610719816106fe565b811461072457600080fd5b50565b60008135905061073681610710565b92915050565b600060208284031215610752576107516106d9565b5b600061076084828501610727565b91505092915050565b6000819050919050565b61077c81610769565b82525050565b60006020820190506107976000830184610773565b92915050565b600081519050919050565b600082825260208201905092915050565b6000819050602082019050919050565b6107d281610769565b82525050565b6107e1816106fe565b82525050565b6080820160008201516107fd60008501826107c9565b50602082015161081060208501826107d8565b50604082015161082360408501826107c9565b50606082015161083660608501826107c9565b50505050565b600061084883836107e7565b60808301905092915050565b6000602082019050919050565b600061086c8261079d565b61087681856107a8565b9350610881836107b9565b8060005b838110156108b2578151610899888261083c565b97506108a483610854565b925050600181019050610885565b5085935050505092915050565b600060208201905081810360008301526108d98184610861565b905092915050565b60008115159050919050565b6108f6816108e1565b82525050565b600060208201905061091160008301846108ed565b92915050565b61092081610769565b811461092b57600080fd5b50565b60008135905061093d81610917565b92915050565b600060208284031215610959576109586106d9565b5b60006109678482850161092e565b91505092915050565b610979816106fe565b82525050565b60006080820190506109946000830187610773565b6109a16020830186610970565b6109ae6040830185610773565b6109bb6060830184610773565b95945050505050565b6000819050919050565b60006109e96109e46109df846106de565b6109c4565b6106de565b9050919050565b60006109fb826109ce565b9050919050565b6000610a0d826109f0565b9050919050565b610a1d81610a02565b82525050565b6000602082019050610a386000830184610a14565b92915050565b600082825260208201905092915050565b7f446f6e6174696f6e20616d6f756e74206d75737420626520677265617465722060008201527f7468616e207a65726f2e00000000000000000000000000000000000000000000602082015250565b6000610aab602a83610a3e565b9150610ab682610a4f565b604082019050919050565b60006020820190508181036000830152610ada81610a9e565b9050919050565b7f4e487b7100000000000000000000000000000000000000000000000000000000600052601160045260246000fd5b6000610b1b82610769565b91507fffffffffffffffffffffffffffffffffffffffffffffffffffffffffffffffff8203610b4d57610b4c610ae1565b5b600182019050919050565b600081905092915050565b50565b6000610b73600083610b58565b9150610b7e82610b63565b600082019050919050565b6000610b9482610b66565b9150819050919050565b7f4661696c656420746f207472616e736665722066756e647320746f2046756e6460008201527f416c6c6f636174696f6e20636f6e747261637400000000000000000000000000602082015250565b6000610bfa603383610a3e565b9150610c0582610b9e565b604082019050919050565b60006020820190508181036000830152610c2981610bed565b9050919050565b6000606082019050610c456000830186610773565b610c526020830185610773565b610c5f6040830184610773565b94935050505056fea26469706673582212201f52938a2a131231a570015e1bc6e50ce01c893b15448f5aed01106e4dfcf7d264736f6c634300081c0033",
  "linkReferences": {},
  "deployedLinkReferences": {}
}