{
  "_format": "hh-sol-artifact-1",
  "contractName": "DonationTracking",
  "sourceName": "contracts/DonationTracking.sol",
  "abi": [
    {
      "anonymous": false,
      "inputs": [
        {
          "indexed": false,
          "internalType": "uint256",
          "name": "id",
          "type": "uint256"
        },
        {
          "indexed": true,
          "internalType": "address",
          "name": "donor",
          "type": "address"
        },
        {
          "indexed": false,
          "internalType": "uint256",
          "name": "amount",
          "type": "uint256"
        },
        {
          "indexed": false,
          "internalType": "uint256",
          "name": "timestamp",
          "type": "uint256"
        }
      ],
      "name": "DonationReceived",
      "type": "event"
    },
    {
      "anonymous": false,
      "inputs": [
        {
          "indexed": true,
          "internalType": "address",
          "name": "stakeholder",
          "type": "address"
        }
      ],
      "name": "StakeholderAdded",
      "type": "event"
    },
    {
      "inputs": [
        {
          "internalType": "address",
          "name": "donor",
          "type": "address"
        }
      ],
      "name": "donate",
      "outputs": [],
      "stateMutability": "payable",
      "type": "function"
    },
    {
      "inputs": [],
      "name": "donationCount",
      "outputs": [
        {
          "internalType": "uint256",
          "name": "",
          "type": "uint256"
        }
      ],
      "stateMutability": "view",
      "type": "function"
    },
    {
      "inputs": [
        {
          "internalType": "uint256",
          "name": "",
          "type": "uint256"
        }
      ],
      "name": "donations",
      "outputs": [
        {
          "internalType": "uint256",
          "name": "id",
          "type": "uint256"
        },
        {
          "internalType": "address",
          "name": "donor",
          "type": "address"
        },
        {
          "internalType": "uint256",
          "name": "amount",
          "type": "uint256"
        },
        {
          "internalType": "uint256",
          "name": "timestamp",
          "type": "uint256"
        }
      ],
      "stateMutability": "view",
      "type": "function"
    },
    {
      "inputs": [],
      "name": "getAllDonations",
      "outputs": [
        {
          "components": [
            {
              "internalType": "uint256",
              "name": "id",
              "type": "uint256"
            },
            {
              "internalType": "address",
              "name": "donor",
              "type": "address"
            },
            {
              "internalType": "uint256",
              "name": "amount",
              "type": "uint256"
            },
            {
              "internalType": "uint256",
              "name": "timestamp",
              "type": "uint256"
            }
          ],
          "internalType": "struct DonationTracking.Donation[]",
          "name": "",
          "type": "tuple[]"
        }
      ],
      "stateMutability": "view",
      "type": "function"
    },
    {
      "inputs": [
        {
          "internalType": "address",
          "name": "_account",
          "type": "address"
        }
      ],
      "name": "isStakeholder",
      "outputs": [
        {
          "internalType": "bool",
          "name": "",
          "type": "bool"
        }
      ],
      "stateMutability": "view",
      "type": "function"
    },
    {
      "inputs": [
        {
          "internalType": "address",
          "name": "",
          "type": "address"
        }
      ],
      "name": "stakeholders",
      "outputs": [
        {
          "internalType": "bool",
          "name": "",
          "type": "bool"
        }
      ],
      "stateMutability": "view",
      "type": "function"
    }
  ],
  "bytecode": "0x6080604052348015600f57600080fd5b50610a108061001f6000396000f3fe6080604052600436106100545760003560e01c8062362a95146100595780632abfab4d1461007557806338a59a07146100a0578063c07cfca9146100cb578063ef037b9014610108578063f8626af814610145575b600080fd5b610073600480360381019061006e9190610601565b610185565b005b34801561008157600080fd5b5061008a6103ef565b6040516100979190610647565b60405180910390f35b3480156100ac57600080fd5b506100b56103f5565b6040516100c29190610784565b60405180910390f35b3480156100d757600080fd5b506100f260048036038101906100ed9190610601565b6104c8565b6040516100ff91906107c1565b60405180910390f35b34801561011457600080fd5b5061012f600480360381019061012a9190610601565b6104e8565b60405161013c91906107c1565b60405180910390f35b34801561015157600080fd5b5061016c60048036038101906101679190610808565b61053e565b60405161017c9493929190610844565b60405180910390f35b600034116101c8576040517f08c379a00000000000000000000000000000000000000000000000000000000081526004016101bf9061090c565b60405180910390fd5b600160008154809291906101db9061095b565b91905055506000604051806080016040528060015481526020018373ffffffffffffffffffffffffffffffffffffffff1681526020013481526020014281525090806001815401808255809150506001900390600052602060002090600402016000909190919091506000820151816000015560208201518160010160006101000a81548173ffffffffffffffffffffffffffffffffffffffff021916908373ffffffffffffffffffffffffffffffffffffffff16021790555060408201518160020155606082015181600301555050600260008273ffffffffffffffffffffffffffffffffffffffff1673ffffffffffffffffffffffffffffffffffffffff16815260200190815260200160002060009054906101000a900460ff16610398576001600260008373ffffffffffffffffffffffffffffffffffffffff1673ffffffffffffffffffffffffffffffffffffffff16815260200190815260200160002060006101000a81548160ff0219169083151502179055508073ffffffffffffffffffffffffffffffffffffffff167fd9b802c55a7d0aabbc6554676754b5b4aabc8edf1d540b77812f81f6d4409ea160405160405180910390a25b8073ffffffffffffffffffffffffffffffffffffffff167f3dbea1b4ce5f95137fdcac9b1d685825c3d70ace830df1ca5a181d3887add41060015434426040516103e4939291906109a3565b60405180910390a250565b60015481565b60606000805480602002602001604051908101604052809291908181526020016000905b828210156104bf5783829060005260206000209060040201604051806080016040529081600082015481526020016001820160009054906101000a900473ffffffffffffffffffffffffffffffffffffffff1673ffffffffffffffffffffffffffffffffffffffff1673ffffffffffffffffffffffffffffffffffffffff1681526020016002820154815260200160038201548152505081526020019060010190610419565b50505050905090565b60026020528060005260406000206000915054906101000a900460ff1681565b6000600260008373ffffffffffffffffffffffffffffffffffffffff1673ffffffffffffffffffffffffffffffffffffffff16815260200190815260200160002060009054906101000a900460ff169050919050565b6000818154811061054e57600080fd5b90600052602060002090600402016000915090508060000154908060010160009054906101000a900473ffffffffffffffffffffffffffffffffffffffff16908060020154908060030154905084565b600080fd5b600073ffffffffffffffffffffffffffffffffffffffff82169050919050565b60006105ce826105a3565b9050919050565b6105de816105c3565b81146105e957600080fd5b50565b6000813590506105fb816105d5565b92915050565b6000602082840312156106175761061661059e565b5b6000610625848285016105ec565b91505092915050565b6000819050919050565b6106418161062e565b82525050565b600060208201905061065c6000830184610638565b92915050565b600081519050919050565b600082825260208201905092915050565b6000819050602082019050919050565b6106978161062e565b82525050565b6106a6816105c3565b82525050565b6080820160008201516106c2600085018261068e565b5060208201516106d5602085018261069d565b5060408201516106e8604085018261068e565b5060608201516106fb606085018261068e565b50505050565b600061070d83836106ac565b60808301905092915050565b6000602082019050919050565b600061073182610662565b61073b818561066d565b93506107468361067e565b8060005b8381101561077757815161075e8882610701565b975061076983610719565b92505060018101905061074a565b5085935050505092915050565b6000602082019050818103600083015261079e8184610726565b905092915050565b60008115159050919050565b6107bb816107a6565b82525050565b60006020820190506107d660008301846107b2565b92915050565b6107e58161062e565b81146107f057600080fd5b50565b600081359050610802816107dc565b92915050565b60006020828403121561081e5761081d61059e565b5b600061082c848285016107f3565b91505092915050565b61083e816105c3565b82525050565b60006080820190506108596000830187610638565b6108666020830186610835565b6108736040830185610638565b6108806060830184610638565b95945050505050565b600082825260208201905092915050565b7f446f6e6174696f6e20616d6f756e74206d75737420626520677265617465722060008201527f7468616e207a65726f2e00000000000000000000000000000000000000000000602082015250565b60006108f6602a83610889565b91506109018261089a565b604082019050919050565b60006020820190508181036000830152610925816108e9565b9050919050565b7f4e487b7100000000000000000000000000000000000000000000000000000000600052601160045260246000fd5b60006109668261062e565b91507fffffffffffffffffffffffffffffffffffffffffffffffffffffffffffffffff82036109985761099761092c565b5b600182019050919050565b60006060820190506109b86000830186610638565b6109c56020830185610638565b6109d26040830184610638565b94935050505056fea26469706673582212206877d757500a83541b6b98bb8fab62330a0176b18f9a38a2b9c621fe05e3d89964736f6c634300081c0033",
  "linkReferences": {},
  "deployedLinkReferences": {}
}