{
  "_format": "hh-sol-artifact-1",
  "contractName": "ProposalManagement",
  "sourceName": "contracts/ProposalManagement.sol",
  "abi": [
    {
      "inputs": [],
      "stateMutability": "nonpayable",
      "type": "constructor"
    },
    {
      "anonymous": false,
      "inputs": [
        {
          "indexed": false,
          "internalType": "address",
          "name": "donationTrackingContract",
          "type": "address"
        }
      ],
      "name": "DonationTrackingContractSet",
      "type": "event"
    },
    {
      "anonymous": false,
      "inputs": [
        {
          "indexed": false,
          "internalType": "address",
          "name": "fundAllocationContract",
          "type": "address"
        }
      ],
      "name": "FundAllocationContractSet",
      "type": "event"
    },
    {
      "anonymous": false,
      "inputs": [
        {
          "indexed": false,
          "internalType": "uint256",
          "name": "id",
          "type": "uint256"
        }
      ],
      "name": "ProposalApproved",
      "type": "event"
    },
    {
      "anonymous": false,
      "inputs": [
        {
          "indexed": false,
          "internalType": "uint256",
          "name": "id",
          "type": "uint256"
        },
        {
          "indexed": false,
          "internalType": "string",
          "name": "description",
          "type": "string"
        },
        {
          "indexed": false,
          "internalType": "uint256",
          "name": "amountRequested",
          "type": "uint256"
        },
        {
          "indexed": false,
          "internalType": "address",
          "name": "creator",
          "type": "address"
        }
      ],
      "name": "ProposalCreated",
      "type": "event"
    },
    {
      "anonymous": false,
      "inputs": [
        {
          "indexed": false,
          "internalType": "uint256",
          "name": "id",
          "type": "uint256"
        }
      ],
      "name": "ProposalExecuted",
      "type": "event"
    },
    {
      "anonymous": false,
      "inputs": [
        {
          "indexed": false,
          "internalType": "uint256",
          "name": "id",
          "type": "uint256"
        },
        {
          "indexed": false,
          "internalType": "address",
          "name": "signer",
          "type": "address"
        }
      ],
      "name": "ProposalSigned",
      "type": "event"
    },
    {
      "anonymous": false,
      "inputs": [
        {
          "indexed": false,
          "internalType": "address",
          "name": "signer",
          "type": "address"
        }
      ],
      "name": "SignerAdded",
      "type": "event"
    },
    {
      "anonymous": false,
      "inputs": [
        {
          "indexed": false,
          "internalType": "address",
          "name": "signer",
          "type": "address"
        }
      ],
      "name": "SignerRemoved",
      "type": "event"
    },
    {
      "anonymous": false,
      "inputs": [
        {
          "indexed": false,
          "internalType": "uint256",
          "name": "id",
          "type": "uint256"
        },
        {
          "indexed": false,
          "internalType": "address",
          "name": "voter",
          "type": "address"
        }
      ],
      "name": "VoteCasted",
      "type": "event"
    },
    {
      "anonymous": false,
      "inputs": [
        {
          "indexed": false,
          "internalType": "address",
          "name": "votingGovernanceContract",
          "type": "address"
        }
      ],
      "name": "VotingGovernanceContractSet",
      "type": "event"
    },
    {
      "inputs": [],
      "name": "EXECUTION_DELAY",
      "outputs": [
        {
          "internalType": "uint256",
          "name": "",
          "type": "uint256"
        }
      ],
      "stateMutability": "view",
      "type": "function"
    },
    {
      "inputs": [],
      "name": "MIN_PROPOSAL_AMOUNT",
      "outputs": [
        {
          "internalType": "uint256",
          "name": "",
          "type": "uint256"
        }
      ],
      "stateMutability": "view",
      "type": "function"
    },
    {
      "inputs": [],
      "name": "MIN_VOTES_FOR_APPROVAL",
      "outputs": [
        {
          "internalType": "uint256",
          "name": "",
          "type": "uint256"
        }
      ],
      "stateMutability": "view",
      "type": "function"
    },
    {
      "inputs": [],
      "name": "REQUIRED_SIGNATURES",
      "outputs": [
        {
          "internalType": "uint256",
          "name": "",
          "type": "uint256"
        }
      ],
      "stateMutability": "view",
      "type": "function"
    },
    {
      "inputs": [
        {
          "internalType": "address",
          "name": "_signer",
          "type": "address"
        }
      ],
      "name": "addSigner",
      "outputs": [],
      "stateMutability": "nonpayable",
      "type": "function"
    },
    {
      "inputs": [
        {
          "internalType": "address",
          "name": "",
          "type": "address"
        }
      ],
      "name": "authorizedSigners",
      "outputs": [
        {
          "internalType": "bool",
          "name": "",
          "type": "bool"
        }
      ],
      "stateMutability": "view",
      "type": "function"
    },
    {
      "inputs": [
        {
          "internalType": "uint256",
          "name": "_proposalId",
          "type": "uint256"
        }
      ],
      "name": "canBeExecuted",
      "outputs": [
        {
          "internalType": "bool",
          "name": "",
          "type": "bool"
        }
      ],
      "stateMutability": "view",
      "type": "function"
    },
    {
      "inputs": [
        {
          "internalType": "string",
          "name": "_description",
          "type": "string"
        },
        {
          "internalType": "uint256",
          "name": "_amountRequested",
          "type": "uint256"
        },
        {
          "internalType": "address",
          "name": "_recipient",
          "type": "address"
        }
      ],
      "name": "createProposal",
      "outputs": [],
      "stateMutability": "nonpayable",
      "type": "function"
    },
    {
      "inputs": [],
      "name": "donationTrackingContract",
      "outputs": [
        {
          "internalType": "address",
          "name": "",
          "type": "address"
        }
      ],
      "stateMutability": "view",
      "type": "function"
    },
    {
      "inputs": [],
      "name": "fundAllocationContract",
      "outputs": [
        {
          "internalType": "address",
          "name": "",
          "type": "address"
        }
      ],
      "stateMutability": "view",
      "type": "function"
    },
    {
      "inputs": [],
      "name": "getAllProposals",
      "outputs": [
        {
          "components": [
            {
              "internalType": "uint256",
              "name": "id",
              "type": "uint256"
            },
            {
              "internalType": "string",
              "name": "description",
              "type": "string"
            },
            {
              "internalType": "uint256",
              "name": "amountRequested",
              "type": "uint256"
            },
            {
              "internalType": "uint256",
              "name": "voteCount",
              "type": "uint256"
            },
            {
              "internalType": "bool",
              "name": "approved",
              "type": "bool"
            },
            {
              "internalType": "bool",
              "name": "executed",
              "type": "bool"
            },
            {
              "internalType": "address",
              "name": "recipient",
              "type": "address"
            },
            {
              "internalType": "address",
              "name": "creator",
              "type": "address"
            },
            {
              "internalType": "uint256",
              "name": "signatureCount",
              "type": "uint256"
            },
            {
              "internalType": "uint256",
              "name": "executionTime",
              "type": "uint256"
            }
          ],
          "internalType": "struct ProposalManagement.Proposal[]",
          "name": "",
          "type": "tuple[]"
        }
      ],
      "stateMutability": "view",
      "type": "function"
    },
    {
      "inputs": [],
      "name": "getAuthorizedSigners",
      "outputs": [
        {
          "internalType": "address[]",
          "name": "",
          "type": "address[]"
        }
      ],
      "stateMutability": "view",
      "type": "function"
    },
    {
      "inputs": [
        {
          "internalType": "uint256",
          "name": "_proposalId",
          "type": "uint256"
        }
      ],
      "name": "getProposalById",
      "outputs": [
        {
          "components": [
            {
              "internalType": "uint256",
              "name": "id",
              "type": "uint256"
            },
            {
              "internalType": "string",
              "name": "description",
              "type": "string"
            },
            {
              "internalType": "uint256",
              "name": "amountRequested",
              "type": "uint256"
            },
            {
              "internalType": "uint256",
              "name": "voteCount",
              "type": "uint256"
            },
            {
              "internalType": "bool",
              "name": "approved",
              "type": "bool"
            },
            {
              "internalType": "bool",
              "name": "executed",
              "type": "bool"
            },
            {
              "internalType": "address",
              "name": "recipient",
              "type": "address"
            },
            {
              "internalType": "address",
              "name": "creator",
              "type": "address"
            },
            {
              "internalType": "uint256",
              "name": "signatureCount",
              "type": "uint256"
            },
            {
              "internalType": "uint256",
              "name": "executionTime",
              "type": "uint256"
            }
          ],
          "internalType": "struct ProposalManagement.Proposal",
          "name": "",
          "type": "tuple"
        }
      ],
      "stateMutability": "view",
      "type": "function"
    },
    {
      "inputs": [
        {
          "internalType": "uint256",
          "name": "_proposalId",
          "type": "uint256"
        }
      ],
      "name": "getRemainingExecutionDelay",
      "outputs": [
        {
          "internalType": "uint256",
          "name": "",
          "type": "uint256"
        }
      ],
      "stateMutability": "view",
      "type": "function"
    },
    {
      "inputs": [
        {
          "internalType": "uint256",
          "name": "",
          "type": "uint256"
        },
        {
          "internalType": "address",
          "name": "",
          "type": "address"
        }
      ],
      "name": "hasSigned",
      "outputs": [
        {
          "internalType": "bool",
          "name": "",
          "type": "bool"
        }
      ],
      "stateMutability": "view",
      "type": "function"
    },
    {
      "inputs": [
        {
          "internalType": "uint256",
          "name": "_proposalId",
          "type": "uint256"
        },
        {
          "internalType": "address",
          "name": "_voter",
          "type": "address"
        }
      ],
      "name": "hasVoted",
      "outputs": [
        {
          "internalType": "bool",
          "name": "",
          "type": "bool"
        }
      ],
      "stateMutability": "view",
      "type": "function"
    },
    {
      "inputs": [
        {
          "internalType": "uint256",
          "name": "_proposalId",
          "type": "uint256"
        }
      ],
      "name": "incrementVoteCount",
      "outputs": [],
      "stateMutability": "nonpayable",
      "type": "function"
    },
    {
      "inputs": [
        {
          "internalType": "address",
          "name": "_address",
          "type": "address"
        }
      ],
      "name": "isAuthorizedSigner",
      "outputs": [
        {
          "internalType": "bool",
          "name": "",
          "type": "bool"
        }
      ],
      "stateMutability": "view",
      "type": "function"
    },
    {
      "inputs": [
        {
          "internalType": "uint256",
          "name": "_proposalId",
          "type": "uint256"
        }
      ],
      "name": "markProposalExecuted",
      "outputs": [],
      "stateMutability": "nonpayable",
      "type": "function"
    },
    {
      "inputs": [],
      "name": "owner",
      "outputs": [
        {
          "internalType": "address",
          "name": "",
          "type": "address"
        }
      ],
      "stateMutability": "view",
      "type": "function"
    },
    {
      "inputs": [],
      "name": "proposalCount",
      "outputs": [
        {
          "internalType": "uint256",
          "name": "",
          "type": "uint256"
        }
      ],
      "stateMutability": "view",
      "type": "function"
    },
    {
      "inputs": [
        {
          "internalType": "uint256",
          "name": "",
          "type": "uint256"
        }
      ],
      "name": "proposals",
      "outputs": [
        {
          "internalType": "uint256",
          "name": "id",
          "type": "uint256"
        },
        {
          "internalType": "string",
          "name": "description",
          "type": "string"
        },
        {
          "internalType": "uint256",
          "name": "amountRequested",
          "type": "uint256"
        },
        {
          "internalType": "uint256",
          "name": "voteCount",
          "type": "uint256"
        },
        {
          "internalType": "bool",
          "name": "approved",
          "type": "bool"
        },
        {
          "internalType": "bool",
          "name": "executed",
          "type": "bool"
        },
        {
          "internalType": "address",
          "name": "recipient",
          "type": "address"
        },
        {
          "internalType": "address",
          "name": "creator",
          "type": "address"
        },
        {
          "internalType": "uint256",
          "name": "signatureCount",
          "type": "uint256"
        },
        {
          "internalType": "uint256",
          "name": "executionTime",
          "type": "uint256"
        }
      ],
      "stateMutability": "view",
      "type": "function"
    },
    {
      "inputs": [
        {
          "internalType": "address",
          "name": "_signer",
          "type": "address"
        }
      ],
      "name": "removeSigner",
      "outputs": [],
      "stateMutability": "nonpayable",
      "type": "function"
    },
    {
      "inputs": [
        {
          "internalType": "address",
          "name": "_donationTrackingContract",
          "type": "address"
        }
      ],
      "name": "setDonationTrackingContract",
      "outputs": [],
      "stateMutability": "nonpayable",
      "type": "function"
    },
    {
      "inputs": [
        {
          "internalType": "address",
          "name": "_fundAllocationContract",
          "type": "address"
        }
      ],
      "name": "setFundAllocationContract",
      "outputs": [],
      "stateMutability": "nonpayable",
      "type": "function"
    },
    {
      "inputs": [
        {
          "internalType": "address",
          "name": "_votingGovernanceContract",
          "type": "address"
        }
      ],
      "name": "setVotingGovernanceContract",
      "outputs": [],
      "stateMutability": "nonpayable",
      "type": "function"
    },
    {
      "inputs": [
        {
          "internalType": "uint256",
          "name": "_proposalId",
          "type": "uint256"
        }
      ],
      "name": "signProposal",
      "outputs": [],
      "stateMutability": "nonpayable",
      "type": "function"
    },
    {
      "inputs": [],
      "name": "signerCount",
      "outputs": [
        {
          "internalType": "uint256",
          "name": "",
          "type": "uint256"
        }
      ],
      "stateMutability": "view",
      "type": "function"
    },
    {
      "inputs": [
        {
          "internalType": "uint256",
          "name": "",
          "type": "uint256"
        }
      ],
      "name": "signerList",
      "outputs": [
        {
          "internalType": "address",
          "name": "",
          "type": "address"
        }
      ],
      "stateMutability": "view",
      "type": "function"
    },
    {
      "inputs": [
        {
          "internalType": "uint256",
          "name": "",
          "type": "uint256"
        },
        {
          "internalType": "address",
          "name": "",
          "type": "address"
        }
      ],
      "name": "voterRegistry",
      "outputs": [
        {
          "internalType": "bool",
          "name": "",
          "type": "bool"
        }
      ],
      "stateMutability": "view",
      "type": "function"
    },
    {
      "inputs": [],
      "name": "votingGovernanceContract",
      "outputs": [
        {
          "internalType": "address",
          "name": "",
          "type": "address"
        }
      ],
      "stateMutability": "view",
      "type": "function"
    }
  ],
  "bytecode": "0x608060405234801561001057600080fd5b5033600260006101000a81548173ffffffffffffffffffffffffffffffffffffffff021916908373ffffffffffffffffffffffffffffffffffffffff1602179055506001600860003373ffffffffffffffffffffffffffffffffffffffff1673ffffffffffffffffffffffffffffffffffffffff16815260200190815260200160002060006101000a81548160ff0219169083151502179055506001600a819055507f47d1c22a25bb3a5d4e481b9b1e6944c2eade3181a0a20b495ed61d35b5323f24336040516100e1919061012f565b60405180910390a161014a565b600073ffffffffffffffffffffffffffffffffffffffff82169050919050565b6000610119826100ee565b9050919050565b6101298161010e565b82525050565b60006020820190506101446000830184610120565b92915050565b61429d806101596000396000f3fe608060405234801561001057600080fd5b50600436106101e55760003560e01c806373cd0e781161010f578063b0701cc0116100a2578063da35c66411610071578063da35c664146105c3578063eb12d61e146105e1578063f3b9e61c146105fd578063fe7d5b5f14610619576101e5565b8063b0701cc01461053b578063bfe5f76e1461056b578063cc3dbc7f14610589578063cceb68f5146105a5576101e5565b80638d8be680116100de5780638d8be680146104c55780638da5cb5b146104e35780639ac18b1914610501578063ab2730161461051f576101e5565b806373cd0e781461043d5780637ca548c61461045b5780637cea2dee146104795780638c2a593a14610495576101e5565b8063557ff0211161018757806365edee191161015657806365edee19146103b75780636ac1e01f146103d5578063709df8d9146103f157806371264ddd14610421576101e5565b8063557ff02114610309578063577ed7e11461033957806358462d0c146103695780635d2b6a4e14610387576101e5565b806337f135d7116101c357806337f135d71461026f578063424a3d771461028d57806343859632146102a957806349045e16146102d9576101e5565b8063013cf08b146101ea5780630e316ab7146102235780633656de211461023f575b600080fd5b61020460048036038101906101ff9190612a29565b610637565b60405161021a9a99989796959493929190612b51565b60405180910390f35b61023d60048036038101906102389190612c20565b61076d565b005b61025960048036038101906102549190612a29565b610b8f565b6040516102669190612d9e565b60405180910390f35b610277610db3565b6040516102849190612dc0565b60405180910390f35b6102a760048036038101906102a29190612a29565b610db8565b005b6102c360048036038101906102be9190612ddb565b6110a1565b6040516102d09190612e1b565b60405180910390f35b6102f360048036038101906102ee9190612c20565b611159565b6040516103009190612e1b565b60405180910390f35b610323600480360381019061031e9190612ddb565b6111af565b6040516103309190612e1b565b60405180910390f35b610353600480360381019061034e9190612a29565b6111de565b6040516103609190612e36565b60405180910390f35b61037161121d565b60405161037e9190612dc0565b60405180910390f35b6103a1600480360381019061039c9190612c20565b611229565b6040516103ae9190612e1b565b60405180910390f35b6103bf611249565b6040516103cc9190612e36565b60405180910390f35b6103ef60048036038101906103ea9190612f86565b61126f565b005b61040b60048036038101906104069190612ddb565b611531565b6040516104189190612e1b565b60405180910390f35b61043b60048036038101906104369190612c20565b611560565b005b6104456116da565b6040516104529190612e36565b60405180910390f35b610463611700565b6040516104709190612dc0565b60405180910390f35b610493600480360381019061048e9190612c20565b611706565b005b6104af60048036038101906104aa9190612a29565b611880565b6040516104bc9190612e1b565b60405180910390f35b6104cd61192d565b6040516104da91906130a4565b60405180910390f35b6104eb611ad0565b6040516104f89190612e36565b60405180910390f35b610509611af6565b6040516105169190612dc0565b60405180910390f35b61053960048036038101906105349190612a29565b611afb565b005b61055560048036038101906105509190612a29565b611eae565b6040516105629190612dc0565b60405180910390f35b610573611f8e565b6040516105809190612dc0565b60405180910390f35b6105a3600480360381019061059e9190612c20565b611f93565b005b6105ad61210d565b6040516105ba9190613262565b60405180910390f35b6105cb612382565b6040516105d89190612dc0565b60405180910390f35b6105fb60048036038101906105f69190612c20565b612388565b005b61061760048036038101906106129190612a29565b612621565b005b610621612936565b60405161062e9190612e36565b60405180910390f35b6000602052806000526040600020600091509050806000015490806001018054610660906132b3565b80601f016020809104026020016040519081016040528092919081815260200182805461068c906132b3565b80156106d95780601f106106ae576101008083540402835291602001916106d9565b820191906000526020600020905b8154815290600101906020018083116106bc57829003601f168201915b5050505050908060020154908060030154908060040160009054906101000a900460ff16908060040160019054906101000a900460ff16908060040160029054906101000a900473ffffffffffffffffffffffffffffffffffffffff16908060050160009054906101000a900473ffffffffffffffffffffffffffffffffffffffff1690806006015490806007015490508a565b600260009054906101000a900473ffffffffffffffffffffffffffffffffffffffff1673ffffffffffffffffffffffffffffffffffffffff163373ffffffffffffffffffffffffffffffffffffffff16146107fd576040517f08c379a00000000000000000000000000000000000000000000000000000000081526004016107f490613356565b60405180910390fd5b600260009054906101000a900473ffffffffffffffffffffffffffffffffffffffff1673ffffffffffffffffffffffffffffffffffffffff168173ffffffffffffffffffffffffffffffffffffffff160361088d576040517f08c379a0000000000000000000000000000000000000000000000000000000008152600401610884906133c2565b60405180910390fd5b600860008273ffffffffffffffffffffffffffffffffffffffff1673ffffffffffffffffffffffffffffffffffffffff16815260200190815260200160002060009054906101000a900460ff16610919576040517f08c379a00000000000000000000000000000000000000000000000000000000081526004016109109061342e565b60405180910390fd5b6002600a541161095e576040517f08c379a0000000000000000000000000000000000000000000000000000000008152600401610955906134c0565b60405180910390fd5b6000600860008373ffffffffffffffffffffffffffffffffffffffff1673ffffffffffffffffffffffffffffffffffffffff16815260200190815260200160002060006101000a81548160ff02191690831515021790555060005b600980549050811015610b3c578173ffffffffffffffffffffffffffffffffffffffff16600982815481106109f1576109f06134e0565b5b9060005260206000200160009054906101000a900473ffffffffffffffffffffffffffffffffffffffff1673ffffffffffffffffffffffffffffffffffffffff1603610b2f5760096001600980549050610a4b919061353e565b81548110610a5c57610a5b6134e0565b5b9060005260206000200160009054906101000a900473ffffffffffffffffffffffffffffffffffffffff1660098281548110610a9b57610a9a6134e0565b5b9060005260206000200160006101000a81548173ffffffffffffffffffffffffffffffffffffffff021916908373ffffffffffffffffffffffffffffffffffffffff1602179055506009805480610af557610af4613572565b5b6001900381819060005260206000200160006101000a81549073ffffffffffffffffffffffffffffffffffffffff02191690559055610b3c565b80806001019150506109b9565b50600a6000815480929190610b50906135a1565b91905055507f3525e22824a8a7df2c9a6029941c824cf95b6447f1e13d5128fd3826d35afe8b81604051610b849190612e36565b60405180910390a150565b610b9761295c565b600082118015610ba957506001548211155b610be8576040517f08c379a0000000000000000000000000000000000000000000000000000000008152600401610bdf90613616565b60405180910390fd5b6000808381526020019081526020016000206040518061014001604052908160008201548152602001600182018054610c20906132b3565b80601f0160208091040260200160405190810160405280929190818152602001828054610c4c906132b3565b8015610c995780601f10610c6e57610100808354040283529160200191610c99565b820191906000526020600020905b815481529060010190602001808311610c7c57829003601f168201915b5050505050815260200160028201548152602001600382015481526020016004820160009054906101000a900460ff161515151581526020016004820160019054906101000a900460ff161515151581526020016004820160029054906101000a900473ffffffffffffffffffffffffffffffffffffffff1673ffffffffffffffffffffffffffffffffffffffff1673ffffffffffffffffffffffffffffffffffffffff1681526020016005820160009054906101000a900473ffffffffffffffffffffffffffffffffffffffff1673ffffffffffffffffffffffffffffffffffffffff1673ffffffffffffffffffffffffffffffffffffffff168152602001600682015481526020016007820154815250509050919050565b602d81565b600260009054906101000a900473ffffffffffffffffffffffffffffffffffffffff1673ffffffffffffffffffffffffffffffffffffffff163373ffffffffffffffffffffffffffffffffffffffff161480610e615750600360009054906101000a900473ffffffffffffffffffffffffffffffffffffffff1673ffffffffffffffffffffffffffffffffffffffff163373ffffffffffffffffffffffffffffffffffffffff16145b80610eb95750600560009054906101000a900473ffffffffffffffffffffffffffffffffffffffff1673ffffffffffffffffffffffffffffffffffffffff163373ffffffffffffffffffffffffffffffffffffffff16145b610ef8576040517f08c379a0000000000000000000000000000000000000000000000000000000008152600401610eef90613682565b60405180910390fd5b600081118015610f0a57506001548111155b610f49576040517f08c379a0000000000000000000000000000000000000000000000000000000008152600401610f4090613616565b60405180910390fd5b600080600083815260200190815260200160002090508060040160009054906101000a900460ff16610fb0576040517f08c379a0000000000000000000000000000000000000000000000000000000008152600401610fa7906136ee565b60405180910390fd5b8060040160019054906101000a900460ff1615611002576040517f08c379a0000000000000000000000000000000000000000000000000000000008152600401610ff99061375a565b60405180910390fd5b8060070154421015611049576040517f08c379a0000000000000000000000000000000000000000000000000000000008152600401611040906137c6565b60405180910390fd5b60018160040160016101000a81548160ff0219169083151502179055507f712ae1383f79ac853f8d882153778e0260ef8f03b504e2866e0593e04d2b291f826040516110959190612dc0565b60405180910390a15050565b600080831180156110b457506001548311155b6110f3576040517f08c379a00000000000000000000000000000000000000000000000000000000081526004016110ea90613616565b60405180910390fd5b6006600084815260200190815260200160002060008373ffffffffffffffffffffffffffffffffffffffff1673ffffffffffffffffffffffffffffffffffffffff16815260200190815260200160002060009054906101000a900460ff16905092915050565b6000600860008373ffffffffffffffffffffffffffffffffffffffff1673ffffffffffffffffffffffffffffffffffffffff16815260200190815260200160002060009054906101000a900460ff169050919050565b60066020528160005260406000206020528060005260406000206000915091509054906101000a900460ff1681565b600981815481106111ee57600080fd5b906000526020600020016000915054906101000a900473ffffffffffffffffffffffffffffffffffffffff1681565b67016345785d8a000081565b60086020528060005260406000206000915054906101000a900460ff1681565b600560009054906101000a900473ffffffffffffffffffffffffffffffffffffffff1681565b67016345785d8a00008210156112ba576040517f08c379a00000000000000000000000000000000000000000000000000000000081526004016112b190613832565b60405180910390fd5b600073ffffffffffffffffffffffffffffffffffffffff168173ffffffffffffffffffffffffffffffffffffffff1603611329576040517f08c379a00000000000000000000000000000000000000000000000000000000081526004016113209061389e565b60405180910390fd5b6001600081548092919061133c906138be565b91905055506040518061014001604052806001548152602001848152602001838152602001600081526020016000151581526020016000151581526020018273ffffffffffffffffffffffffffffffffffffffff1681526020013373ffffffffffffffffffffffffffffffffffffffff16815260200160008152602001600081525060008060015481526020019081526020016000206000820151816000015560208201518160010190816113f19190613ab2565b50604082015181600201556060820151816003015560808201518160040160006101000a81548160ff02191690831515021790555060a08201518160040160016101000a81548160ff02191690831515021790555060c08201518160040160026101000a81548173ffffffffffffffffffffffffffffffffffffffff021916908373ffffffffffffffffffffffffffffffffffffffff16021790555060e08201518160050160006101000a81548173ffffffffffffffffffffffffffffffffffffffff021916908373ffffffffffffffffffffffffffffffffffffffff160217905550610100820151816006015561012082015181600701559050507f98504bc76d855fac343248bdddc062a45d467777dd16a83e57e505f8121562f36001548484336040516115249493929190613b84565b60405180910390a1505050565b60076020528160005260406000206020528060005260406000206000915091509054906101000a900460ff1681565b600260009054906101000a900473ffffffffffffffffffffffffffffffffffffffff1673ffffffffffffffffffffffffffffffffffffffff163373ffffffffffffffffffffffffffffffffffffffff16146115f0576040517f08c379a00000000000000000000000000000000000000000000000000000000081526004016115e790613356565b60405180910390fd5b600073ffffffffffffffffffffffffffffffffffffffff168173ffffffffffffffffffffffffffffffffffffffff160361165f576040517f08c379a000000000000000000000000000000000000000000000000000000000815260040161165690613c42565b60405180910390fd5b80600560006101000a81548173ffffffffffffffffffffffffffffffffffffffff021916908373ffffffffffffffffffffffffffffffffffffffff1602179055507fdf60a58e59cb58d22c46c3fae3cc30fd456dbd975543e6904083943807ed4232816040516116cf9190612e36565b60405180910390a150565b600460009054906101000a900473ffffffffffffffffffffffffffffffffffffffff1681565b600a5481565b600260009054906101000a900473ffffffffffffffffffffffffffffffffffffffff1673ffffffffffffffffffffffffffffffffffffffff163373ffffffffffffffffffffffffffffffffffffffff1614611796576040517f08c379a000000000000000000000000000000000000000000000000000000000815260040161178d90613356565b60405180910390fd5b600073ffffffffffffffffffffffffffffffffffffffff168173ffffffffffffffffffffffffffffffffffffffff1603611805576040517f08c379a00000000000000000000000000000000000000000000000000000000081526004016117fc90613cd4565b60405180910390fd5b80600360006101000a81548173ffffffffffffffffffffffffffffffffffffffff021916908373ffffffffffffffffffffffffffffffffffffffff1602179055507f96c68bcd73e3a8f848ae4a74b15da0c8d9787b655a3351cfff9173f8c9634273816040516118759190612e36565b60405180910390a150565b6000808211801561189357506001548211155b6118d2576040517f08c379a00000000000000000000000000000000000000000000000000000000081526004016118c990613616565b60405180910390fd5b600080600084815260200190815260200160002090508060040160009054906101000a900460ff16801561191557508060040160019054906101000a900460ff16155b8015611925575080600701544210155b915050919050565b60606000600a5467ffffffffffffffff81111561194d5761194c612e5b565b5b60405190808252806020026020018201604052801561197b5781602001602082028036833780820191505090505b5090506000805b600980549050811015611ac75760086000600983815481106119a7576119a66134e0565b5b9060005260206000200160009054906101000a900473ffffffffffffffffffffffffffffffffffffffff1673ffffffffffffffffffffffffffffffffffffffff1673ffffffffffffffffffffffffffffffffffffffff16815260200190815260200160002060009054906101000a900460ff1615611aba5760098181548110611a3357611a326134e0565b5b9060005260206000200160009054906101000a900473ffffffffffffffffffffffffffffffffffffffff16838381518110611a7157611a706134e0565b5b602002602001019073ffffffffffffffffffffffffffffffffffffffff16908173ffffffffffffffffffffffffffffffffffffffff16815250508180611ab6906138be565b9250505b8080600101915050611982565b50819250505090565b600260009054906101000a900473ffffffffffffffffffffffffffffffffffffffff1681565b600281565b600860003373ffffffffffffffffffffffffffffffffffffffff1673ffffffffffffffffffffffffffffffffffffffff16815260200190815260200160002060009054906101000a900460ff16611b87576040517f08c379a0000000000000000000000000000000000000000000000000000000008152600401611b7e90613d66565b60405180910390fd5b600081118015611b9957506001548111155b611bd8576040517f08c379a0000000000000000000000000000000000000000000000000000000008152600401611bcf90613616565b60405180910390fd5b60008060008381526020019081526020016000209050600381600301541015611c36576040517f08c379a0000000000000000000000000000000000000000000000000000000008152600401611c2d90613dd2565b60405180910390fd5b8060040160009054906101000a900460ff1615611c88576040517f08c379a0000000000000000000000000000000000000000000000000000000008152600401611c7f90613e3e565b60405180910390fd5b8060040160019054906101000a900460ff1615611cda576040517f08c379a0000000000000000000000000000000000000000000000000000000008152600401611cd19061375a565b60405180910390fd5b6007600083815260200190815260200160002060003373ffffffffffffffffffffffffffffffffffffffff1673ffffffffffffffffffffffffffffffffffffffff16815260200190815260200160002060009054906101000a900460ff1615611d78576040517f08c379a0000000000000000000000000000000000000000000000000000000008152600401611d6f90613eaa565b60405180910390fd5b60016007600084815260200190815260200160002060003373ffffffffffffffffffffffffffffffffffffffff1673ffffffffffffffffffffffffffffffffffffffff16815260200190815260200160002060006101000a81548160ff021916908315150217905550806006016000815480929190611df6906138be565b91905055507fc47a1536197401b36a117101725a5dfa1495e2643f664e4a10289c7bba9444478233604051611e2c929190613eca565b60405180910390a16002816006015410611eaa5760018160040160006101000a81548160ff021916908315150217905550602d42611e6a9190613ef3565b81600701819055507f28ec9e38ba73636ceb2f6c1574136f83bd46284a3c74734b711bf45e12f8d92982604051611ea19190612dc0565b60405180910390a15b5050565b60008082118015611ec157506001548211155b611f00576040517f08c379a0000000000000000000000000000000000000000000000000000000008152600401611ef790613616565b60405180910390fd5b600080600084815260200190815260200160002090508060040160009054906101000a900460ff161580611f4257508060040160019054906101000a900460ff165b80611f51575060008160070154145b15611f60576000915050611f89565b80600701544210611f75576000915050611f89565b428160070154611f85919061353e565b9150505b919050565b600381565b600260009054906101000a900473ffffffffffffffffffffffffffffffffffffffff1673ffffffffffffffffffffffffffffffffffffffff163373ffffffffffffffffffffffffffffffffffffffff1614612023576040517f08c379a000000000000000000000000000000000000000000000000000000000815260040161201a90613356565b60405180910390fd5b600073ffffffffffffffffffffffffffffffffffffffff168173ffffffffffffffffffffffffffffffffffffffff1603612092576040517f08c379a000000000000000000000000000000000000000000000000000000000815260040161208990613f99565b60405180910390fd5b80600460006101000a81548173ffffffffffffffffffffffffffffffffffffffff021916908373ffffffffffffffffffffffffffffffffffffffff1602179055507fa265b8da2bb2105b9e75043ec008035c21def57e570aac06092804bf13d54823816040516121029190612e36565b60405180910390a150565b6060600060015467ffffffffffffffff81111561212d5761212c612e5b565b5b60405190808252806020026020018201604052801561216657816020015b61215361295c565b81526020019060019003908161214b5790505b5090506000600190505b600154811161237a5760008082815260200190815260200160002060405180610140016040529081600082015481526020016001820180546121b1906132b3565b80601f01602080910402602001604051908101604052809291908181526020018280546121dd906132b3565b801561222a5780601f106121ff5761010080835404028352916020019161222a565b820191906000526020600020905b81548152906001019060200180831161220d57829003601f168201915b5050505050815260200160028201548152602001600382015481526020016004820160009054906101000a900460ff161515151581526020016004820160019054906101000a900460ff161515151581526020016004820160029054906101000a900473ffffffffffffffffffffffffffffffffffffffff1673ffffffffffffffffffffffffffffffffffffffff1673ffffffffffffffffffffffffffffffffffffffff1681526020016005820160009054906101000a900473ffffffffffffffffffffffffffffffffffffffff1673ffffffffffffffffffffffffffffffffffffffff1673ffffffffffffffffffffffffffffffffffffffff168152602001600682015481526020016007820154815250508260018361234b919061353e565b8151811061235c5761235b6134e0565b5b60200260200101819052508080612372906138be565b915050612170565b508091505090565b60015481565b600260009054906101000a900473ffffffffffffffffffffffffffffffffffffffff1673ffffffffffffffffffffffffffffffffffffffff163373ffffffffffffffffffffffffffffffffffffffff1614612418576040517f08c379a000000000000000000000000000000000000000000000000000000000815260040161240f90613356565b60405180910390fd5b600073ffffffffffffffffffffffffffffffffffffffff168173ffffffffffffffffffffffffffffffffffffffff1603612487576040517f08c379a000000000000000000000000000000000000000000000000000000000815260040161247e90614005565b60405180910390fd5b600860008273ffffffffffffffffffffffffffffffffffffffff1673ffffffffffffffffffffffffffffffffffffffff16815260200190815260200160002060009054906101000a900460ff1615612514576040517f08c379a000000000000000000000000000000000000000000000000000000000815260040161250b90614071565b60405180910390fd5b6001600860008373ffffffffffffffffffffffffffffffffffffffff1673ffffffffffffffffffffffffffffffffffffffff16815260200190815260200160002060006101000a81548160ff0219169083151502179055506009819080600181540180825580915050600190039060005260206000200160009091909190916101000a81548173ffffffffffffffffffffffffffffffffffffffff021916908373ffffffffffffffffffffffffffffffffffffffff160217905550600a60008154809291906125e2906138be565b91905055507f47d1c22a25bb3a5d4e481b9b1e6944c2eade3181a0a20b495ed61d35b5323f24816040516126169190612e36565b60405180910390a150565b600560009054906101000a900473ffffffffffffffffffffffffffffffffffffffff1673ffffffffffffffffffffffffffffffffffffffff163373ffffffffffffffffffffffffffffffffffffffff16146126b1576040517f08c379a00000000000000000000000000000000000000000000000000000000081526004016126a890614103565b60405180910390fd5b6000811180156126c357506001548111155b612702576040517f08c379a00000000000000000000000000000000000000000000000000000000081526004016126f990613616565b60405180910390fd5b6006600082815260200190815260200160002060003273ffffffffffffffffffffffffffffffffffffffff1673ffffffffffffffffffffffffffffffffffffffff16815260200190815260200160002060009054906101000a900460ff16156127a0576040517f08c379a00000000000000000000000000000000000000000000000000000000081526004016127979061416f565b60405180910390fd5b60008082815260200190815260200160002060040160009054906101000a900460ff1615612803576040517f08c379a00000000000000000000000000000000000000000000000000000000081526004016127fa906141db565b60405180910390fd5b60008082815260200190815260200160002060040160019054906101000a900460ff1615612866576040517f08c379a000000000000000000000000000000000000000000000000000000000815260040161285d90614247565b60405180910390fd5b600080828152602001908152602001600020600301600081548092919061288c906138be565b919050555060016006600083815260200190815260200160002060003273ffffffffffffffffffffffffffffffffffffffff1673ffffffffffffffffffffffffffffffffffffffff16815260200190815260200160002060006101000a81548160ff0219169083151502179055507fd8d46ecf72f6103ff400e47d1b5fdfe248d4ca34a4acd39f63fbe903c8f7e7bd813260405161292b929190613eca565b60405180910390a150565b600360009054906101000a900473ffffffffffffffffffffffffffffffffffffffff1681565b60405180610140016040528060008152602001606081526020016000815260200160008152602001600015158152602001600015158152602001600073ffffffffffffffffffffffffffffffffffffffff168152602001600073ffffffffffffffffffffffffffffffffffffffff16815260200160008152602001600081525090565b6000604051905090565b600080fd5b600080fd5b6000819050919050565b612a06816129f3565b8114612a1157600080fd5b50565b600081359050612a23816129fd565b92915050565b600060208284031215612a3f57612a3e6129e9565b5b6000612a4d84828501612a14565b91505092915050565b612a5f816129f3565b82525050565b600081519050919050565b600082825260208201905092915050565b60005b83811015612a9f578082015181840152602081019050612a84565b60008484015250505050565b6000601f19601f8301169050919050565b6000612ac782612a65565b612ad18185612a70565b9350612ae1818560208601612a81565b612aea81612aab565b840191505092915050565b60008115159050919050565b612b0a81612af5565b82525050565b600073ffffffffffffffffffffffffffffffffffffffff82169050919050565b6000612b3b82612b10565b9050919050565b612b4b81612b30565b82525050565b600061014082019050612b67600083018d612a56565b8181036020830152612b79818c612abc565b9050612b88604083018b612a56565b612b95606083018a612a56565b612ba26080830189612b01565b612baf60a0830188612b01565b612bbc60c0830187612b42565b612bc960e0830186612b42565b612bd7610100830185612a56565b612be5610120830184612a56565b9b9a5050505050505050505050565b612bfd81612b30565b8114612c0857600080fd5b50565b600081359050612c1a81612bf4565b92915050565b600060208284031215612c3657612c356129e9565b5b6000612c4484828501612c0b565b91505092915050565b612c56816129f3565b82525050565b600082825260208201905092915050565b6000612c7882612a65565b612c828185612c5c565b9350612c92818560208601612a81565b612c9b81612aab565b840191505092915050565b612caf81612af5565b82525050565b612cbe81612b30565b82525050565b600061014083016000830151612cdd6000860182612c4d565b5060208301518482036020860152612cf58282612c6d565b9150506040830151612d0a6040860182612c4d565b506060830151612d1d6060860182612c4d565b506080830151612d306080860182612ca6565b5060a0830151612d4360a0860182612ca6565b5060c0830151612d5660c0860182612cb5565b5060e0830151612d6960e0860182612cb5565b50610100830151612d7e610100860182612c4d565b50610120830151612d93610120860182612c4d565b508091505092915050565b60006020820190508181036000830152612db88184612cc4565b905092915050565b6000602082019050612dd56000830184612a56565b92915050565b60008060408385031215612df257612df16129e9565b5b6000612e0085828601612a14565b9250506020612e1185828601612c0b565b9150509250929050565b6000602082019050612e306000830184612b01565b92915050565b6000602082019050612e4b6000830184612b42565b92915050565b600080fd5b600080fd5b7f4e487b7100000000000000000000000000000000000000000000000000000000600052604160045260246000fd5b612e9382612aab565b810181811067ffffffffffffffff82111715612eb257612eb1612e5b565b5b80604052505050565b6000612ec56129df565b9050612ed18282612e8a565b919050565b600067ffffffffffffffff821115612ef157612ef0612e5b565b5b612efa82612aab565b9050602081019050919050565b82818337600083830152505050565b6000612f29612f2484612ed6565b612ebb565b905082815260208101848484011115612f4557612f44612e56565b5b612f50848285612f07565b509392505050565b600082601f830112612f6d57612f6c612e51565b5b8135612f7d848260208601612f16565b91505092915050565b600080600060608486031215612f9f57612f9e6129e9565b5b600084013567ffffffffffffffff811115612fbd57612fbc6129ee565b5b612fc986828701612f58565b9350506020612fda86828701612a14565b9250506040612feb86828701612c0b565b9150509250925092565b600081519050919050565b600082825260208201905092915050565b6000819050602082019050919050565b600061302d8383612cb5565b60208301905092915050565b6000602082019050919050565b600061305182612ff5565b61305b8185613000565b935061306683613011565b8060005b8381101561309757815161307e8882613021565b975061308983613039565b92505060018101905061306a565b5085935050505092915050565b600060208201905081810360008301526130be8184613046565b905092915050565b600081519050919050565b600082825260208201905092915050565b6000819050602082019050919050565b60006101408301600083015161310b6000860182612c4d565b50602083015184820360208601526131238282612c6d565b91505060408301516131386040860182612c4d565b50606083015161314b6060860182612c4d565b50608083015161315e6080860182612ca6565b5060a083015161317160a0860182612ca6565b5060c083015161318460c0860182612cb5565b5060e083015161319760e0860182612cb5565b506101008301516131ac610100860182612c4d565b506101208301516131c1610120860182612c4d565b508091505092915050565b60006131d883836130f2565b905092915050565b6000602082019050919050565b60006131f8826130c6565b61320281856130d1565b935083602082028501613214856130e2565b8060005b85811015613250578484038952815161323185826131cc565b945061323c836131e0565b925060208a01995050600181019050613218565b50829750879550505050505092915050565b6000602082019050818103600083015261327c81846131ed565b905092915050565b7f4e487b7100000000000000000000000000000000000000000000000000000000600052602260045260246000fd5b600060028204905060018216806132cb57607f821691505b6020821081036132de576132dd613284565b5b50919050565b7f4f6e6c79206f776e65722063616e2063616c6c20746869732066756e6374696f60008201527f6e00000000000000000000000000000000000000000000000000000000000000602082015250565b6000613340602183612a70565b915061334b826132e4565b604082019050919050565b6000602082019050818103600083015261336f81613333565b9050919050565b7f43616e6e6f742072656d6f7665206f776e657200000000000000000000000000600082015250565b60006133ac601383612a70565b91506133b782613376565b602082019050919050565b600060208201905081810360008301526133db8161339f565b9050919050565b7f4e6f742061207369676e65720000000000000000000000000000000000000000600082015250565b6000613418600c83612a70565b9150613423826133e2565b602082019050919050565b600060208201905081810360008301526134478161340b565b9050919050565b7f43616e6e6f742068617665206665776572207369676e657273207468616e207260008201527f6571756972656400000000000000000000000000000000000000000000000000602082015250565b60006134aa602783612a70565b91506134b58261344e565b604082019050919050565b600060208201905081810360008301526134d98161349d565b9050919050565b7f4e487b7100000000000000000000000000000000000000000000000000000000600052603260045260246000fd5b7f4e487b7100000000000000000000000000000000000000000000000000000000600052601160045260246000fd5b6000613549826129f3565b9150613554836129f3565b925082820390508181111561356c5761356b61350f565b5b92915050565b7f4e487b7100000000000000000000000000000000000000000000000000000000600052603160045260246000fd5b60006135ac826129f3565b9150600082036135bf576135be61350f565b5b600182039050919050565b7f496e76616c69642070726f706f73616c20494400000000000000000000000000600082015250565b6000613600601383612a70565b915061360b826135ca565b602082019050919050565b6000602082019050818103600083015261362f816135f3565b9050919050565b7f4e6f7420617574686f72697a6564000000000000000000000000000000000000600082015250565b600061366c600e83612a70565b915061367782613636565b602082019050919050565b6000602082019050818103600083015261369b8161365f565b9050919050565b7f4e6f7420617070726f7665640000000000000000000000000000000000000000600082015250565b60006136d8600c83612a70565b91506136e3826136a2565b602082019050919050565b60006020820190508181036000830152613707816136cb565b9050919050565b7f416c726561647920657865637574656400000000000000000000000000000000600082015250565b6000613744601083612a70565b915061374f8261370e565b602082019050919050565b6000602082019050818103600083015261377381613737565b9050919050565b7f54696d65206c6f636b20706572696f64206e6f7420636f6d706c657465640000600082015250565b60006137b0601e83612a70565b91506137bb8261377a565b602082019050919050565b600060208201905081810360008301526137df816137a3565b9050919050565b7f416d6f756e7420746f6f20736d616c6c00000000000000000000000000000000600082015250565b600061381c601083612a70565b9150613827826137e6565b602082019050919050565b6000602082019050818103600083015261384b8161380f565b9050919050565b7f496e76616c696420726563697069656e74206164647265737300000000000000600082015250565b6000613888601983612a70565b915061389382613852565b602082019050919050565b600060208201905081810360008301526138b78161387b565b9050919050565b60006138c9826129f3565b91507fffffffffffffffffffffffffffffffffffffffffffffffffffffffffffffffff82036138fb576138fa61350f565b5b600182019050919050565b60008190508160005260206000209050919050565b60006020601f8301049050919050565b600082821b905092915050565b6000600883026139687fffffffffffffffffffffffffffffffffffffffffffffffffffffffffffffffff8261392b565b613972868361392b565b95508019841693508086168417925050509392505050565b6000819050919050565b60006139af6139aa6139a5846129f3565b61398a565b6129f3565b9050919050565b6000819050919050565b6139c983613994565b6139dd6139d5826139b6565b848454613938565b825550505050565b600090565b6139f26139e5565b6139fd8184846139c0565b505050565b5b81811015613a2157613a166000826139ea565b600181019050613a03565b5050565b601f821115613a6657613a3781613906565b613a408461391b565b81016020851015613a4f578190505b613a63613a5b8561391b565b830182613a02565b50505b505050565b600082821c905092915050565b6000613a8960001984600802613a6b565b1980831691505092915050565b6000613aa28383613a78565b9150826002028217905092915050565b613abb82612a65565b67ffffffffffffffff811115613ad457613ad3612e5b565b5b613ade82546132b3565b613ae9828285613a25565b600060209050601f831160018114613b1c5760008415613b0a578287015190505b613b148582613a96565b865550613b7c565b601f198416613b2a86613906565b60005b82811015613b5257848901518255600182019150602085019450602081019050613b2d565b86831015613b6f5784890151613b6b601f891682613a78565b8355505b6001600288020188555050505b505050505050565b6000608082019050613b996000830187612a56565b8181036020830152613bab8186612abc565b9050613bba6040830185612a56565b613bc76060830184612b42565b95945050505050565b7f496e76616c696420766f74696e6720676f7665726e616e636520636f6e74726160008201527f6374206164647265737300000000000000000000000000000000000000000000602082015250565b6000613c2c602a83612a70565b9150613c3782613bd0565b604082019050919050565b60006020820190508181036000830152613c5b81613c1f565b9050919050565b7f496e76616c69642066756e6420616c6c6f636174696f6e20636f6e747261637460008201527f2061646472657373000000000000000000000000000000000000000000000000602082015250565b6000613cbe602883612a70565b9150613cc982613c62565b604082019050919050565b60006020820190508181036000830152613ced81613cb1565b9050919050565b7f4f6e6c7920617574686f72697a6564207369676e6572732063616e2063616c6c60008201527f20746869732066756e6374696f6e000000000000000000000000000000000000602082015250565b6000613d50602e83612a70565b9150613d5b82613cf4565b604082019050919050565b60006020820190508181036000830152613d7f81613d43565b9050919050565b7f4e6f7420656e6f75676820766f74657300000000000000000000000000000000600082015250565b6000613dbc601083612a70565b9150613dc782613d86565b602082019050919050565b60006020820190508181036000830152613deb81613daf565b9050919050565b7f416c726561647920617070726f76656400000000000000000000000000000000600082015250565b6000613e28601083612a70565b9150613e3382613df2565b602082019050919050565b60006020820190508181036000830152613e5781613e1b565b9050919050565b7f416c7265616479207369676e6564000000000000000000000000000000000000600082015250565b6000613e94600e83612a70565b9150613e9f82613e5e565b602082019050919050565b60006020820190508181036000830152613ec381613e87565b9050919050565b6000604082019050613edf6000830185612a56565b613eec6020830184612b42565b9392505050565b6000613efe826129f3565b9150613f09836129f3565b9250828201905080821115613f2157613f2061350f565b5b92915050565b7f496e76616c696420646f6e6174696f6e20747261636b696e6720636f6e74726160008201527f6374206164647265737300000000000000000000000000000000000000000000602082015250565b6000613f83602a83612a70565b9150613f8e82613f27565b604082019050919050565b60006020820190508181036000830152613fb281613f76565b9050919050565b7f496e76616c6964207369676e6572206164647265737300000000000000000000600082015250565b6000613fef601683612a70565b9150613ffa82613fb9565b602082019050919050565b6000602082019050818103600083015261401e81613fe2565b9050919050565b7f416c72656164792061207369676e657200000000000000000000000000000000600082015250565b600061405b601083612a70565b915061406682614025565b602082019050919050565b6000602082019050818103600083015261408a8161404e565b9050919050565b7f4f6e6c7920766f74696e6720676f7665726e616e636520636f6e74726163742060008201527f63616e20696e6372656d656e7420766f74657300000000000000000000000000602082015250565b60006140ed603383612a70565b91506140f882614091565b604082019050919050565b6000602082019050818103600083015261411c816140e0565b9050919050565b7f416c726561647920766f74656400000000000000000000000000000000000000600082015250565b6000614159600d83612a70565b915061416482614123565b602082019050919050565b600060208201905081810360008301526141888161414c565b9050919050565b7f50726f706f73616c20616c726561647920617070726f76656400000000000000600082015250565b60006141c5601983612a70565b91506141d08261418f565b602082019050919050565b600060208201905081810360008301526141f4816141b8565b9050919050565b7f50726f706f73616c20616c726561647920657865637574656400000000000000600082015250565b6000614231601983612a70565b915061423c826141fb565b602082019050919050565b6000602082019050818103600083015261426081614224565b905091905056fea26469706673582212201e4bc2497e6623dbae703d8b8f610c86217426a1949da62533192693f339ac8c64736f6c634300081c0033",
  "linkReferences": {},
  "deployedLinkReferences": {}
}