{
  "_format": "hh-sol-artifact-1",
  "contractName": "SecureFundAllocation",
  "sourceName": "contracts/SecureFundAllocation.sol",
  "abi": [
    {
      "inputs": [
        {
          "internalType": "address",
          "name": "_proposalContract",
          "type": "address"
        }
      ],
      "stateMutability": "nonpayable",
      "type": "constructor"
    },
    {
      "anonymous": false,
      "inputs": [
        {
          "indexed": false,
          "internalType": "address",
          "name": "sender",
          "type": "address"
        },
        {
          "indexed": false,
          "internalType": "uint256",
          "name": "amount",
          "type": "uint256"
        },
        {
          "indexed": false,
          "internalType": "uint256",
          "name": "timestamp",
          "type": "uint256"
        }
      ],
      "name": "FundsReceived",
      "type": "event"
    },
    {
      "anonymous": false,
      "inputs": [
        {
          "indexed": true,
          "internalType": "address",
          "name": "previousOwner",
          "type": "address"
        },
        {
          "indexed": true,
          "internalType": "address",
          "name": "newOwner",
          "type": "address"
        },
        {
          "indexed": false,
          "internalType": "uint256",
          "name": "timestamp",
          "type": "uint256"
        }
      ],
      "name": "OwnershipTransferred",
      "type": "event"
    },
    {
      "anonymous": false,
      "inputs": [
        {
          "indexed": false,
          "internalType": "address",
          "name": "platformContract",
          "type": "address"
        },
        {
          "indexed": false,
          "internalType": "uint256",
          "name": "timestamp",
          "type": "uint256"
        }
      ],
      "name": "PlatformContractSet",
      "type": "event"
    },
    {
      "anonymous": false,
      "inputs": [
        {
          "indexed": false,
          "internalType": "uint256",
          "name": "proposalId",
          "type": "uint256"
        },
        {
          "indexed": false,
          "internalType": "address",
          "name": "beneficiary",
          "type": "address"
        },
        {
          "indexed": false,
          "internalType": "uint256",
          "name": "amount",
          "type": "uint256"
        },
        {
          "indexed": false,
          "internalType": "uint256",
          "name": "timestamp",
          "type": "uint256"
        }
      ],
      "name": "ProposalExecuted",
      "type": "event"
    },
    {
      "inputs": [
        {
          "internalType": "uint256",
          "name": "_proposalId",
          "type": "uint256"
        }
      ],
      "name": "executeProposal",
      "outputs": [],
      "stateMutability": "nonpayable",
      "type": "function"
    },
    {
      "inputs": [],
      "name": "getBalance",
      "outputs": [
        {
          "internalType": "uint256",
          "name": "",
          "type": "uint256"
        }
      ],
      "stateMutability": "view",
      "type": "function"
    },
    {
      "inputs": [],
      "name": "owner",
      "outputs": [
        {
          "internalType": "address",
          "name": "",
          "type": "address"
        }
      ],
      "stateMutability": "view",
      "type": "function"
    },
    {
      "inputs": [],
      "name": "platformContract",
      "outputs": [
        {
          "internalType": "address",
          "name": "",
          "type": "address"
        }
      ],
      "stateMutability": "view",
      "type": "function"
    },
    {
      "inputs": [],
      "name": "proposalContract",
      "outputs": [
        {
          "internalType": "contract ProposalManagement",
          "name": "",
          "type": "address"
        }
      ],
      "stateMutability": "view",
      "type": "function"
    },
    {
      "inputs": [
        {
          "internalType": "address",
          "name": "_platformContract",
          "type": "address"
        }
      ],
      "name": "setPlatformContract",
      "outputs": [],
      "stateMutability": "nonpayable",
      "type": "function"
    },
    {
      "inputs": [
        {
          "internalType": "address",
          "name": "newOwner",
          "type": "address"
        }
      ],
      "name": "transferOwnership",
      "outputs": [],
      "stateMutability": "nonpayable",
      "type": "function"
    },
    {
      "stateMutability": "payable",
      "type": "receive"
    }
  ],
  "bytecode": "0x608060405234801561001057600080fd5b506040516118bc3803806118bc833981810160405281019061003291906101a6565b600073ffffffffffffffffffffffffffffffffffffffff168173ffffffffffffffffffffffffffffffffffffffff16036100a1576040517f08c379a000000000000000000000000000000000000000000000000000000000815260040161009890610256565b60405180910390fd5b806000806101000a81548173ffffffffffffffffffffffffffffffffffffffff021916908373ffffffffffffffffffffffffffffffffffffffff16021790555033600160006101000a81548173ffffffffffffffffffffffffffffffffffffffff021916908373ffffffffffffffffffffffffffffffffffffffff1602179055506000600260146101000a81548160ff02191690831515021790555050610276565b600080fd5b600073ffffffffffffffffffffffffffffffffffffffff82169050919050565b600061017382610148565b9050919050565b61018381610168565b811461018e57600080fd5b50565b6000815190506101a08161017a565b92915050565b6000602082840312156101bc576101bb610143565b5b60006101ca84828501610191565b91505092915050565b600082825260208201905092915050565b7f53656375726546756e64416c6c6f636174696f6e3a20696e76616c696420636f60008201527f6e74726163742061646472657373000000000000000000000000000000000000602082015250565b6000610240602e836101d3565b915061024b826101e4565b604082019050919050565b6000602082019050818103600083015261026f81610233565b9050919050565b611637806102856000396000f3fe6080604052600436106100745760003560e01c80633aef39001161004e5780633aef39001461013a5780638da5cb5b14610165578063a44760f214610190578063f2fde38b146101b9576100b6565b80630d61b519146100bb57806312065fe0146100e4578063162746951461010f576100b6565b366100b6577f363f315f930a17d1266b86a20d6dd34b1cfbc5a9db9f13a65d06a689c3a2af8a3334426040516100ac93929190610ab3565b60405180910390a1005b600080fd5b3480156100c757600080fd5b506100e260048036038101906100dd9190610b2a565b6101e2565b005b3480156100f057600080fd5b506100f9610695565b6040516101069190610b57565b60405180910390f35b34801561011b57600080fd5b5061012461069d565b6040516101319190610b72565b60405180910390f35b34801561014657600080fd5b5061014f6106c3565b60405161015c9190610bec565b60405180910390f35b34801561017157600080fd5b5061017a6106e7565b6040516101879190610b72565b60405180910390f35b34801561019c57600080fd5b506101b760048036038101906101b29190610c33565b61070d565b005b3480156101c557600080fd5b506101e060048036038101906101db9190610c33565b610889565b005b600160009054906101000a900473ffffffffffffffffffffffffffffffffffffffff1673ffffffffffffffffffffffffffffffffffffffff163373ffffffffffffffffffffffffffffffffffffffff16148061028b5750600260009054906101000a900473ffffffffffffffffffffffffffffffffffffffff1673ffffffffffffffffffffffffffffffffffffffff163373ffffffffffffffffffffffffffffffffffffffff16145b6102ca576040517f08c379a00000000000000000000000000000000000000000000000000000000081526004016102c190610ce3565b60405180910390fd5b600260149054906101000a900460ff161561031a576040517f08c379a000000000000000000000000000000000000000000000000000000000815260040161031190610d75565b60405180910390fd5b6001600260146101000a81548160ff02191690831515021790555060008060009054906101000a900473ffffffffffffffffffffffffffffffffffffffff1673ffffffffffffffffffffffffffffffffffffffff16633656de21836040518263ffffffff1660e01b81526004016103919190610b57565b600060405180830381865afa1580156103ae573d6000803e3d6000fd5b505050506040513d6000823e3d601f19601f820116820180604052508101906103d79190611074565b9050806080015161041d576040517f08c379a00000000000000000000000000000000000000000000000000000000081526004016104149061112f565b60405180910390fd5b8060a0015115610462576040517f08c379a0000000000000000000000000000000000000000000000000000000008152600401610459906111c1565b60405180910390fd5b80604001514710156104a9576040517f08c379a00000000000000000000000000000000000000000000000000000000081526004016104a090611253565b60405180910390fd5b8061012001514210156104f1576040517f08c379a00000000000000000000000000000000000000000000000000000000081526004016104e8906112e5565b60405180910390fd5b60008054906101000a900473ffffffffffffffffffffffffffffffffffffffff1673ffffffffffffffffffffffffffffffffffffffff1663424a3d77836040518263ffffffff1660e01b815260040161054a9190610b57565b600060405180830381600087803b15801561056457600080fd5b505af1158015610578573d6000803e3d6000fd5b5050505060008160c0015173ffffffffffffffffffffffffffffffffffffffff1682604001516040516105aa90611336565b60006040518083038185875af1925050503d80600081146105e7576040519150601f19603f3d011682016040523d82523d6000602084013e6105ec565b606091505b5050905080610630576040517f08c379a0000000000000000000000000000000000000000000000000000000008152600401610627906113bd565b60405180910390fd5b7f2d436577633120007446fc8116bf731759187b21264eb8a052e92be53c64c61e838360c0015184604001514260405161066d94939291906113dd565b60405180910390a150506000600260146101000a81548160ff02191690831515021790555050565b600047905090565b600260009054906101000a900473ffffffffffffffffffffffffffffffffffffffff1681565b60008054906101000a900473ffffffffffffffffffffffffffffffffffffffff1681565b600160009054906101000a900473ffffffffffffffffffffffffffffffffffffffff1681565b600160009054906101000a900473ffffffffffffffffffffffffffffffffffffffff1673ffffffffffffffffffffffffffffffffffffffff163373ffffffffffffffffffffffffffffffffffffffff161461079d576040517f08c379a000000000000000000000000000000000000000000000000000000000815260040161079490611494565b60405180910390fd5b600073ffffffffffffffffffffffffffffffffffffffff168173ffffffffffffffffffffffffffffffffffffffff160361080c576040517f08c379a000000000000000000000000000000000000000000000000000000000815260040161080390611526565b60405180910390fd5b80600260006101000a81548173ffffffffffffffffffffffffffffffffffffffff021916908373ffffffffffffffffffffffffffffffffffffffff1602179055507f09e93ae7ba1f7fd962c7124bc5590c187355057fd280038414ea0d454635e360814260405161087e929190611546565b60405180910390a150565b600160009054906101000a900473ffffffffffffffffffffffffffffffffffffffff1673ffffffffffffffffffffffffffffffffffffffff163373ffffffffffffffffffffffffffffffffffffffff1614610919576040517f08c379a000000000000000000000000000000000000000000000000000000000815260040161091090611494565b60405180910390fd5b600073ffffffffffffffffffffffffffffffffffffffff168173ffffffffffffffffffffffffffffffffffffffff1603610988576040517f08c379a000000000000000000000000000000000000000000000000000000000815260040161097f906115e1565b60405180910390fd5b6000600160009054906101000a900473ffffffffffffffffffffffffffffffffffffffff16905081600160006101000a81548173ffffffffffffffffffffffffffffffffffffffff021916908373ffffffffffffffffffffffffffffffffffffffff1602179055508173ffffffffffffffffffffffffffffffffffffffff168173ffffffffffffffffffffffffffffffffffffffff167fc13a1166d81cd3b0b352a367aebab95f3a6f6bc695fdab8e9a9d335239c3861b42604051610a4d9190610b57565b60405180910390a35050565b600073ffffffffffffffffffffffffffffffffffffffff82169050919050565b6000610a8482610a59565b9050919050565b610a9481610a79565b82525050565b6000819050919050565b610aad81610a9a565b82525050565b6000606082019050610ac86000830186610a8b565b610ad56020830185610aa4565b610ae26040830184610aa4565b949350505050565b6000604051905090565b600080fd5b600080fd5b610b0781610a9a565b8114610b1257600080fd5b50565b600081359050610b2481610afe565b92915050565b600060208284031215610b4057610b3f610af4565b5b6000610b4e84828501610b15565b91505092915050565b6000602082019050610b6c6000830184610aa4565b92915050565b6000602082019050610b876000830184610a8b565b92915050565b6000819050919050565b6000610bb2610bad610ba884610a59565b610b8d565b610a59565b9050919050565b6000610bc482610b97565b9050919050565b6000610bd682610bb9565b9050919050565b610be681610bcb565b82525050565b6000602082019050610c016000830184610bdd565b92915050565b610c1081610a79565b8114610c1b57600080fd5b50565b600081359050610c2d81610c07565b92915050565b600060208284031215610c4957610c48610af4565b5b6000610c5784828501610c1e565b91505092915050565b600082825260208201905092915050565b7f53656375726546756e64416c6c6f636174696f6e3a2063616c6c65722069732060008201527f6e6f7420617574686f72697a6564000000000000000000000000000000000000602082015250565b6000610ccd602e83610c60565b9150610cd882610c71565b604082019050919050565b60006020820190508181036000830152610cfc81610cc0565b9050919050565b7f53656375726546756e64416c6c6f636174696f6e3a207265656e7472616e637960008201527f2067756172642061637469766500000000000000000000000000000000000000602082015250565b6000610d5f602d83610c60565b9150610d6a82610d03565b604082019050919050565b60006020820190508181036000830152610d8e81610d52565b9050919050565b600080fd5b6000601f19601f8301169050919050565b7f4e487b7100000000000000000000000000000000000000000000000000000000600052604160045260246000fd5b610de382610d9a565b810181811067ffffffffffffffff82111715610e0257610e01610dab565b5b80604052505050565b6000610e15610aea565b9050610e218282610dda565b919050565b600080fd5b600081519050610e3a81610afe565b92915050565b600080fd5b600080fd5b600067ffffffffffffffff821115610e6557610e64610dab565b5b610e6e82610d9a565b9050602081019050919050565b60005b83811015610e99578082015181840152602081019050610e7e565b60008484015250505050565b6000610eb8610eb384610e4a565b610e0b565b905082815260208101848484011115610ed457610ed3610e45565b5b610edf848285610e7b565b509392505050565b600082601f830112610efc57610efb610e40565b5b8151610f0c848260208601610ea5565b91505092915050565b60008115159050919050565b610f2a81610f15565b8114610f3557600080fd5b50565b600081519050610f4781610f21565b92915050565b600081519050610f5c81610c07565b92915050565b60006101408284031215610f7957610f78610d95565b5b610f84610140610e0b565b90506000610f9484828501610e2b565b600083015250602082015167ffffffffffffffff811115610fb857610fb7610e26565b5b610fc484828501610ee7565b6020830152506040610fd884828501610e2b565b6040830152506060610fec84828501610e2b565b606083015250608061100084828501610f38565b60808301525060a061101484828501610f38565b60a08301525060c061102884828501610f4d565b60c08301525060e061103c84828501610f4d565b60e08301525061010061105184828501610e2b565b6101008301525061012061106784828501610e2b565b6101208301525092915050565b60006020828403121561108a57611089610af4565b5b600082015167ffffffffffffffff8111156110a8576110a7610af9565b5b6110b484828501610f62565b91505092915050565b7f53656375726546756e64416c6c6f636174696f6e3a2070726f706f73616c206e60008201527f6f7420617070726f766564000000000000000000000000000000000000000000602082015250565b6000611119602b83610c60565b9150611124826110bd565b604082019050919050565b600060208201905081810360008301526111488161110c565b9050919050565b7f53656375726546756e64416c6c6f636174696f6e3a2070726f706f73616c206160008201527f6c72656164792065786563757465640000000000000000000000000000000000602082015250565b60006111ab602f83610c60565b91506111b68261114f565b604082019050919050565b600060208201905081810360008301526111da8161119e565b9050919050565b7f53656375726546756e64416c6c6f636174696f6e3a20696e737566666963696560008201527f6e742062616c616e636500000000000000000000000000000000000000000000602082015250565b600061123d602a83610c60565b9150611248826111e1565b604082019050919050565b6000602082019050818103600083015261126c81611230565b9050919050565b7f53656375726546756e64416c6c6f636174696f6e3a2074696d656c6f636b207060008201527f6572696f64206e6f7420636f6d706c6574656400000000000000000000000000602082015250565b60006112cf603383610c60565b91506112da82611273565b604082019050919050565b600060208201905081810360008301526112fe816112c2565b9050919050565b600081905092915050565b50565b6000611320600083611305565b915061132b82611310565b600082019050919050565b600061134182611313565b9150819050919050565b7f53656375726546756e64416c6c6f636174696f6e3a207472616e73666572206660008201527f61696c6564000000000000000000000000000000000000000000000000000000602082015250565b60006113a7602583610c60565b91506113b28261134b565b604082019050919050565b600060208201905081810360008301526113d68161139a565b9050919050565b60006080820190506113f26000830187610aa4565b6113ff6020830186610a8b565b61140c6040830185610aa4565b6114196060830184610aa4565b95945050505050565b7f53656375726546756e64416c6c6f636174696f6e3a2063616c6c65722069732060008201527f6e6f7420746865206f776e657200000000000000000000000000000000000000602082015250565b600061147e602d83610c60565b915061148982611422565b604082019050919050565b600060208201905081810360008301526114ad81611471565b9050919050565b7f53656375726546756e64416c6c6f636174696f6e3a20696e76616c696420706c60008201527f6174666f726d2061646472657373000000000000000000000000000000000000602082015250565b6000611510602e83610c60565b915061151b826114b4565b604082019050919050565b6000602082019050818103600083015261153f81611503565b9050919050565b600060408201905061155b6000830185610a8b565b6115686020830184610aa4565b9392505050565b7f53656375726546756e64416c6c6f636174696f6e3a206e6577206f776e65722060008201527f697320746865207a65726f206164647265737300000000000000000000000000602082015250565b60006115cb603383610c60565b91506115d68261156f565b604082019050919050565b600060208201905081810360008301526115fa816115be565b905091905056fea2646970667358221220077504b3c5f1ade8c07c236a9b7c4a0099a605c9b328a5f4da06f3d6cd6a4d1a64736f6c634300081c0033",
  "linkReferences": {},
  "deployedLinkReferences": {}
}