{
  "_format": "hh-sol-artifact-1",
  "contractName": "VotingGovernance",
  "sourceName": "contracts/VotingGovernance.sol",
  "abi": [
    {
      "inputs": [
        {
          "internalType": "address",
          "name": "_proposalContract",
          "type": "address"
        },
        {
          "internalType": "address",
          "name": "_donationContract",
          "type": "address"
        },
        {
          "internalType": "address",
          "name": "_owner",
          "type": "address"
        }
      ],
      "stateMutability": "nonpayable",
      "type": "constructor"
    },
    {
      "anonymous": false,
      "inputs": [
        {
          "indexed": false,
          "internalType": "address",
          "name": "oldOwner",
          "type": "address"
        },
        {
          "indexed": false,
          "internalType": "address",
          "name": "newOwner",
          "type": "address"
        }
      ],
      "name": "OwnershipTransferred",
      "type": "event"
    },
    {
      "anonymous": false,
      "inputs": [
        {
          "indexed": false,
          "internalType": "uint256",
          "name": "proposalId",
          "type": "uint256"
        }
      ],
      "name": "ProposalApproved",
      "type": "event"
    },
    {
      "anonymous": false,
      "inputs": [
        {
          "indexed": false,
          "internalType": "uint256",
          "name": "proposalId",
          "type": "uint256"
        },
        {
          "indexed": false,
          "internalType": "address",
          "name": "voter",
          "type": "address"
        }
      ],
      "name": "ProposalVoted",
      "type": "event"
    },
    {
      "inputs": [
        {
          "internalType": "uint256",
          "name": "_proposalId",
          "type": "uint256"
        }
      ],
      "name": "approveProposal",
      "outputs": [],
      "stateMutability": "nonpayable",
      "type": "function"
    },
    {
      "inputs": [],
      "name": "donationContract",
      "outputs": [
        {
          "internalType": "contract DonationTracking",
          "name": "",
          "type": "address"
        }
      ],
      "stateMutability": "view",
      "type": "function"
    },
    {
      "inputs": [],
      "name": "owner",
      "outputs": [
        {
          "internalType": "address",
          "name": "",
          "type": "address"
        }
      ],
      "stateMutability": "view",
      "type": "function"
    },
    {
      "inputs": [],
      "name": "proposalContract",
      "outputs": [
        {
          "internalType": "contract ProposalManagement",
          "name": "",
          "type": "address"
        }
      ],
      "stateMutability": "view",
      "type": "function"
    },
    {
      "inputs": [
        {
          "internalType": "address",
          "name": "newOwner",
          "type": "address"
        }
      ],
      "name": "transferOwnership",
      "outputs": [],
      "stateMutability": "nonpayable",
      "type": "function"
    },
    {
      "inputs": [
        {
          "internalType": "uint256",
          "name": "_proposalId",
          "type": "uint256"
        }
      ],
      "name": "voteOnProposal",
      "outputs": [],
      "stateMutability": "nonpayable",
      "type": "function"
    },
    {
      "inputs": [
        {
          "internalType": "uint256",
          "name": "",
          "type": "uint256"
        },
        {
          "internalType": "address",
          "name": "",
          "type": "address"
        }
      ],
      "name": "votes",
      "outputs": [
        {
          "internalType": "bool",
          "name": "",
          "type": "bool"
        }
      ],
      "stateMutability": "view",
      "type": "function"
    }
  ],
  "bytecode": "0x608060405234801561001057600080fd5b50604051611d35380380611d358339818101604052810190610032919061038e565b600073ffffffffffffffffffffffffffffffffffffffff168373ffffffffffffffffffffffffffffffffffffffff161415801561009c5750600073ffffffffffffffffffffffffffffffffffffffff168273ffffffffffffffffffffffffffffffffffffffff1614155b80156100d55750600073ffffffffffffffffffffffffffffffffffffffff168173ffffffffffffffffffffffffffffffffffffffff1614155b610114576040517f08c379a000000000000000000000000000000000000000000000000000000000815260040161010b9061043e565b60405180910390fd5b826000806101000a81548173ffffffffffffffffffffffffffffffffffffffff021916908373ffffffffffffffffffffffffffffffffffffffff16021790555081600160006101000a81548173ffffffffffffffffffffffffffffffffffffffff021916908373ffffffffffffffffffffffffffffffffffffffff16021790555080600260006101000a81548173ffffffffffffffffffffffffffffffffffffffff021916908373ffffffffffffffffffffffffffffffffffffffff160217905550610220604051806060016040528060218152602001611d1460219139600260009054906101000a900473ffffffffffffffffffffffffffffffffffffffff1661022860201b60201c565b50505061054b565b6102c6828260405160240161023e9291906104ec565b6040516020818303038152906040527f319af333000000000000000000000000000000000000000000000000000000007bffffffffffffffffffffffffffffffffffffffffffffffffffffffff19166020820180517bffffffffffffffffffffffffffffffffffffffffffffffffffffffff83818316178352505050506102ca60201b60201c565b5050565b6102eb816102e66102ee60201b610b961761030f60201b60201c565b60201c565b50565b60006a636f6e736f6c652e6c6f679050600080835160208501845afa505050565b61032160201b610db617819050919050565b61032961051c565b565b600080fd5b600073ffffffffffffffffffffffffffffffffffffffff82169050919050565b600061035b82610330565b9050919050565b61036b81610350565b811461037657600080fd5b50565b60008151905061038881610362565b92915050565b6000806000606084860312156103a7576103a661032b565b5b60006103b586828701610379565b93505060206103c686828701610379565b92505060406103d786828701610379565b9150509250925092565b600082825260208201905092915050565b7f496e76616c696420616464726573730000000000000000000000000000000000600082015250565b6000610428600f836103e1565b9150610433826103f2565b602082019050919050565b600060208201905081810360008301526104578161041b565b9050919050565b600081519050919050565b60005b8381101561048757808201518184015260208101905061046c565b60008484015250505050565b6000601f19601f8301169050919050565b60006104af8261045e565b6104b981856103e1565b93506104c9818560208601610469565b6104d281610493565b840191505092915050565b6104e681610350565b82525050565b6000604082019050818103600083015261050681856104a4565b905061051560208301846104dd565b9392505050565b7f4e487b7100000000000000000000000000000000000000000000000000000000600052605160045260246000fd5b6117ba8061055a6000396000f3fe608060405234801561001057600080fd5b506004361061007d5760003560e01c806398951b561161005b57806398951b56146100dc578063add68edc146100f8578063d23254b414610114578063f2fde38b146101445761007d565b80633aef39001461008257806375624cb9146100a05780638da5cb5b146100be575b600080fd5b61008a610160565b6040516100979190610e3f565b60405180910390f35b6100a8610184565b6040516100b59190610e7b565b60405180910390f35b6100c66101aa565b6040516100d39190610eb7565b60405180910390f35b6100f660048036038101906100f19190610f1c565b6101d0565b005b610112600480360381019061010d9190610f1c565b61052d565b005b61012e60048036038101906101299190610f75565b610931565b60405161013b9190610fd0565b60405180910390f35b61015e60048036038101906101599190610feb565b610960565b005b60008054906101000a900473ffffffffffffffffffffffffffffffffffffffff1681565b600160009054906101000a900473ffffffffffffffffffffffffffffffffffffffff1681565b600260009054906101000a900473ffffffffffffffffffffffffffffffffffffffff1681565b600260009054906101000a900473ffffffffffffffffffffffffffffffffffffffff1673ffffffffffffffffffffffffffffffffffffffff163373ffffffffffffffffffffffffffffffffffffffff1614610260576040517f08c379a00000000000000000000000000000000000000000000000000000000081526004016102579061109b565b60405180910390fd5b6000811180156102fe575060008054906101000a900473ffffffffffffffffffffffffffffffffffffffff1673ffffffffffffffffffffffffffffffffffffffff1663da35c6646040518163ffffffff1660e01b8152600401602060405180830381865afa1580156102d6573d6000803e3d6000fd5b505050506040513d601f19601f820116820180604052508101906102fa91906110d0565b8111155b61033d576040517f08c379a000000000000000000000000000000000000000000000000000000000815260040161033490611149565b60405180910390fd5b60008060009054906101000a900473ffffffffffffffffffffffffffffffffffffffff1673ffffffffffffffffffffffffffffffffffffffff16633656de21836040518263ffffffff1660e01b81526004016103999190611178565b600060405180830381865afa1580156103b6573d6000803e3d6000fd5b505050506040513d6000823e3d601f19601f820116820180604052508101906103df91906113e6565b90506000816060015111610428576040517f08c379a000000000000000000000000000000000000000000000000000000000815260040161041f9061147b565b60405180910390fd5b6104676040518060400160405280601681526020017f417070726f76696e672070726f706f73616c2049443a0000000000000000000081525083610bb7565b60008054906101000a900473ffffffffffffffffffffffffffffffffffffffff1673ffffffffffffffffffffffffffffffffffffffff1663257f8088836040518263ffffffff1660e01b81526004016104c09190611178565b600060405180830381600087803b1580156104da57600080fd5b505af11580156104ee573d6000803e3d6000fd5b505050507f28ec9e38ba73636ceb2f6c1574136f83bd46284a3c74734b711bf45e12f8d929826040516105219190611178565b60405180910390a15050565b61056c6040518060400160405280600f81526020017f566f74696e6720616464726573733a000000000000000000000000000000000081525033610c53565b600160009054906101000a900473ffffffffffffffffffffffffffffffffffffffff1673ffffffffffffffffffffffffffffffffffffffff1663ef037b90336040518263ffffffff1660e01b81526004016105c79190610eb7565b602060405180830381865afa1580156105e4573d6000803e3d6000fd5b505050506040513d601f19601f82011682018060405250810190610608919061149b565b610647576040517f08c379a000000000000000000000000000000000000000000000000000000000815260040161063e90611514565b60405180910390fd5b6000811180156106e5575060008054906101000a900473ffffffffffffffffffffffffffffffffffffffff1673ffffffffffffffffffffffffffffffffffffffff1663da35c6646040518163ffffffff1660e01b8152600401602060405180830381865afa1580156106bd573d6000803e3d6000fd5b505050506040513d601f19601f820116820180604052508101906106e191906110d0565b8111155b610724576040517f08c379a000000000000000000000000000000000000000000000000000000000815260040161071b90611149565b60405180910390fd5b6003600082815260200190815260200160002060003373ffffffffffffffffffffffffffffffffffffffff1673ffffffffffffffffffffffffffffffffffffffff16815260200190815260200160002060009054906101000a900460ff16156107c2576040517f08c379a00000000000000000000000000000000000000000000000000000000081526004016107b990611580565b60405180910390fd5b60016003600083815260200190815260200160002060003373ffffffffffffffffffffffffffffffffffffffff1673ffffffffffffffffffffffffffffffffffffffff16815260200190815260200160002060006101000a81548160ff02191690831515021790555060008054906101000a900473ffffffffffffffffffffffffffffffffffffffff1673ffffffffffffffffffffffffffffffffffffffff1663f3b9e61c826040518263ffffffff1660e01b81526004016108849190611178565b600060405180830381600087803b15801561089e57600080fd5b505af11580156108b2573d6000803e3d6000fd5b505050506108f56040518060400160405280602081526020017f566f7465207265676973746572656420666f722070726f706f73616c2049443a81525082610bb7565b7f34647120636ce03d739347e28e9d1bdd34fd03d066ae60439fb1be2721ad16cd81336040516109269291906115a0565b60405180910390a150565b60036020528160005260406000206020528060005260406000206000915091509054906101000a900460ff1681565b600260009054906101000a900473ffffffffffffffffffffffffffffffffffffffff1673ffffffffffffffffffffffffffffffffffffffff163373ffffffffffffffffffffffffffffffffffffffff16146109f0576040517f08c379a00000000000000000000000000000000000000000000000000000000081526004016109e79061109b565b60405180910390fd5b600073ffffffffffffffffffffffffffffffffffffffff168173ffffffffffffffffffffffffffffffffffffffff1603610a5f576040517f08c379a0000000000000000000000000000000000000000000000000000000008152600401610a5690611615565b60405180910390fd5b610af76040518060400160405280601b81526020017f4f776e657273686970207472616e736665727265642066726f6d3a0000000000815250600260009054906101000a900473ffffffffffffffffffffffffffffffffffffffff166040518060400160405280600381526020017f746f3a000000000000000000000000000000000000000000000000000000000081525084610cef565b7f8be0079c531659141344cd1fd0a4f28419497f9722a3daafe3b4186f6b6457e0600260009054906101000a900473ffffffffffffffffffffffffffffffffffffffff1682604051610b4a929190611635565b60405180910390a180600260006101000a81548173ffffffffffffffffffffffffffffffffffffffff021916908373ffffffffffffffffffffffffffffffffffffffff16021790555050565b60006a636f6e736f6c652e6c6f679050600080835160208501845afa505050565b610c4f8282604051602401610bcd9291906116a2565b6040516020818303038152906040527fb60e72cc000000000000000000000000000000000000000000000000000000007bffffffffffffffffffffffffffffffffffffffffffffffffffffffff19166020820180517bffffffffffffffffffffffffffffffffffffffffffffffffffffffff8381831617835250505050610d91565b5050565b610ceb8282604051602401610c699291906116d2565b6040516020818303038152906040527f319af333000000000000000000000000000000000000000000000000000000007bffffffffffffffffffffffffffffffffffffffffffffffffffffffff19166020820180517bffffffffffffffffffffffffffffffffffffffffffffffffffffffff8381831617835250505050610d91565b5050565b610d8b84848484604051602401610d099493929190611702565b6040516020818303038152906040527faabc9a31000000000000000000000000000000000000000000000000000000007bffffffffffffffffffffffffffffffffffffffffffffffffffffffff19166020820180517bffffffffffffffffffffffffffffffffffffffffffffffffffffffff8381831617835250505050610d91565b50505050565b610da881610da0610b96610dab565b63ffffffff16565b50565b610db6819050919050565b610dbe611755565b565b600073ffffffffffffffffffffffffffffffffffffffff82169050919050565b6000819050919050565b6000610e05610e00610dfb84610dc0565b610de0565b610dc0565b9050919050565b6000610e1782610dea565b9050919050565b6000610e2982610e0c565b9050919050565b610e3981610e1e565b82525050565b6000602082019050610e546000830184610e30565b92915050565b6000610e6582610e0c565b9050919050565b610e7581610e5a565b82525050565b6000602082019050610e906000830184610e6c565b92915050565b6000610ea182610dc0565b9050919050565b610eb181610e96565b82525050565b6000602082019050610ecc6000830184610ea8565b92915050565b6000604051905090565b600080fd5b600080fd5b6000819050919050565b610ef981610ee6565b8114610f0457600080fd5b50565b600081359050610f1681610ef0565b92915050565b600060208284031215610f3257610f31610edc565b5b6000610f4084828501610f07565b91505092915050565b610f5281610e96565b8114610f5d57600080fd5b50565b600081359050610f6f81610f49565b92915050565b60008060408385031215610f8c57610f8b610edc565b5b6000610f9a85828601610f07565b9250506020610fab85828601610f60565b9150509250929050565b60008115159050919050565b610fca81610fb5565b82525050565b6000602082019050610fe56000830184610fc1565b92915050565b60006020828403121561100157611000610edc565b5b600061100f84828501610f60565b91505092915050565b600082825260208201905092915050565b7f4f6e6c79206f776e65722063616e20706572666f726d2074686973206163746960008201527f6f6e000000000000000000000000000000000000000000000000000000000000602082015250565b6000611085602283611018565b915061109082611029565b604082019050919050565b600060208201905081810360008301526110b481611078565b9050919050565b6000815190506110ca81610ef0565b92915050565b6000602082840312156110e6576110e5610edc565b5b60006110f4848285016110bb565b91505092915050565b7f496e76616c69642070726f706f73616c2049442e000000000000000000000000600082015250565b6000611133601483611018565b915061113e826110fd565b602082019050919050565b6000602082019050818103600083015261116281611126565b9050919050565b61117281610ee6565b82525050565b600060208201905061118d6000830184611169565b92915050565b600080fd5b6000601f19601f8301169050919050565b7f4e487b7100000000000000000000000000000000000000000000000000000000600052604160045260246000fd5b6111e182611198565b810181811067ffffffffffffffff82111715611200576111ff6111a9565b5b80604052505050565b6000611213610ed2565b905061121f82826111d8565b919050565b600080fd5b600080fd5b600080fd5b600067ffffffffffffffff82111561124e5761124d6111a9565b5b61125782611198565b9050602081019050919050565b60005b83811015611282578082015181840152602081019050611267565b60008484015250505050565b60006112a161129c84611233565b611209565b9050828152602081018484840111156112bd576112bc61122e565b5b6112c8848285611264565b509392505050565b600082601f8301126112e5576112e4611229565b5b81516112f584826020860161128e565b91505092915050565b61130781610fb5565b811461131257600080fd5b50565b600081519050611324816112fe565b92915050565b600060c082840312156113405761133f611193565b5b61134a60c0611209565b9050600061135a848285016110bb565b600083015250602082015167ffffffffffffffff81111561137e5761137d611224565b5b61138a848285016112d0565b602083015250604061139e848285016110bb565b60408301525060606113b2848285016110bb565b60608301525060806113c684828501611315565b60808301525060a06113da84828501611315565b60a08301525092915050565b6000602082840312156113fc576113fb610edc565b5b600082015167ffffffffffffffff81111561141a57611419610ee1565b5b6114268482850161132a565b91505092915050565b7f4e6f20766f746573206361737420666f7220746869732070726f706f73616c2e600082015250565b6000611465602083611018565b91506114708261142f565b602082019050919050565b6000602082019050818103600083015261149481611458565b9050919050565b6000602082840312156114b1576114b0610edc565b5b60006114bf84828501611315565b91505092915050565b7f4f6e6c79207374616b65686f6c646572732063616e20766f74652e0000000000600082015250565b60006114fe601b83611018565b9150611509826114c8565b602082019050919050565b6000602082019050818103600083015261152d816114f1565b9050919050565b7f596f75206861766520616c726561647920766f7465642e000000000000000000600082015250565b600061156a601783611018565b915061157582611534565b602082019050919050565b600060208201905081810360008301526115998161155d565b9050919050565b60006040820190506115b56000830185611169565b6115c26020830184610ea8565b9392505050565b7f4e6577206f776e65722063616e6e6f74206265207a65726f2061646472657373600082015250565b60006115ff602083611018565b915061160a826115c9565b602082019050919050565b6000602082019050818103600083015261162e816115f2565b9050919050565b600060408201905061164a6000830185610ea8565b6116576020830184610ea8565b9392505050565b600081519050919050565b60006116748261165e565b61167e8185611018565b935061168e818560208601611264565b61169781611198565b840191505092915050565b600060408201905081810360008301526116bc8185611669565b90506116cb6020830184611169565b9392505050565b600060408201905081810360008301526116ec8185611669565b90506116fb6020830184610ea8565b9392505050565b6000608082019050818103600083015261171c8187611669565b905061172b6020830186610ea8565b818103604083015261173d8185611669565b905061174c6060830184610ea8565b95945050505050565b7f4e487b7100000000000000000000000000000000000000000000000000000000600052605160045260246000fdfea2646970667358221220dae23150b0da095e9b2b63d4955f995d14b32486fcda1b7c23299a1f8e6ebfcd64736f6c634300081c0033566f74696e67476f7665726e616e6365206465706c6f7965642e204f776e65723a",
  "linkReferences": {},
  "deployedLinkReferences": {}
}